:020000040800F2
:1020000030040020E1220008E9220008EB22000849
:10201000ED220008EF220008F12200080000000075
:10202000000000000000000000000000F322000893
:10203000F522000800000000F7220008F92200083D
:10204000FB220008FB220008FB220008FB220008FC
:10205000FB220008FB220008FB220008FB220008EC
:10206000FB220008FB220008FB220008FB220008DC
:10207000FB220008FB220008FB220008FB220008CC
:10208000FB220008FB220008FB220008FB220008BC
:10209000FB220008FB220008FB220008FB220008AC
:1020A000FB220008FB220008FB220008FB2200089C
:1020B000FB220008FB220008FB220008FB2200088C
:1020C000FB220008FB220008FB220008FB2200087C
:1020D000FB220008FB220008FB220008FB2200086C
:1020E000FB220008FB220008FB220008DFF80CD0CE
:1020F00000F0B6FC004800473123000830040020FF
:102100000CB50020019000906B48006840F48030CE
:102110006949086000BF6848006800F4003000901A
:102120000198401C0190009818B90198B0F5A06F73
:10213000F1D16148006810F4003F02D00120009006
:1021400001E0002000900098012842D15B4800681F
:1021500040F01000594908600846006820F003006C
:1021600008600846006840F0020008605248406875
:10217000514948600846406848600846406840F455
:10218000806048600846406820F47C10486008463B
:10219000406840F4E81048600846006840F08070ED
:1021A000086000BF4448006810F0007FFAD0424841
:1021B000406820F00300404948600846406840F00D
:1021C0000200486000BF3C48406800F00C0008284E
:1021D000F9D10CBD10B5FFF793FF10BD10B536480F
:1021E000006840F0010034490860084640683449FE
:1021F00008403149486008460068324908402E4985
:1022000008600846006820F480200860084640689E
:1022100020F4FE0048604FF41F008860FFF7DAFFEB
:1022200029482A49086010BD10B50021002000226D
:10223000214B5B6803F00C0121B1042906D0082969
:1022400028D107E0224B234C236027E0204B214C70
:10225000236023E0184B5B6803F47010164B5B6837
:1022600003F48032022303EB904022B91A4B43431C
:10227000184C23600DE0104B5B6813F4003F04D052
:10228000154B4343134C236003E0114B4343114C64
:10229000236003E00E4B0F4C236000BF00BF064BD2
:1022A0005B68C3F303130D4CE15C0A4B1B68CB4026
:1022B000084C236010BD00000010024000200240C6
:1022C0000000FFF8FFFFF6FE0020000808ED00E028
:1022D00000127A000000002000093D0004000020E8
:1022E0000648804706480047FEE7FEE7FEE7FEE7B0
:1022F000FEE7FEE7FEE7FEE7FEE7FEE7DD2100087A
:10230000ED20000800BF411E0800FCD1704710B549
:102310000121102000F090F910200F49C87003200F
:1023200088704FF4005008800C4800F04DFA10BD42
:10233000FFF7EDFF0FE04FF40051084800F0EFFA0F
:102340000748FFF7DFFF4FF40051044800F0E9FAB7
:102350000348FFF7D7FFEEE714000020001001400C
:10236000FFFF0F00DD48006840F00100DB49086016
:1023700008464068DA490840D8494860084600687D
:10238000D8490840D54908600846006820F48020F4
:1023900008600846406820F4FE0048604FF41F00C3
:1023A00088607047CD49096821F48031CB4A1160BB
:1023B0001146096821F480211160B0F5803F03D0F7
:1023C000B0F5802F0ED106E0C449096841F4803190
:1023D000C24A116007E0C149096841F4A021BF4A1F
:1023E000116000E000BF00BF704710B50146002239
:1023F000002300204A11012A02D1B84C236806E0CC
:10240000022A02D1B54C236A01E0B44C636A01F0A0
:102410001F02012494401C4201D0012000E0002052
:1024200010BD38B5002000900024002500BF3120E9
:10243000FFF7DBFF05460098401C00900098B0F5C0
:10244000A06F01D0002DF2D03120FFF7CEFF08B1F0
:10245000012400E00024204638BD014600209F4AA8
:10246000106820F0F80040EAC100106070479E49F3
:102470000860704702460020984B586820F47C1092
:1024800042EA01031843954B586070479649086625
:10249000704701460020914A506820F0030008432D
:1024A000506070478D48406800F00C00704701464E
:1024B00000208A4A506820F0F000084350607047BE
:1024C00001460020854A506820F4E06008435060CF
:1024D000704701460020814A506820F4605040EA6D
:1024E000C1005060704729B17C4A527A02437B4B4D
:1024F0005A7204E0794A527A8243784B5A72704792
:102500007A490860704701460020744A506820F4F8
:1025100040400843506070470021754A11706F4A6F
:1025200082F82010012802D0042808D103E00121FC
:102530006F4A117004E005216D4A117000E000BF80
:1025400000BF70476B49086070476449096A0143DE
:10255000624A11627047674944390860704730B574
:1025600000210022002400235C4D6D6805F00C0161
:1025700021B1042905D0082923D105E05E4D05606D
:1025800022E05D4D05601FE0544D6D6805F470124A
:10259000524D6D6805F48034022505EB92421CB95A
:1025A000564D554305600BE04C4D6D6815F4003FEA
:1025B00003D0524D5543056002E04F4D5543056031
:1025C00002E04D4D056000BF00BF444D6D6805F051
:1025D000F00109094A4D6B5C0568DD4045603F4DDF
:1025E0006D6805F4E061090A454D6B5C4568DD40A6
:1025F00085603A4D6D6805F46051C90A404D6B5CC9
:102600004568DD40C560354D6D6805F44041890B76
:102610003C4D6B5CC568B5FBF3F5056130BD29B178
:102620002E4A526902432D4B5A6104E02B4A5269EB
:1026300082432A4B5A61704729B1284A9269024362
:10264000264B9A6104E0254A92698243234B9A61A2
:10265000704729B1214AD2690243204BDA6104E074
:102660001E4AD26982431D4BDA61704729B11B4A69
:10267000D2680243194BDA6004E0184AD2688243F8
:10268000164BDA60704729B1144A12690243134BA2
:102690001A6104E0114A12698243104B1A617047B3
:1026A00014494039086070470F49C86470470B49A6
:1026B000C87170470948406A40F080700749486215
:1026C000704701460020054A92680A4201D0012065
:1026D00000E00020704701498872704700100240F6
:1026E0000000FFF8FFFFF6FE00004242D800424221
:1026F000201002408004424200127A0000093D008E
:10270000180000202800002010B50446CA48844262
:1027100008D101210420FFF7A9FF00210420FFF7C1
:10272000A5FF46E0C548844208D101210820FFF7F3
:102730009DFF00210820FFF799FF3AE0C04884423E
:1027400008D101211020FFF791FF00211020FFF791
:102750008DFF2EE0BB48844208D101212020FFF7E5
:1027600085FF00212020FFF781FF22E0B648844248
:1027700008D101214020FFF779FF00214020FFF719
:1027800075FF16E0B148844208D101218020FFF78F
:102790006DFF00218020FFF769FF0AE0AC4884420A
:1027A00007D101218015FFF761FF0021A015FFF778
:1027B0005DFF10BD10B501210846FFF757FF00214E
:1027C0000120FFF753FF10BD2DE9F041024600251F
:1027D0000026002000230024002791F803C00CF0FD
:1027E0000F0591F803C01CF0100F03D091F802C040
:1027F0004CEA050591F800C0BCF1000F31D0146817
:1028000000202BE04FF0010C0CFA00F3B1F800C0EF
:102810000CEA03069E4220D183004FF00F0C0CFA05
:1028200003F7BC4305FA03FC4CEA040491F803C027
:10283000BCF1280F06D14FF0010C0CFA00FCC2F8D5
:1028400014C00AE091F803C0BCF1480F05D14FF065
:10285000010C0CFA00FCC2F810C0401C0828D1D3AF
:102860001460B1F800C0BCF1FF0F34DD54680020E3
:102870002EE000F1080C4FF0010808FA0CF3B1F853
:1028800000C00CEA03069E4221D183004FF00F0CDA
:102890000CFA03F7BC4305FA03FC4CEA040491F874
:1028A00003C0BCF1280F05D100F1080C08FA0CF8A0
:1028B000C2F8148091F803C0BCF1480F07D100F1B1
:1028C000080C4FF0010808FA0CF8C2F81080401C00
:1028D0000828CED35460BDE8F0814FF6FF71018027
:1028E000022181700421C170704702460020936864
:1028F0000B4201D0012000E00020704701468868AB
:1029000080B2704702460020D3680B4201D00120FC
:1029100000E0002070470146C86880B2704701613E
:102920007047416170470AB1016100E04161704741
:10293000C16070474FF480320A43826181618261D5
:1029400082698269704702460020424B18684FF640
:102950008073184040EA021008433E4B18607047ED
:102960003D49C8617047F0B50A46002300240021A4
:10297000002500F00046B6F1004F02D1354EF16956
:1029800001E0344E7168C0F3034583B200F4401691
:10299000B6F5401F08D121F070612E4E766826F002
:1029A00070662C4F7E6012E000F48016B6F5801F32
:1029B00006D1032606FA05F4A14341F0706106E052
:1029C000460D360103FA06F6B14341F0706122B1BB
:1029D000460D360103FA06F6314300F00046B6F123
:1029E000004F02D11B4EF16101E01A4E7160F0BD43
:1029F00030B500228B071C0F0F2303FA04F2154B8E
:102A000008338C1053F824309343124C08348D1043
:102A100044F8253023468C1053F824308C07240FBB
:102A200000FA04F423430B4C08348D1044F825308D
:102A300030BD0A490860704700080140000C0140A1
:102A4000001001400014014000180140001C01402A
:102A5000002001400000014000002042DC00204234
:102A6000064C074D06E0E06840F0010394E80700DB
:102A700098471034AC42F6D3FFF73CFBA42A000879
:102A8000C42A000802E008C8121F08C1002AFAD1AF
:102A900070477047002001E001C1121F002AFBD1DE
:102AA00070470000C42A0008000000202C0000002D
:102AB000842A0008F02A00082C00002004040000EA
:102AC000942A000800A24A04000000000000000050
:102AD00001020304060708090000000000000000CE
:102AE00001020304010203040607080902040608A0
:04000005080020EDE2
:00000001FF
