:020000040800F2
:10000000F005002001010008670E0008850C0008BB
:10001000650E00089F010008031B00080000000097
:100020000000000000000000000000008D1100082A
:10003000D10800080000000029100008190100087C
:100040001B0100081B0100081B0100081B01000820
:100050001B0100081B0100081B0100081B01000810
:100060001B0100081B0100081B0100081B01000800
:100070001B0100081B0100081B0100081B010008F0
:100080001B0100081B0100081B0100081B010008E0
:10009000951A00081B0100081B0100081B0100083D
:1000A0001B0100081B0100081B0100081B010008C0
:1000B0001B0100081B0100081B0100081B010008B0
:1000C0001B0100081B0100081B0100081B010008A0
:1000D0001B0100081B0100081B0100081B01000890
:1000E000350900081B010008B9180008DFF80CD01A
:1000F00000F018F800480047511B0008F0050020E8
:100100000648804706480047FEE7FEE7FEE7FEE7B1
:10011000FEE7FEE7FEE7FEE7FEE7FEE769180008F8
:10012000ED000008064C074D06E0E06840F00103D2
:1001300094E8070098471034AC42F6D3FFF7DAFF93
:10014000841C0008A41C000870B58C1810F8015B12
:1001500015F0070301D110F8013B2A1106D110F860
:10016000012B03E010F8016B01F8016B5B1EF9D164
:100170002B0705D40023521E0DD401F8013BFAE7EA
:1001800010F8013BCB1A921C03E013F8015B01F855
:10019000015B521EF9D5A142D8D3002070BDFEE705
:1001A000C1B2000A40EA0120704700002DE9F84F73
:1001B0000020ADF80000DFF834A14BF6BF7648F21E
:1001C00080074A4D4A4C40F68F7848F60F7BDFF89F
:1001D00024910AF1440A31E00888474A10F00F00E0
:1001E000107034D0454901EB8001D1F8002CADF8F6
:1001F0000020BDF8002012040BD5D1F8002C02EA33
:100200000802C1F8002C3E4901EB800050F8040CB4
:100210008047BDF80000000610D537483749007800
:1002200001EB8001D1F8002C02EA0B02C1F8002C8E
:10023000344901EB800050F8040C8047DAF80000E4
:100240004946A9F800000004C6D4BDE8F88F286824
:100250002080208800F030006080208800F440502A
:1002600020802868304080F4005080F0200038431F
:1002700028600888C006286815D400EA0B002860AA
:1002800000F002FD26E02188890401D580F40050A9
:100290006188C90626D46188890601D580F02000CE
:1002A00038432860D1E7ADF80000BDF80000000534
:1002B00006D5286800EA0800286001F0ABF809E0DC
:1002C000BDF800000004B9D5286800EA08002860DD
:1002D00000F076FE286821883040C904D3D580F428
:1002E0008050D0E780F01000D5E70000005C0040AF
:1002F0002E010020220000201C01002000500040A0
:10030000480000202C000020810008480844D0F854
:10031000001C490409D5D0F8001C48F68F72114022
:100320004CF280021143C0F8001C7047005000409E
:10033000810008480844D0F8001C490609D5D0F8C7
:10034000001C48F68F72114048F2C0021143C0F8F9
:10035000001C704700500040810006480144D1F85D
:10036000000C48F68F62104048F280021043C1F83A
:10037000000C704700500040174910B50A6891887A
:1003800041BB062804D1117801F07F01012905D075
:10039000117801F07F0121290AD01BE090782228F2
:1003A00002D0212802D015E00C490CE00C490AE0EB
:1003B000032802D009280DD101E00A4903E00B4BC4
:1003C00009490920187029B100209161508288479D
:1003D000002010BD022010BD2001002031040008C3
:1003E00009040008150400087905000864000020CD
:1003F000014901F0D5B8000074000020014901F066
:10040000CFB800006C000020014901F0C9B800001D
:100410008400002008B1044870470449012009689D
:1004200008820020704700006800002020010020A2
:10043000014901F0B5B800007C00002005490968B9
:10044000C978042901D900207047034A02EBC10191
:1004500001F0A6B820010020BC00002009B9002846
:1004600000D002207047000006490968097801F0B1
:100470007F01212901D10B2801D00220704700F013
:100480006FB8000020010020274810B50068002147
:100490008172C1722549C9794172002000F078FE4D
:1004A0004FF40071002000F041FF1021002000F007
:1004B00013FF1821002000F097FE5821002000F0C3
:1004C000EDFE0020FFF748FF194890F82C1000209F
:1004D00000F09AFE002000F0CFFE4FF4C061012032
:1004E00000F024FF4FF48071012000F0D7FE4FF49C
:1004F000A071012000F078FE4021012000F0DEFE16
:100500004021012000F080FE4FF44051012000F016
:100510009BFE2021012000F0DFFE002000F040FEC5
:1005200004490120086010BD20010020F21B0008D2
:100530008C0000200401002004480068807A002814
:1005400002D0034905200860704700002001002008
:1005500004010020014904200860704704010020C4
:10056000034804490068C0784860002070470000D4
:10057000200100206400002008B1044870470449AD
:1005800002200968088200207047000065000020F2
:100590002001002070477047054810B5006800240E
:1005A000847200F065FD01F077FA0248046010BD26
:1005B00020010020040100202DE9F047DFF894809D
:1005C000254F4FF03009D8F8001001F11005088AC6
:1005D0000E7A08B9042E04D0AC88A04215D804269F
:1005E00014E01E480178012903D007261020388026
:1005F0002BE01B4A002112681A4B120403EBD23283
:100600005160A7F8009001701FE00226844200D9D3
:100610000446A968204688478246002000F018FB5F
:1006200001462246504601F06DFA2146002000F0B6
:1006300045FE2888001B2880688820446880A7F829
:10064000009009494FF440500880D8F80000067225
:10065000BDE8F087200100203001002014010020B7
:10066000505C0040006000402E0100202DE9F04762
:100670002A4EDFF8AC802B4F35684FF0300935F843
:10068000100FA968A9B100B3AC88844200D9044610
:100690002046884782462888001B28806888204496
:1006A0006880002000F0B4FA01462246504600F06F
:1006B000ABFC288848B14FF44051A8F80010002145
:1006C000084600F0FBFDA7F800902888A98888421A
:1006D00001D3032001E020B1052031680872BDE894
:1006E000F0873168062008720F48006880688047EC
:1006F0003068007A08280AD00C49002009680C4AA2
:10070000090402EBD131486048463880E7E74FF4EE
:100710008051A8F800101020F7E700002001002009
:100720002E0100203001002024010020505C0040F8
:1007300000600040F8B55D4C5D4D0926206800273B
:1007400029684278062A05D0AAB1082A4DD00A2A7B
:1007500050D06BE00278520668D18078012804D02E
:10076000022804D0032804D060E0C96956E0096A71
:1007700054E0496A52E04288B2BBC288022A55D18D
:1007800002798ABB0278530601D1838833B102F023
:100790007F02012A04D0022A0CD047E045493DE0FF
:1007A0008A69407900219047F0B92068807A002852
:1007B000F4D13BE0417901F00F0001F070020B062B
:1007C0003D4901EB8001D1F8001C03D5C1F30111B3
:1007D000090102E0C1F301310903384B1B78834260
:1007E00024D90AB90029D9D120E0007840061DD1CA
:1007F000334913E0027802F07F02012A16D1827A8F
:10080000A2B1428892B9027982B9C288012A0DD177
:100810008A6940790021904740B92A4931B120685E
:100820004782816100208847002006E0296820680F
:10083000096940788847032813D021680A8AA2F5FD
:100840007F43FF3B0BD002280ED06AB10878000628
:1008500026D5C888009082420AD9088218E00E7214
:10086000F8BD20680672F8BD4FF008000872F8BDA8
:100870000ED22868144B90F82C00824201D21F70CF
:1008800006E0B2FBF0F400FB142008B90120187058
:10089000286890F82C008882BDE8F840FFF78CBEED
:1008A00003200872094900030880F8BD20010020D8
:1008B00024010020E515000800500040DC00002065
:1008C00079150008BD150008140100202E01002034
:1008D0007047704770B5154D4FF4005421462846B7
:1008E00000F092F91249012001F0E6F81048027870
:1008F00032B1012A07D0022A08D0032A08D112E017
:1009000000F0F0F904E000F05FFA01E000F016FA00
:100910004FF44051012000F097FC21462846BDE8E5
:10092000704000F073B900F03DFA00000010014083
:100930003401002010B54FF40054204600F030F888
:10094000002804D02046BDE8104000F001B810BDDA
:100950000149086070470000140401407CB5002084
:100960008DF8040010208DF805004FF40055012487
:1009700000958DF80640684600F022F82846FFF7FB
:10098000E7FFA5042846FFF7E3FF08208DF80500E0
:1009900000958DF80640684600F012F87CBD000016
:1009A000064A014600201268044B0A4014331B68B3
:1009B0000B4202D0002A00D0012070470004014001
:1009C00030B51A498379026853B30B6893430B60BF
:1009D0000A1D13680468A343136002790A4413686C
:1009E000046823431360114A083213680468A34360
:1009F0001360131D1C680568AC431C604479102CFF
:100A000005D021440A68006802430A6030BD1168BD
:100A1000046821431160196800680143196030BD02
:100A20000079084401689143016030BD0004014031
:100A30000149C860704700000020024070B50546BB
:100A40004FF43026304600F05FF8042811D1094CED
:100A5000206940F0020020616561206940F040009B
:100A60002061304600F050F8216941F6FD721140D6
:100A7000216170BD0020024008490420CA68D207E5
:100A800001D001207047CA68520701D50220704783
:100A9000C968C906FBD5032070470000002002404A
:100AA0002DE9F841064600204FF4005700900D460E
:100AB000384600F029F8042816D10C4C206940F083
:100AC000010020613580B846384600F01DF8BF1E91
:100AD000042806D1B61C280C00963080404600F051
:100AE00013F8216939402161BDE8F88100200240F6
:100AF000034802494160034941607047230167454B
:100B000000200240AB89EFCD00B50346FFF7B4FFEC
:100B100003E000BFFFF7B0FF5B1E012803D0002BEE
:100B200000D1052000BD002BF4D1FAE708B5012162
:100B3000102000F0BFFA8020ADF8000003208DF8EF
:100B4000020014208DF803006946024800F004F802
:100B500008BD000000100140F0B5CA78002502F081
:100B60000F03D20601D58A7813430A784FF00F0E8F
:100B700012F0FF0F4FF001021CD004680F8802FA38
:100B800005F63740B74211D14FEA850C0EFA0CF743
:100B900024EA070703FA0CF43C43CF78282F02D04D
:100BA000482F02D002E0466100E006616D1C082D6E
:100BB000E4D304600C88FF2C1ED944685FF0000663
:100BC00006F1080702FA07F50F882F40AF420FD150
:100BD0004FEA860C0EFA0CF7BC4303FA0CF73C43C1
:100BE000CF78282F00D14561CF78482F00D10561FB
:100BF000761C082EE4D34460F0BD024600209268C3
:100C00000A4200D00120704741617047016170477E
:100C10000549096889B201EBC000044901EB4000B5
:100C2000008980B270470000505C004000600040C6
:100C30000549096889B201EBC000044901EB400095
:100C40008089C0F309007047505C0040006000409C
:100C50000449096889B201EBC000034931F810006A
:100C600080B27047505C004000600040044901EBD6
:100C70008000D0F8000CC0F30110000170470000A4
:100C800000500040FEE7000010B5134C2068017AC8
:100C9000022904D0042902D0062905D015E0FFF767
:100CA0008BFC2068007A11E04178052909D1017890
:100CB000490606D1C07800F073FA08480068006A57
:100CC00080470748006880688047082021680872CC
:100CD000BDE8104000F0AAB9200100202801002042
:100CE0002401002010B5FFF703FF3420FFF7A0FE1A
:100CF00010480179C27802EB01218278407802EB3A
:100D0000012100EB01200C49884203D3FFF796FE36
:100D100000BF00BF0120FFF7A9FF3028FAD0054926
:100D200040224031812000F0D9FEBDE81040012072
:100D300000F0EABA3401002000200008174810B57E
:100D40000179C27802EB01218278407802EB01211F
:100D500000EB01211248814210D3104C0020403496
:100D600004C904F8202004EB8003120A5A70120A06
:100D70009A70120A401CDA701028F1D30120FFF794
:100D800075FF3028FAD0054940224031812000F01B
:100D9000A5FEBDE81040012000F0B6BA34010020E5
:100DA00000200008BFF34F8F05480168054A01F491
:100DB000E06111430160BFF34F8F00BFFDE700000A
:100DC0000CED00E00400FA0570B5FFF791FE342049
:100DD000FFF72EFE1A4C2079E17801EB0020A17874
:100DE00001EB0020617801EB00261648864216D3FD
:100DF0005FF0000504EB8500017AC27902EB012166
:100E00008279407902EB012100EB01213046FFF7A6
:100E100047FE00BF00BF6D1C361D082DEAD3012020
:100E2000FFF724FF3028FAD00549402240318120C5
:100E300000F054FEBDE87040012000F065BA0000EB
:100E400034010020002000080448817A044809B1D8
:100E5000052100E00121016000F006BDD401002061
:100E600004010020FEE770477047000070B50F23B3
:100E7000C47801780122F4B1144C2468457804F454
:100E8000E064C4F5E064240AC4F10406E340847815
:100E9000B5401C402C4301F1E021230181F80034CE
:100EA000007800F01F018A404009800000F1E02036
:100EB000C0F8002170BD01F01F0082404809800089
:100EC00000F1E020C0F8802170BD00000CED00E0D2
:100ED0000249084302490860704700000000FA0513
:100EE0000CED00E070B5304D4FF000062868017839
:100EF00044784A0606D001F07F0001282AD0022853
:100F00002DD037E0092C06D0052C07D0032C0ED0AD
:100F1000012C14D02EE000F0AFFB2AE0C1787F292D
:100F200030D8817871BB818861BB807A29E0C17833
:100F300001291FD18088E8B900F0BAFB19E0C17817
:100F4000012917D18188A9B9407A800612D517489E
:100F5000466009E00B2C0DD100F000FC09E0012CEB
:100F600002D0032C03D005E000F088FA01E000F085
:100F7000B1FB58B10E4920460968496988470328E2
:100F800002D018B108200CE009200AE00949062027
:100F90000968094A090402EBD131084A4E60302140
:100FA00011802968087270BD200100201401002002
:100FB00024010020505C004000600040300100200F
:100FC00010B50F4C2068007A022811D004280FD0E9
:100FD000032804D0052802D0072805D008E0FFF731
:100FE00045FB2068007A04E006480068C068804736
:100FF000082021680872BDE8104000F017B8000012
:101000002001002024010020064B521C520803EB53
:10101000410105D031F8043B20F8023B521EF9D1C2
:101020007047000000600040704700000C4810B599
:1010300090F82C10002000F0E7F80A480068007AC9
:10104000082802D0092809D006E007494FF480504B
:101050000880064910200880002010BD012010BD26
:101060008C000020200100202E01002030010020F3
:1010700010B5012000F024FC064801210160002188
:10108000054A0160031D19604FF4E05111800160B1
:10109000002010BD405C00402C010020044A0029C3
:1010A000D16901D0014300E08143D1617047000064
:1010B00000100240044A0029916901D0014300E078
:1010C0008143916170470000001002400149C1F85E
:1010D000D8007047000042422DE9F041214C07281A
:1010E00000D0207022781F4D0627052104261E48B7
:1010F000062A0BD2DFE802F0030C11161E276868DF
:1011000010B12170BDE8F08100F030F82770F9E7E8
:1011100000F02CF82670012022E0022060700320ED
:101120002070EFE76078401E607060780028E9D199
:101130002670E7E7026892B242F010020260217066
:101140000A206070DEE76178491E617061780029CD
:10115000D8D1016889B221F0100101602770002008
:101160006860CFE70C010020405C004010B5064CE1
:10117000206880B220F004002060FFF765FE4FF485
:101180003F40206010BD0000405C00407047000000
:10119000024920F00700086070470000505C0040E2
:1011A000F0B50E490E4D48F68F770B78002148F2C6
:1011B000800C0BE0CEB205EB8604D4F8002C3A404C
:1011C000324342EA0C02C4F8002C491C9942F1D384
:1011D000044940F080000860F0BD0000DC00002001
:1011E000005000404C5C0040054A21F001011268AB
:1011F00092B202EBC000034A02EB400081607047EC
:10120000505C0040006000400D4A12683E2992B2D6
:1012100002EBC0000B4A02EB400209D94809C9069B
:1012200001D1401E80B24FF4004141EA802004E029
:101230004808C90700D0401C8002106070470000B9
:10124000505C00400C60004082000A480244D2F822
:10125000000C4BF68F731840CB0401D580F48050FE
:10126000890401D580F4005048F280010843C2F897
:10127000000C704700500040810007480144D1F83D
:10128000000C4BF68F72104080F4405048F2800200
:101290001043C1F8000C704700500040054A21F08F
:1012A0000101126892B202EBC000034A42F810102A
:1012B00070470000505C004000600040044A126823
:1012C00092B202EBC000034A02EB4000416070475B
:1012D000505C00400060004082000A480244D2F89E
:1012E000000C48F6BF731840CB0601D580F0100003
:1012F000890601D580F0200048F280010843C2F839
:10130000000C704700500040810007480144D1F8AC
:10131000000C48F6BF72104080F0300048F28002A6
:101320001043C1F8000C704700500040820005488F
:101330000244D2F8000C48F68F1318400843C2F854
:10134000000C7047005000400CB500212648019168
:101350000091026842F4803202604FF4A063026898
:1013600002F400320092019A521C0192009A12B9C2
:10137000019A9A42F3D10268920333D50121009178
:101380001A490A6842F010020A600A6822F0030251
:101390000A600A6842F002020A60416841604168DE
:1013A0004160416841F480614160416821F47C11F1
:1013B0004160416841F4E8114160016841F0807189
:1013C000016001688901FCD5416821F00301416099
:1013D000416841F0020141604168C1F38101022985
:1013E000FAD10CBD00910CBD00100240002002405B
:1013F00010B5FFF79BFBBDE81040FFF7AFBA10B583
:101400000020FFF763FE0121BDE81040C805FFF78B
:1014100045BE000070B516480068174D0004C10BAA
:1014200014480144098989B200EB41042868017A13
:1014300009290FD02178017061784170A088FEF7EA
:10144000AFFE296848802089FEF7AAFE29688880B7
:10145000A089C880286801210172C08828B1FFF7DF
:1014600069F9BDE87040FFF7E1BDFFF73BFDF8E724
:10147000505C004000600040200100202DE9F04158
:1014800038480068017811F07F0102D0022905D0A8
:1014900066E0417A01F0DF0141724EE041880029A7
:1014A0005ED10179F1BB4179304D21F080040A060B
:1014B00005EB84022C4BD2F8002C03D5C2F30112A9
:1014C000120102E0C2F3013212031E782346A64243
:1014D00046D93AB3807A28B308064FEA84000ED57D
:1014E0002844D0F8000CC0F30110012821D118467F
:1014F000FEF71EFF20463021FFF7EEFE19E04619E9
:10150000D6F8000CC0F30130012812D14BF68F77CA
:1015100048F28008A4B11846FEF7F6FED6F8000C93
:10152000384000E01CE080F4405040EA0800C6F873
:10153000000C0F480068406980470020BDE8F0813A
:101540000C4890F82C100020FFF75EFED5F8000C38
:10155000384080F4405040EA0800C5F8000CE8E745
:101560000220EBE720010020DC00002000500040BA
:10157000280100208C00002010B5074C30B107482E
:1015800000680068804720680A3010BD216801208B
:101590000882002010BD000020010020280100204A
:1015A000054A13685A8A10B1086810447047888841
:1015B000801A1882002070472001002010B5074CC7
:1015C00030B1074800688068804720680C3010BD43
:1015D000216801200882002010BD000020010020A9
:1015E00028010020204910B5096860B11F48002279
:1015F00002800A7853060AD002F07F02012A16D030
:10160000022A16D001E002200882002010BD497A8B
:101610008A06027802D542F0020201E002F0FD02E1
:1016200049060270D1B211D401F0FE0110E00F485A
:1016300010BD4A79110713060D4A02EB9161D1F8EA
:10164000001C07D5C1F3011106E0017841F001014A
:10165000017003E0C1F301310129F6D005480068AB
:1016600000698047E3E70000200100201601002008
:1016700000500040280100200A4810B500680A4ABE
:10168000C1785278914203D882780AB982880AB127
:10169000022010BD81720548006840688047002024
:1016A00010BD000020010020DC00002028010020E7
:1016B000064810B50068417A41F0200141720448A3
:1016C0000068C0698047002010BD00002001002094
:1016D0002801002070B51D481D4D0368597921F07F
:1016E000800005EB80000C06D0F8004C21F0800251
:1016F00003D5C4F30114240102E0C4F3013424032C
:10170000144D2D78954210D95A8872B96CB19A7AD5
:101710005AB10906D0F8001C48F2800207D548F6F5
:10172000BF73194081F0100106E0022070BD4BF636
:101730008F73194081F480511143C0F8001C064892
:10174000006880698047002070BD000020010020F3
:1017500000500040DC0000202801002010B50E4C95
:101760000E4A20681268C1789269407990472168D2
:101770008A7A22B118B9087908B9887808B10220A4
:1017800010BD07480068C068804720684179C17271
:10179000C1780173002010BD200100202401002029
:1017A00028010020F8B52B49002000900A682A4B38
:1017B0002A4C92B203EB8005D5F8005CADB244F838
:1017C0002050401C0828F5D342F48060086040F0A7
:1017D0000100086020F001050D601E4A121D10680E
:1017E0004005FCD54FF6FF301060002054F8206013
:1017F00003EB8007B6B2C7F8006C401C0828F5D38D
:1018000045F008000860086880B240F004000860F5
:10181000134B18680090186820F0030040F0010096
:1018200018601048046844F0040404601468E40478
:1018300001D430BF09E04EF6FF7414600A6892B21A
:1018400022F008020A6000991960016821F0040181
:101850000160F8BD405C004000500040B401002031
:101860000070004010ED00E00F4810B5016841F035
:101870000101016041680D4A1140416001680C4A54
:1018800011400160016821F480210160416821F468
:10189000FE0141604FF41F018160FFF755FD0549CE
:1018A0004FF00060086010BD001002400000FFF81B
:1018B000FFFFF6FE08ED00E04FF48020FFF748B888
:1018C000044A00284FF08001104601D0FFF79CB970
:1018D000FFF79CB90010014006480549022201604B
:1018E0000A72064A0449C0E901120868004700006C
:1018F000D4010020200100208C000020E000002006
:1019000038B54FF4A060FFF7E3FA14208DF800001B
:1019100001248DF8014000258DF802508DF8034018
:101920006846FFF7A3FA2A208DF800008DF80150D1
:101930008DF803406846FFF799FA28208DF80000DB
:101940008DF801506846FFF791FA38BD2DE9F04156
:101950004A4E88B000243068494D68806888494FF5
:1019600039880840000401D5FEF720FC68883988D2
:101970004FF6FF380840400504D5C6F800804248BD
:1019800040688047698838880140890402D54DF64F
:10199000FF71316069880140C80405D54EF6FF70BB
:1019A00030600020FFF798FB688839880840000500
:1019B0000BD53648007810B1FFF7F4FE02E00220A4
:1019C000FFF78AFB4FF2FF7030606988388801406A
:1019D000890505D54FF6FF5131602978491C2970DA
:1019E00069880140C80545D54FF6FF60306023483F
:1019F000001D00684FF00001000437D56868401CE6
:101A000068606868032832D91C48001F0268120702
:101A10002DD4026892B2AA601D4A6B4602EB84077D
:101A2000D7F8007CBFB243F82470641C082CF5D3AF
:101A3000AC6844F00104AC60AC68A4B20460AC686B
:101A400024F00104AC60AC68A4B2046030684005C6
:101A5000FCD5C6F80080002053F8204002EB800639
:101A6000A4B2C6F8004C401C0828F5D369600720D2
:101A7000FFF732FB08B0BDE8F0810000445C004095
:101A8000200000202C0100208C00002008010020F4
:101A900000500040FFF75ABF054900200860054983
:101AA0004FF43F4008800249091F0860002070473A
:101AB000445C00402C01002070B500F07F060D460C
:101AC0003046FFF7B5F804463046FFF7A1F8014667
:101AD00022462846FFF798FA204670BD70B500F000
:101AE0007F0514460E462846FFF7B2F80146A2B21B
:101AF000304600F007F8A1B22846FFF7DFFB0020D0
:101B000070BDFEE7094B10B5521C520803EB4101B2
:101B10000AD000BF10F8013B521E10F8014B43EAF7
:101B2000042321F8043BF5D110BD00000060004003
:101B300002E008C8121F08C1002AFAD17047704796
:101B4000002001E001C1121F002AFBD170470000F4
:101B500008B501210420FFF7ADFA48208DF80300F5
:101B600003248DF802400120194DADF800006946AC
:101B70002846FEF7F1FF01212846FFF73EF840B165
:101B800014494868144A50601060096881F3088855
:101B9000804701211020FFF78DFA10208DF80300F7
:101BA0008DF8024044020D4DADF8004069462846CC
:101BB000FEF7D2FF21462846FFF728F8FFF718FC6A
:101BC000FFF79EFEFFF71BFCFFF786FEFEE7000017
:101BD0000008014000200008000000200010014023
:101BE0001201000200000040830486190002010275
:101BF000030109022900010100C0320904000002AA
:101C000003000000092111010001221C00070581C9
:101C100003400001070501034000010600FF090120
:101C2000A101190129401501254075089540810041
:101C3000190129409100C00403090436034E0067CE
:101C4000006F002000480075006E00670020004310
:101C50000075006F006E006700200045006C006595
:101C6000006300740072006F006E0069006300730F
:101C7000001203550053004200200042004F004F65
:101C800000540000A41C00080000002034010000E3
:101C900048010008241D000834010020BC04000095
:101CA000401B0008811416033012391A38045A36C2
:101CB000041237F23113D3080C1408690E040A1900
:101CC000D51C8113E01B3308121AF2083229131BAA
:101CD0001C33081C1A0408320913990514088904D6
:101CE0001B0895081A97041B79034019101A5D0404
:101CF0001AFD0C1AF1041A3D0C4132401A373832E1
:101D0000041A3B0832361A7108296019213320164B
:101D100023020129801A394C09169C1A551C4119B5
:041D20002B0129006A
:04000005080000ED02
:00000001FF
