:020000040800F2
:10000000F0050020010100081F0E0008410C000847
:100010001D0E0008A5010008771A00080000000066
:100020000000000000000000000000003D1100087A
:100030009508000800000000D90F00081901000809
:100040001B0100081B0100081B0100081B01000820
:100050001B0100081B0100081B0100081B01000810
:100060001B0100081B0100081B0100081B01000800
:100070001B0100081B0100081B0100081B010008F0
:100080001B0100081B0100081B0100081B010008E0
:10009000091A00081B0100081B0100081B010008C9
:1000A0001B0100081B0100081B0100081B010008C0
:1000B0001B0100081B0100081B0100081B010008B0
:1000C0001B0100081B0100081B0100081B010008A0
:1000D0001B0100081B0100081B0100081B01000890
:1000E000F90800081B01000831180008DFF80CD0DF
:1000F00000F018F800480047C11A0008F005002079
:100100000648804706480047FEE7FEE7FEE7FEE7B1
:10011000FEE7FEE7FEE7FEE7FEE7FEE7E117000881
:10012000ED000008064C074D06E0E06840F00103D2
:1001300094E8070098471034AC42F6D3FFF7DAFF93
:10014000F41B0008141C000870B501EB020410F841
:10015000015B15F0070301D110F8013B2A1106D10C
:1001600010F8012B03E010F8016B01F8016B5B1E26
:10017000F9D12B0705D40023521E0FD401F8013BFF
:10018000FAE710F8013B02F10202A1EB030303E0DE
:1001900013F8015B01F8015B521EF9D5A142D6D3D9
:1001A000002070BDFEE7C1B2000A40EA012070479E
:1001B0002DE9F84F0020ADF80000DFF830A14BF634
:1001C000BF7648F28007484D40F68F78474C48F696
:1001D0000F7BDFF81C910AF1440A2DE0018811F031
:1001E0000F0244490A7030D004EB82000168ADF878
:1001F0000010BDF8001009040BD53E49026802EA60
:10020000080202603C4A087802EB800050F8040CB7
:100210008047BDF8000000060ED53649087804EB8B
:100220008002106800EA0B0010603448097800EB87
:10023000810050F8040C8047DAF800104846A9F80D
:1002400000100904CAD4BDE8F88F216829802988E4
:1002500001F030016980298801F44051298021682A
:10026000314081F4005181F0200139432160008840
:10027000C006206815D400EA0B00206000F0E2FC04
:1002800026E02988890401D580F400506988C906D0
:1002900026D46988890601D580F020003843206083
:1002A000D1E7ADF80000BDF80000000506D52068D4
:1002B00000EA0800206001F07BF809E0BDF80000CA
:1002C0000004B9D5206800EA0800206000F050FE64
:1002D000206829883040C904D3D580F48050D0E705
:1002E00080F01000D5E700002A010020005C0040EB
:1002F0002200002018010020480000202C000020CF
:10030000074901EB80000168490407D5016848F6F8
:100310008F7211404CF2800211430160704700005F
:10032000005C0040074901EB80000168490607D5E1
:10033000016848F68F72114048F2C0021143016013
:1003400070470000005C0040054901EB800108682F
:1003500048F68F62104048F28002104308607047F0
:10036000005C0040174910B50A68918841BB062817
:1003700004D1117801F07F01012905D0117801F035
:100380007F0121290AD01BE09078222802D0212861
:1003900002D015E00C490CE00C490AE0032802D019
:1003A00009280DD101E00A4903E00B4B0949092056
:1003B000187029B10020916150828847002010BD3B
:1003C000022010BD1C0100201D040008F5030008D8
:1003D000010400086505000864000020014901F0DF
:1003E000A5B8000074000020014901F09FB800008A
:1003F0006C000020014901F099B800008400002041
:1004000008B10448704704490120096808820020A7
:1004100070470000680000201C010020014901F025
:1004200085B800007C00002005490968C9780429C6
:1004300001D900207047034A02EBC10101F076B8F0
:100440001C010020BC00002009B9002800D00220B7
:100450007047000006490968097801F07F012129E9
:1004600001D10B2801D00220704700F06FB80000C6
:100470001C010020274810B5006800218172C1725C
:100480002549C9794172002000F05AFE4FF40071ED
:10049000002000F01BFF1021002000F0EFFE1821CB
:1004A000002000F075FE5821002000F0C9FE002059
:1004B000FFF74AFF194890F82C10002000F078FE52
:1004C000002000F0ADFE4FF4C061012000F0FEFE00
:1004D0004FF48071012000F0B3FE4FF4A0710120B1
:1004E00000F056FE4021012000F0BAFE402101201C
:1004F00000F05EFE4FF44051012000F079FE202113
:10050000012000F0BBFE002000F022FE0449012083
:10051000086010BD1C010020621B00088C00002038
:100520000401002004480068807A002802D00349B2
:1005300005200860704700001C0100200401002015
:100540000149042008607047040100200348044961
:100550000068C07848600020704700001C0100203F
:100560006400002008B1044870470449022009686B
:100570000882002070470000650000201C01002058
:1005800070477047054810B500680024847200F079
:1005900047FD01F03BFA0248046010BD1C01002039
:1005A000040100202DE9F047DFF89480254F4FF03B
:1005B0003009D8F8001001F11005088A0E7A08B940
:1005C000042E04D0AC88A04215D8042614E01E489E
:1005D0000178012903D00726102038802BE01B4A20
:1005E000002112681A4B92B203EB42025160A7F845
:1005F000009001701FE00226844200D90446A968D9
:10060000204688478246002000F002FB0146224631
:10061000504601F031FA2146002000F021FE2888E2
:10062000001B2880688820446880A7F8009009494A
:100630004FF440500880D8F800000672BDE8F087FB
:100640001C0100202C01002014010020505C0040FF
:10065000006000402A0100202DE9F047224EDFF81B
:100660008C803027356835F8100FA968A9B100B320
:10067000AC88844200D904462046884781462888B1
:10068000001B2880688820446880002000F0A0FAC1
:1006900001462246484600F08FFC288848B114499C
:1006A0004FF4405008800021084600F0D9FDA8F81A
:1006B00000702888A988884201D3032001E020B176
:1006C000052031680872BDE8F0873168062008729D
:1006D000084900200968084A89B202EB41014860D4
:1006E000A8F80070EFE700001C0100202C0100209A
:1006F0002A010020505C004000600040F8B55C4CCE
:100700005C4D09262068002729684278062A05D012
:10071000AAB1082A4BD00A2A4ED069E002785206C4
:1007200066D18078012804D0022804D0032804D0A0
:100730005EE0C96954E0096A52E0496A50E04288C3
:10074000A2BBC288022A53D102797ABB027853062F
:1007500001D1838833B102F07F02012A04D0022A3A
:100760000CD045E044493BE08A694079002190473C
:10077000E0B92068807A0028F4D139E0417901F0AD
:100780000F0001F070020B063C4951F8201003D510
:10079000C1F30111090102E0C1F301310903384B32
:1007A0001B78834224D90AB90029DBD120E00078E4
:1007B00040061DD1334913E0027802F07F02012A7E
:1007C00016D1827AA2B1428892B9027982B9C288DE
:1007D000012A0DD18A6940790021904740B92A4900
:1007E00031B120684782816100208847002006E0FF
:1007F00029682068096940788847032807D021685C
:100800000A8AA2F57F43FF3B04D10E72F8BD20682F
:100810000672F8BD022809D042B10878000621D539
:10082000C8880090824205D9088213E04FF0080082
:100830000872F8BD0ED22868144B90F82C00824242
:1008400001D21F7006E0B2FBF0F400FB142008B9DF
:1008500001201870286890F82C008882BDE8F840C4
:10086000FFF7A0BE03200872094900030880F8BD05
:100870001C0100202001002071150008005C0040D0
:10088000DC000020051500084915000814010020AF
:100890002A0100207047704770B5154D4FF4005481
:1008A0002146284600F090F91249012001F0BEF8D7
:1008B0001048027832B1012A07D0022A08D0032A50
:1008C00008D112E000F0ECF904E000F059FA01E080
:1008D00000F012FA4FF44051012000F089FC21464B
:1008E0002846BDE8704000F071B900F039FA000008
:1008F000001001403001002010B54FF40054204694
:1009000000F030F8002804D02046BDE8104000F088
:1009100001B810BD0149086070470000140401408F
:100920007CB500208DF8040010208DF805004FF4F0
:100930000055012400958DF80640684600F022F825
:100940002846FFF7E7FFA5042846FFF7E3FF082046
:100950008DF8050000958DF80640684600F012F805
:100960007CBD0000064A014600201268044B0A4084
:1009700014331B680B4202D0002A00D001207047BC
:100980000004014030B51A498379026853B30B68FB
:1009900093430B600A1D13680468A3431360027934
:1009A0000A441368046823431360114A0832136829
:1009B0000468A3431360131D1C680568AC431C60E6
:1009C0004479102C05D021440A68006802430A606B
:1009D00030BD116804682143116019680068014343
:1009E000196030BD0079084401689143016030BD51
:1009F000000401400149C860704700000020024027
:100A000070B505464FF43026304600F05FF80428F4
:100A100011D1094C206940F0020020616561206914
:100A200040F040002061304600F050F8216941F666
:100A3000FD721140216170BD002002400849042070
:100A4000CA68D20701D001207047CA68520701D591
:100A500002207047C968C906FBD503207047000013
:100A6000002002402DE9F841064600204FF40057CF
:100A700000900D46384600F029F8042816D10C4C99
:100A8000206940F0010020613580B846384600F00A
:100A90001DF8BF1E042806D1B61C280C0096308015
:100AA000404600F013F8216939402161BDE8F88122
:100AB00000200240034802494160034941607047F9
:100AC0002301674500200240AB89EFCD00B5034606
:100AD000FFF7B4FF03E000BFFFF7B0FF5B1E012884
:100AE00003D0002B00D1052000BD002BF4D1FAE784
:100AF00008B50121102000F0B5FA8020ADF8000003
:100B000003208DF8020014208DF803006946024886
:100B100000F004F808BD000000100140F0B5CA78EC
:100B2000002502F00F03D20601D58A7813430C7812
:100B30004FF00F0E0122ECB1D0F800400F8802FAFE
:100B400005F63740B74211D14FEA850C0EFA0CF783
:100B500024EA070703FA0CF43C43CF78282F02D08D
:100B6000482F02D002E0466100E006616D1C082DAE
:100B7000E4D304600C88FF2C1ED944685FF00006A3
:100B800006F1080702FA07F50F882F40AF420FD190
:100B90004FEA860C0EFA0CF7BC4303FA0CF73C4301
:100BA000CF78282F00D14561CF78482F00D105613B
:100BB000761C082EE4D34460F0BD02460020926803
:100BC0000A4200D0012070474161704701617047BF
:100BD0000549096889B201EBC000044901EB4000F6
:100BE000008980B270470000505C00400060004007
:100BF0000549096889B201EBC000044901EB4000D6
:100C00008089C0F309007047505C004000600040DC
:100C10000449096889B201EBC000034931F81000AA
:100C200080B27047505C004000600040034951F8BA
:100C30002000C0F30110000170470000005C00407C
:100C4000FEE7000010B5134C2068017A022904D099
:100C5000042902D0062905D015E0FFF7A3FC20687F
:100C6000007A11E04178052909D10178490606D1B9
:100C7000C07800F06DFA08480068006A80470748AD
:100C8000006880688047082021680872BDE810402D
:100C900000F0A4B91C010020240100202001002044
:100CA00010B5FFF707FF3420FFF7A4FE10480179C5
:100CB000C27802EB01218278407802EB012100EB3F
:100CC00001200C49884203D3FFF79AFE00BF00BF02
:100CD0000120FFF7ABFF3028FAD005494022403110
:100CE000812000F0B5FEBDE81040012000F0DEBA22
:100CF0003001002000200008174810B50179C278A3
:100D000002EB01218278407802EB012100EB012106
:100D10001248814210D3104C0020403404C904F81A
:100D2000202004EB8003120A5A70120A9A70120AE9
:100D3000401CDA701028F1D30120FFF777FF30282C
:100D4000FAD0054940224031812000F081FEBDE803
:100D50001040012000F0AABA300100200020000855
:100D6000BFF34F8F04480168044A01F4E061114366
:100D70000160BFF34F8FFEE70CED00E00400FA05C1
:100D800070B5FFF797FE3420FFF734FE1A4C207938
:100D9000E17801EB0020A17801EB0020617801EB04
:100DA00000261648864216D35FF0000504EB850046
:100DB000017AC27902EB01218279407902EB0121AB
:100DC00000EB01213046FFF74DFE00BF00BF361D8E
:100DD0006D1C082DEAD30120FFF728FF3028FAD038
:100DE000054940224031812000F032FEBDE87040CC
:100DF000012000F05BBA0000300100200020000854
:100E00000448817A044809B1052100E0012101600C
:100E100000F0E6BCD001002004010020FEE770478E
:100E200070470000F0B50F21C478027801234FF01D
:100E3000E026DCB1124C2468457804F4E064C4F583
:100E4000E064240AC4F10407E1408478BD400C400A
:100E50002C4321010B4C1155007800F01F018B40F1
:100E6000400906EB8000C0F80031F0BD02F01F0021
:100E70008340500906EB8000C0F88031F0BD0000CF
:100E80000CED00E000E400E002490843024908607C
:100E9000704700000000FA050CED00E070B52F4D22
:100EA0002868017844784A0606D001F07F000128BE
:100EB00028D002282BD035E0092C06D0052C07D0ED
:100EC000032C0ED0012C14D02CE000F099FB28E06C
:100ED000C1787F292ED8817861BB818851BB807A07
:100EE00027E0C17801291DD18088D8B900F0A4FB82
:100EF00017E0C178012915D1818899B9407A800617
:100F00000AD40FE00B2C0DD100F0E8FB09E0012C16
:100F100002D0032C03D005E000F07EFA01E000F0DF
:100F20009DFB58B10E492046096849698847032846
:100F300002D018B108200DE009200BE0094A062074
:100F400000211268084B92B203EB42025160074A3B
:100F5000302111802968087270BD00001C0100203A
:100F600020010020505C0040006000402C01002067
:100F700010B50F4C2068007A022811D004280FD039
:100F8000032804D0052802D0072805D008E0FFF781
:100F900063FB2068007A04E006480068C068804768
:100FA000082021680872BDE8104000F017B8000062
:100FB0001C01002020010020064B521C520803EBAC
:100FC000410105D031F8043B20F8023B521EF9D113
:100FD0007047000000600040704700000C4810B5EA
:100FE00090F82C10002000F0E3F80A480068007A1E
:100FF000082802D0092809D006E007494FF480509C
:101000000880064910200880002010BD012010BD76
:101010008C0000201C0100202A0100202C0100204F
:1010200010B5012000F008FC0648012101600021F4
:10103000054A0160031D19604FF4E0511180016001
:10104000002010BD405C004028010020044A002917
:10105000D16901D0014300E08143D16170470000B4
:1010600000100240044A0029916901D0014300E0C8
:1010700081439161704700000010024001490860FF
:1010800070470000D80042422DE9F041214C07286A
:1010900000D0207022781F4D0626052104271E4807
:1010A000062A0BD2DFE802F0030C11161E2768682F
:1010B00010B12170BDE8F08100F030F82670F9E73A
:1010C00000F02CF82770012022E00220607003203D
:1010D0002070EFE76078401E607060780028E9D1EA
:1010E0002770E7E7026892B242F0100202602170B6
:1010F0000A206070DEE76178491E6170617800291E
:10110000D8D1016889B221F0100101602670002059
:101110006860CFE70C010020405C004010B5064C31
:10112000206880B220F004002060FFF769FE4FF4D1
:101130003F40206010BD0000405C00407047000050
:10114000024920F00700086070470000505C004032
:10115000F0B50D490D4D48F68F770B78002148F218
:10116000800C09E0CEB205EB860422683A40324397
:1011700042EA0C022260491C9942F3D3034940F031
:1011800080004C310860F0BDDC000020005C0040B5
:10119000054A21F00101126892B202EBC000034A35
:1011A00002EB400081607047505C004000600040EE
:1011B0000D4A12683E2992B202EBC0000B4A02EBC4
:1011C000400209D94809C90601D1401E80B24FF436
:1011D000004141EA802004E04808C90700D0401CD3
:1011E0008002106070470000505C00400C600040BE
:1011F0000A4A02EB800210684BF68F7300EA030084
:10120000CB0401D580F48050890401D580F40050CE
:1012100048F280010843106070470000005C004005
:10122000064901EB800108684BF68F72104080F48C
:10123000405048F28002104308607047005C004054
:10124000054A21F00101126892B202EBC000034A84
:1012500042F8101070470000505C004000600040F1
:10126000044A126892B202EBC000034A02EB40004B
:1012700041607047505C0040006000400A4A02EB49
:101280008002106848F6BF7300EA0300CB0601D560
:1012900080F01000890601D580F0200048F280011E
:1012A0000843106070470000005C0040064901EBF5
:1012B0008001086848F6BF72104080F0300048F2A4
:1012C0008002104308607047005C0040044A02EB53
:1012D0008002106848F68F1318400843106070476A
:1012E000005C00400CB50021264801910091026885
:1012F00042F4803202604FF4A063026802F40032CC
:101300000092019A521C0192009A12B9019A9A42D3
:10131000F3D10268920333D5012100911A490A687A
:1013200042F010020A600A6822F003020A600A68AA
:1013300042F002020A6041684160416841604168D0
:1013400041F480614160416821F47C114160416851
:1013500041F4E8114160016841F080710160016869
:101360008901FCD5416821F003014160416841F0E9
:10137000020141604168C1F381010229FAD10CBD2B
:1013800000910CBD001002400020024010B5FFF794
:10139000AFFBBDE81040FFF7C3BA10B50020FFF760
:1013A0006DFE0121BDE81040C805FFF74FBE0000EB
:1013B00070B516480068174D81B2154800EB410121
:1013C000098989B200EB41042868017A09290FD004
:1013D0002178017061784170A088FEF7E4FE2968E9
:1013E00048802089FEF7DFFE29688880A089C880B0
:1013F000286801210172C08828B1FFF77FF9BDE894
:101400007040FFF7EBBDFFF749FDF8E7505C004087
:10141000006000401C0100202DE9F04134480068C4
:10142000017811F07F0102D0022905D05DE0417AF8
:1014300001F0DF01417247E04188002955D101796F
:10144000F1BB41792C4D21F080040A06294B55F857
:10145000242003D5C2F30112120102E0C2F30132CB
:1014600012031E782346A6423FD94AB3807A38B386
:1014700008060DD555F82400C0F3011001281DD130
:101480001846FEF74FFF20463021FFF7F7FE15E024
:1014900005EB84063068C0F3013001280ED14BF60D
:1014A0008F7748F2800894B11846FEF729FF30681C
:1014B000384080F4405040EA080030600F4800E0B7
:1014C00013E00068406980470020BDE8F0810C48C7
:1014D00090F82C100020FFF76BFE2868384080F44D
:1014E000405040EA08002860E8E70220EDE70000ED
:1014F0001C010020DC000020005C004024010020D2
:101500008C00002010B5074C30B107480068006817
:10151000804720680A3010BD216801200882002021
:1015200010BD00001C01002024010020054A1368A2
:101530005A8A10B10868104470478888801A188247
:10154000002070471C01002010B5074C30B107483F
:1015500000688068804720680C3010BD2168012039
:101560000882002010BD00001C0100202401002082
:101570001F4910B5096860B11E48002202800A7830
:1015800053060AD002F07F02012A16D0022A16D092
:1015900001E002200882002010BD497A8A06027804
:1015A00002D542F0020201E002F0FD02490602709B
:1015B000D1B210D401F0FE010FE00E4810BD4A79FF
:1015C00002F00F0113060C4A52F8211007D5C1F39F
:1015D000011106E0017841F00101017003E0C1F35F
:1015E00001310129F6D00548006800698047E4E729
:1015F0001C01002016010020005C00402401002096
:101600000A4810B500680A4AC1785278914203D856
:1016100082780AB982880AB1022010BD8172054819
:10162000006840688047002010BD00001C010020B9
:10163000DC00002024010020064810B50068417A33
:1016400041F02001417204480068C06980470020D1
:1016500010BD00001C0100202401002070B51B48B3
:1016600003681B48597921F0800500EB85000C06C2
:10167000046821F0800203D5C4F30114240102E0C0
:10168000C4F301342403134D2D7895420FD95A88A1
:101690006AB964B19A7A52B10906016848F28002C7
:1016A00007D548F6BF73194081F0100106E002200B
:1016B00070BD4BF68F73194081F480511143016066
:1016C0000548006880698047002070BD1C0100202B
:1016D000005C0040DC0000202401002010B50E4C0E
:1016E0000E4A20681268C178926940799047216853
:1016F0008A7A22B118B9087908B9887808B1022025
:1017000010BD07480068C068804720684179C172F1
:10171000C1780173002010BD1C01002020010020B1
:1017200024010020F8B52A49002000900A68284BBF
:10173000284C92B2403B00BF53F82050ADB244F861
:101740002050401C0828F7D342F48060086040F025
:101750000100086020F001050D601D4A121D10688F
:101760004005FCD54FF6FF301060002054F8206093
:10177000B6B243F82060401C0828F7D345F00800B3
:101780000860086880B240F004000860124B1868D6
:101790000090186820F0030040F0010018600F4826
:1017A000046844F0040404601468E40401D430BF05
:1017B00009E04EF6FF7414600A6892B222F0080243
:1017C0000A6000991960016821F004010160F8BD08
:1017D000405C0040B00100200070004010ED00E0CF
:1017E0000F4810B5016841F00101016041680D4AE0
:1017F0001140416001680C4A11400160016821F408
:1018000080210160416821F4FE0141604FF41F0115
:101810008160FFF767FD05494FF00060086010BD6B
:10182000001002400000FFF8FFFFF6FE08ED00E0A8
:101830004FF48020FFF76EB8044A00284FF0800173
:10184000104601D0FFF7C0B9FFF7C0B90010014042
:1018500006480549022201600A72064A0449C0E9A5
:101860000112086800470000D00100201C01002080
:101870008C000020E000002038B54FF4A060FFF796
:1018800003FB14208DF8000001248DF80140002591
:101890008DF802508DF803406846FFF7C3FA2A20FE
:1018A0008DF800008DF801508DF803406846FFF771
:1018B000B9FA28208DF800008DF801506846FFF72E
:1018C000B1FA38BD2DE9F0414A4E88B000243068A5
:1018D000494D68806888494F39880840000401D51F
:1018E000FEF766FC688839884FF6FF3808404005E7
:1018F00004D5C6F800804248406880476988388827
:101900000140890402D54DF6FF71316069880140BC
:10191000C80405D54EF6FF7030600020FFF7B4FB19
:1019200068883988084000050BD53648007810B122
:10193000FFF7F8FE02E00220FFF7A6FB4FF2FF7070
:101940003060698838880140890506D54FF6FF5117
:101950003160297801F101012970698801EA0001EB
:10196000C80543D54FF6FF6030602248001D00686F
:101970004FF00002000435D56868401C6860686854
:10198000032830D91B48001F016809072BD40168C0
:1019900089B2A96017494FEA0D03443951F8247000
:1019A000BFB243F82470641C082CF7D3AC6844F031
:1019B0000104AC60AC68A4B20460AC6824F001041B
:1019C000AC60AC68A4B2046030684005FCD5C6F8D1
:1019D0000080002053F82040A4B241F82040401C71
:1019E0000828F7D36A600720FFF74EFB08B0BDE870
:1019F000F0810000445C004020000020280100200D
:101A00008C00002008010020FFF75CBF0549002082
:101A1000086005494FF43F4008800249091F0860EB
:101A200000207047445C00402801002070B500F0A1
:101A30007F060D463046FFF7DBF804463046FFF7D9
:101A4000C7F8014622462846FFF7B6FA204670BD81
:101A500070B500F07F0514460E462846FFF7D8F80B
:101A60000146A2B2304600F007F8A1B22846FFF7BF
:101A7000F7FB002070BDFEE7084B10B5521C520862
:101A800003EB410108D003784478801C43EA042327
:101A900021F8043B521EF6D110BD0000006000404A
:101AA00002E008C8121F08C1002AFAD17047704727
:101AB000002001E001C1121F002AFBD17047000085
:101AC00008B501210420FFF7CDFA48208DF8030066
:101AD00003248DF802400120194DADF8000069463D
:101AE0002846FFF71BF801212846FFF766F840B1AA
:101AF00014494868144A50601060096881F30888E6
:101B0000804701211020FFF7ADFA10208DF8030067
:101B10008DF8024044020D4DADF80040694628465C
:101B2000FEF7FCFF21462846FFF750F8FFF72EFC92
:101B3000FFF7A2FEFFF731FCFFF78AFEFEE7000089
:101B400000080140002000080000002000100140B3
:101B50001201000200000040830486190002010205
:101B6000030109022900010100C03209040000023A
:101B700003000000092111010001221C000705815A
:101B800003400001070501034000010600FF0901B1
:101B9000A1011901294015012540750895408100D2
:101BA000190129409100C00403090436034E00675F
:101BB000006F002000480075006E006700200043A1
:101BC0000075006F006E006700200045006C006526
:101BD000006300740072006F006E006900630073A0
:101BE000001203550053004200200042004F004FF6
:101BF00000540000141C0008000000203001000008
:101C000048010008941C000830010020C0040000B6
:101C1000B01A0008811416033012391A38045A36E3
:101C2000041237F2311397080C1408210E040A1914
:101C3000991C8113501B3308121A620832291A8B1F
:101C400008321C1A74083209138505140875041B20
:101C50000881081A83041365031B0855101A4904E8
:101C60001AE90C1ADD041A290C4132401AA738323D
:101C7000041AAB0832365AE16019213320162302C8
:101C80000129801A254C09169C1A411C41192B0167
:041C9000250000002B
:04000005080000ED02
:00000001FF
