:020000040800F2
:10000000A01C0020450100081F240008A71F0008AD
:100010001D240008530700084540000800000000A8
:10002000000000000000000000000000612800083F
:10003000ED07000800000000A3270008852B00083A
:100040005F0100085F0100085F0100085F01000810
:100050005F0100085F0100085F0100085F01000800
:100060005F0100085F0100085F0100085F010008F0
:100070005F0100085F0100085F0100085F010008E0
:100080005F0100085F0100085F0100085F010008D0
:10009000BD3F00085F0100085F0100085F01000824
:1000A0005F0100085F0100085F0100085F010008B0
:1000B0005F0100085F0100085F0100085F010008A0
:1000C0005F0100085F0100085F0100085F01000890
:1000D0005F0100085F0100085F0100085F01000880
:1000E0005F0100085F0100085F0100085F01000870
:1000F0005F0100085F0100085F0100085F01000860
:100100005F0100085F0100085F0100085F0100084F
:100110005F0100085F0100085F0100085F0100083F
:100120005F0100085F0100085F0100085F0100082F
:10013000DFF80CD000F052FA00480047954D000857
:10014000A01C00200648804706480047FEE7FEE75F
:10015000FEE7FEE7FEE7FEE7FEE7FEE7FEE7FEE777
:10016000ED2B000831010008202A04DB203A21FA97
:1001700002F00021704721FA02F3D040C2F12002C0
:10018000914008431946704740EA01039B0703D09A
:1001900009E008C9121F08C0042AFAD203E011F8C6
:1001A000013B00F8013B521EF9D27047D2B201E088
:1001B00000F8012B491EFBD270470022F6E710B56C
:1001C00013460A4604461946FFF7F0FF204610BDC5
:1001D000421C10F8011B0029FBD1801A704730B572
:1001E0000B46014600202022012409E021FA02F5F5
:1001F0009D4205D303FA02F5491B04FA02F528448F
:10020000151EA2F10102F1DC30BD2DE9F05F0546BB
:10021000002092469B4688460646814640241BE0C5
:100220002846414647462246FFF79EFF53465A4618
:10023000C01A914110D311461846224600F0E0F949
:100240002D1A67EB01084F4622460120002100F0DD
:10025000D7F917EB00094E41201EA4F10104DFDCA1
:10026000484631462A464346BDE8F09F2DE9FE4FF9
:10027000804681EA0300C00F0C46009021F0004147
:1002800023F00045B8EB0200A94105D240462146C3
:1002900090461C460B46024623F00040104347D0D0
:1002A000270DC7F30A00C3F30A510290401A0190C8
:1002B00040286BDAC3F3130040F4801B0098924689
:1002C00020B10023D2EB030A63EB0B0B01985946D4
:1002D000C0F14002504600F093F906460D465046E4
:1002E0005946019A00F09BF910EB08006141002487
:1002F00087EA115284EAE7731A4340D0009A62B346
:10030000019A012A4FEA075215DC001B61EB02013A
:100310004FF0004202EA0752CDE90042001C41F5CD
:10032000801132462B4600F09BF903B0BDE8F08FF8
:1003300040462146F9E7001B61EB0201001C41F534
:10034000801300185B412018A2F5001747EB03014A
:1003500040EAD570B6196D4111E06D084FEA3606D6
:1003600045EAC0754FEA0752001B61EB0201001C11
:1003700041F5801149084FEA3000001951413246D9
:100380002B4603B0BDE8F04F00F05BB900980122A6
:1003900040000023D0EB020263EBE073009821469B
:1003A0004FEAE074B8EB000061EB0401E9E783F089
:1003B00000435BE781F0004158E72DE9FE4F81EAF9
:1003C000030404F0004421F0004100944FF0000BBE
:1003D00023F0004350EA01045ED052EA03045BD0EC
:1003E000C3F30A54C1F30A552C44A4F2F334019424
:1003F000A0FB0254C1F3130141F48011C3F31303B2
:1004000043F4801301FB024400FB034E840A970A65
:1004100044EA815447EA8357A4FB076802958D0A92
:1004200005FB07854FEA932C04FB0C542705029D1E
:100430004FEA065847EA1637B5EB08056EEB070C8E
:10044000870E920E47EA811742EA8312A7FB020148
:10045000B6EB0B0164EB00042B0D43EA0C335E1882
:1004600044EB1C50DA465146E7FB0201C5F3130486
:100470004FEA0B3343EA14534FEA0432019C43EA38
:100480000603A4F10C040294009CCDE900B400F032
:10049000E7F803B0BDE8F08F00200146F9E72DE949
:1004A000F04D81EA030404F0004B21F000451446AE
:1004B0004FF0000A23F0004150EA050220D054EA30
:1004C00001021DD0C5F30A570246C5F31303C1F359
:1004D0001300C1F30A5640F4801543F48013A7EBD0
:1004E0000608101BD64608F2FD3873EB050002D350
:1004F00008F1010801E092185B41B8F1000F03DA3E
:1005000000200146BDE8F08D00204FF48011064622
:1005100084460EE0171B73EB050705D3121B63EB34
:10052000050306434CEA010C49084FEA30009218D3
:100530005B4150EA0107EDD152EA030012D082EA92
:10054000040083EA0501084305D0101BAB4106D225
:100550000122002306E000224FF0004302E06FF08A
:10056000010253101AEB06004CEB085110EB0A0085
:1005700041EB0B01BDE8F04D00F063B8C1F30A5246
:10058000C1F3130140F2FF3341F480119A4202DAC1
:1005900000200146704740F233439A42A2F23342B0
:1005A00002DC5242FFF7E0BD00F02AB830B5041E6D
:1005B00071F1000404DB4FF00044404264EB0101A0
:1005C000141E73F1000405DB1C464FF00043524239
:1005D00063EB0403994208BF904230BD064C074DBF
:1005E00006E0E06840F0010394E807009847103403
:1005F000AC42F6D3FFF7A0FD1C5100083C510008A7
:10060000202A04DB203A00FA02F1002070479140D2
:10061000C2F1200320FA03F3194390407047202AC7
:1006200006DBCB17203A41FA02F043EAE07306E01A
:1006300041FA02F3D040C2F120029140084319462A
:10064000704710B5141E73F1000408DA401C41F124
:10065000000192185B411A4301D120F0010010BD46
:100660002DE9F04D92469B4611B1B1FA81F202E0BC
:10067000B0FA80F220329046FFF7C2FF04460F46E0
:1006800040EA0A0041EA0B0153465A46084313D098
:10069000114653EA010019D0C8F140025046FFF755
:1006A00063FD05460E46504659464246FFF7A8FFF1
:1006B000084305D0012004E020463946BDE8F08D0E
:1006C0000020054346EAE0762C4337430A98630549
:1006D000E40AA0EB08000022FD0A44EA47540A306D
:1006E00002D500200146E9E7010510196941DDE95D
:1006F000084500196941BDE8F04DA2E770B58C18B6
:1007000010F8015B15F0070301D110F8013B2A1125
:1007100006D110F8012B03E010F8016B01F8016B12
:100720005B1EF9D12B0705D40023521E0DD401F80E
:10073000013BFAE710F8013BCB1A921C03E013F8D7
:10074000015B01F8015B521EF9D5A142D8D300200C
:1007500070BDFEE7002070470020704710B50022F2
:100760000449054802F020FC0449034802F016FC45
:10077000002010BD4C100020C0010020640C00209F
:1007800010B50146034802F009FC024802F0EAFBFA
:10079000002010BDC0010020094A10B5D2F818226F
:1007A000D2F814220AB1012010BD0A4601460448BD
:1007B00002F0FAFBBDE81040014802F035BC000031
:1007C000C001002030B504460020651804E000BFD9
:1007D00014F8011B03F026FCAC42F9D3002103F00E
:1007E00021FCBDE83040002103F01CBC704770477D
:1007F00030B585B000250446049500F089FB0A4811
:100800000121001BC00A03900095CDE9011404A941
:10081000684600F02BFA044600F01CFB14B10120DE
:1008200005B030BD0020FBE70000040800B587B02C
:1008300000F06EFB684600F097FA00F00BFB0348EF
:100840000299884300D0022007B000BDF0FF0F00DE
:1008500010B500F05DFB03493420C860BDE81040CE
:1008600000F0F8BA002002402DE9F0411646884613
:100870000546002400F04CFB0E4F13E058F82420EE
:1008800000232946022000F003FB10B10320BDE83D
:10089000F08158F824002968814201D00220F6E74F
:1008A000641C2D1DB44201D2BD42E7D900F0D2FA3A
:1008B0000020ECE7FCFF030810B58EB0044607A843
:1008C00000F052FAACB10020019001200090A52068
:1008D0008DF810009DF82D008DF811000A48099C34
:1008E000044300F015FB00F0C1FA00F013FA10B158
:1008F00007E00120E8E76846029400F047FA002884
:1009000000D004200EB010BDF0FF0F0006490020FB
:10091000C8610648016941F004010161016941F0C3
:100920004001016170470000801800200020024053
:100930002DE9F047DFF89C80D8F820104CF25039B0
:100940000143CFB2C1F30726C1F307450C0E484659
:1009500000F02AF900283BD11F49C86100F0DAF9FC
:10096000002835D1D8F8102042F01002C8F8102025
:10097000FF2F07D01948018839430180484600F00D
:1009800013F9F8B9FF2E08D01448801C01883143B0
:100990000180484600F008F9A0B9FF2D08D00F48A3
:1009A000001D018829430180484600F0FDF848B940
:1009B000FF2C07D00948801D01882143018048464B
:1009C00000F0F2F8D8F8102022F01002C8F8102039
:1009D000BDE8F087002002408018002008F8FF1FC3
:1009E0002DE9F047DFF89C80D8F820104CF2503900
:1009F0008143CFB2C1F30726C1F307450C0E484629
:100A000000F0D2F800283BD11F49C86100F082F9FC
:100A1000002835D1D8F8102042F01002C8F8102074
:100A2000FF2F07D01948018839400180484600F05F
:100A3000BBF8F8B9FF2E08D01448801C018831405B
:100A40000180484600F0B0F8A0B9FF2D08D00F484B
:100A5000001D018829400180484600F0A5F848B9EA
:100A6000FF2C07D00948801D01882140018048469D
:100A700000F09AF8D8F8102022F01002C8F81020E0
:100A8000BDE8F087002002408018002008F8FF1F12
:100A90000449A520C96901F00201022900D1002002
:100AA000704700000020024070B506464CF25035F9
:100AB000284600F079F8002820D11149C861114C6E
:100AC000206940F020002061206940F04000206152
:100AD000284600F069F8216921F0200121610028F1
:100AE0000CD1206940F0100020610748068028469C
:100AF00000F05AF8216921F01001216170BD000059
:100B0000801800200020024000F8FF1F064A002144
:100B1000D16106490A6942F002020A614861086926
:100B200040F040000861704780180020002002401B
:100B3000044B0022DA61044A136943F00103136194
:100B400001807047801800200020024014480022D5
:100B5000C168CB06134904D5CA6942F00202CA61D2
:100B60001022C3685B0705D5CB6943F00103CB6155
:100B700042F00402C369DB0707D0CB6943F00403EA
:100B8000CB61C16921F00101C161A2F58071013918
:100B900001D0C2607047C16921F00101C161704795
:100BA000002002408018002070B5054600F0C2FA0F
:100BB0000646114C09E0681C07D025B100F0BAFACE
:100BC000801BA84201D9032070BDE068C007F2D1A4
:100BD000E068800601D52020E060E068C00605D40A
:100BE000E069C00702D1E068400703D5FFF7AEFF18
:100BF000012070BD002070BD0020024010B504002F
:100C000002D0607910B106E0012010BD00202071F3
:100C1000204600F005F801206071002010BD0000A2
:100C200008B500680649884208D10648416941F084
:100C300040014161406900F04000009008BD0000A3
:100C4000003002400010024070B5044600F072FA15
:100C50000546601C02D004480078044400F06AFA9B
:100C6000401BA042FAD370BD580000202DE9F04788
:100C7000054626480F460126017E01290FD0012195
:100C8000814601762868DFF888804CF250340228CB
:100C900008D0A2462046FFF787FFA8B131E0022026
:100CA000BDE8F0872046FFF77FFF08BB0120FFF774
:100CB0002DFE2046FFF778FFD8F81010064621F0E9
:100CC0000401C8F810101CE04FF0FF303860AC6829
:100CD00011E02046FFF71AFF5046FFF765FFD8F8EE
:100CE0001010060021F00201C8F8101001D03C607D
:100CF00007E004F50064D5E9020100EBC120A04241
:100D0000E7D8002189F818103046C9E7801800207C
:100D10000020024070B5FFF7BBFEC5B24CF2503662
:100D20003046FFF741FF002818D10D49C8610D4C2E
:100D3000206940F020002061206940F040002061DF
:100D40003046FFF731FF216921F0200121610028A1
:100D500004D12846BDE87040FFF7A6BE70BD000074
:100D6000801800200020024070B50446064D072080
:100D70002060286AA060FFF78BFE2074E869C0F34A
:100D80008200607470BD0000002002402DE9F04731
:100D90002D4D04460120297E01290ED001212976FE
:100DA00021784FF00007C9070DD060680128A068BE
:100DB00006D0FFF7BDFDE8BB05E00220BDE8F087E7
:100DC000FFF70EFEF7E72178890703D5207CFFF7B0
:100DD0006BFE78BB21781D4E49074CF2503916D571
:100DE00094F811804846FFF7DFFE78B9EF6130696B
:100DF00040F010003061164948F0880008804846ED
:100E0000FFF7D2FE316921F01001316190B92178EC
:100E1000090716D5D4F81480247E4846FFF7C4FE8F
:100E200040B9EF61306940F010003061A8F800402F
:100E3000484600E005E0FFF7B7FE316921F01001F8
:100E400031612F76BAE700008018002000200240B0
:100E500002F8FF1F0348016941F080010161002091
:100E6000704700000020024000F000BA0548016908
:100E7000890505D4044981600449816000207047D8
:100E8000012070470020024023016745AB89EFCD68
:100E90002DE9F05F07461C4888460024017E154670
:100EA0001E46012909D00121814601764CF2503AB3
:100EB0005046FFF779FE18B122E00220BDE8F09F0E
:100EC000012F02D0022F00D00427D346DFF83CA028
:100ED000220128463146FFF747F981B208EB44006A
:100EE000FFF726FE5846FFF75FFEDAF8102022F0E3
:100EF0000102CAF8102018B9641CE4B2BC42E7D35E
:100F0000002289F81820D9E780180020002002402C
:100F1000064900200A69120607D5054A4A60054AB3
:100F20004A600969090600D5012070470020024087
:100F300023016745AB89EFCD2DE9F84FDFF8B8A164
:100F400000220AF1040B144601274FF00F090BF1A0
:100F5000040E00BF0B6807FA04F52B40AB4274D1B6
:100F6000DFF898C14E68A6EB0C0866452BD00DDC67
:100F7000032E34D005DC36B3012E19D0022E2FD12A
:100F80001BE0112E16D0122E2AD119E0B8F5881FB9
:100F900019D006DCB8F5803F15D0B8F5801F1FD1F9
:100FA00011E0B8F5001F0ED0B8F5041F18D10AE003
:100FB000CA6815E0CA68121D12E0CA6808320FE05C
:100FC000CA680C320CE08A682AB1012A4FF0080284
:100FD00003D0456104E0042202E0056100E0002244
:100FE000FF2B01D8064601E000F104064FEA840514
:100FF00001D9A5F12005D6F800C009FA05F82CEAB8
:10100000080C02FA05F54CEA050CC6F800C04D685C
:10101000ED006AD53A4DAE6946F00106AE61AD69A4
:1010200024F0030605F001050095364D06EB050C8E
:10103000DCF80850A6074FEA167809FA08F6B54317
:10104000314EB04202D100261AE04EE02F4EB0429F
:1010500001D1012614E02E4EB04201D102260FE04C
:101060002C4EB04201D103260AE02B4EB04201D1F2
:10107000042605E0294EB04201D1052600E00626EF
:1010800006FA08F62E43CCF808604D68DAF80060DE
:10109000ED03554601D51E4300E09E432E604D688A
:1010A000AD0305D5DBF800601E43CBF8006004E01B
:1010B000DBF800509D43CBF800504D68DEF800602F
:1010C000ED02754601D51E4300E09E432E604D683B
:1010D000AD0205D5084D0C352E681E432E6004E088
:1010E000054E0C3635689D433560641C102CFFF4AA
:1010F00031AFBDE8F88F000000040140000011107E
:10110000001002400000014000080140000C0140B6
:10111000001001400014014000180140001C014073
:101120008068084000D0012070470AB10161704713
:101130000904FBE701488068704700005800002060
:10114000024881680278114481607047580000208D
:10115000074810B5016841F010010160032000F05C
:1011600073F8002000F006F800F024F8002010BD0D
:101170000020024070B50D4D04464FF47A71287876
:10118000B1FBF0F00A490968B1FBF0F000F0D4FDC2
:1011900048B9102C07D200222146501E00F034F826
:1011A00000206C6070BD012070BD00005800002060
:1011B000640000200C4808B5816941F0010181619B
:1011C000816901F001010091C16941F08051C16163
:1011D000C06900F0805000900448416821F0E0614F
:1011E00041F00071416008BD001002400000014064
:1011F00000F01F02012191404009800000F1E02031
:10120000C0F8001170470000F0B40E4B1B680C468C
:10121000C3F30223C3F10705042D00D90425191DCA
:10122000072901D2002300E0DB1E012606FA05F1A2
:10123000491E214099409E40761E16403143F0BC25
:1012400001F0EEB80CED00E0064900F00702086876
:101250004FF6FF03184040EA0220034A104308609B
:10126000704700000CED00E00000FA05BFF34F8F5F
:1012700005480168054A01F4E06111430160BFF3CC
:101280004F8F00BFFDE700000CED00E00400FA0501
:1012900010B50C0605D501F07F0100EB4110283098
:1012A00003E000EB411000F50A7099B232B101225F
:1012B0008272C180190C0181002010BD002282724F
:1012C0008180F9E7704700EB4112D0F85C04D26BE3
:1012D00002F048B800EB4112D0F85C04D2F83C228E
:1012E00002F095B810B504460A460B0601F07F00DF
:1012F00004EB401101D5283101E001F50A710870B5
:10130000D009487094F82804012809D0012084F8F5
:101310002804206802F06EFC002084F8280410BD28
:10132000022010BD70B50A460446090602F07F008F
:1013300003D504EB4011283103E004EB421101F521
:101340000A7100258D700870D009487094F828043F
:10135000012809D0012084F82804206802F0F8FC54
:1013600084F82854002070BD022070BD01F00F01E8
:1013700000EB4110B0F8440280B2704770B50446EB
:101380000D460E0601F07F0004EB401101D5283117
:1013900001E001F50A710870E80948700A61CB7034
:1013A00094F82804012809D0012084F82804206832
:1013B00002F0F0FA002084F8280470BD022070BD0D
:1013C00070B50C4601F07F0500EB4511C1E98F2394
:1013D0000022C1F8442281F8292281F8285201F51F
:1013E0000A716206006802F00DFD002070BD70B544
:1013F0000D460446090605F07F0003D504EB4011B5
:10140000283103E004EB451101F50A7101228A70CD
:101410000870E809487094F82804012807D084F877
:101420002824206802F0C9FC680602D006E00220E9
:1014300070BD04F22C41206802F088FC002084F882
:10144000280470BD70B50C4601F07F0500EB451116
:10145000C1E90F2300224A64012281F8292001F802
:10146000285F6206006802F0CDFC002070BD10B558
:101470000446006802F0A8FD000402D5204600F0F2
:10148000DFFF206802F0A0FD40050CD5206830F891
:10149000441F21F480610180204600F0EDF8002116
:1014A000204600F0FEF8206802F08EFD400405D5CD
:1014B000206830F8441F21F480410180206802F048
:1014C00083FD800405D5206830F8441F21F40051C5
:1014D0000180206802F078FDC00414D5206830F83F
:1014E000401F21F004010180206830F8401F21F0E6
:1014F00008010180204600F0CCF8206830F8441F35
:1015000021F480510180206802F05EFD00051AD5AB
:10151000206830F8401F41F008010180206830F851
:10152000441F21F400610180206830F8401F41F021
:1015300004010180206802F047FDC043C00402D5C9
:10154000204600F0E3F8206802F03EFD800508D553
:10155000206830F8441F21F400710180204600F01B
:101560009CF8206802F030FDC00505D5206830F8F1
:10157000441F21F48071018010BD00002DE9F0416D
:1015800086B004004FF0000504D094F8290400262A
:1015900020B108E0012006B0BDE8F08184F828649D
:1015A000204600F04BF8032084F82904206802F05C
:1015B000C6FB04F11001142288466846FEF7E4FDDC
:1015C00094E80F0002F014FB0021206802F00FFDE8
:1015D0005FF0010704EB451080F8297000F8285FE0
:1015E0008581C670066146616D1C86610F2DF1D341
:1015F0005FF0000004EB401181F8296281F82802B5
:10160000888681F82B62C1F83862C1F83C62401CC0
:10161000C1F840620F28EDD3142241466846FEF718
:10162000B3FD94E80F0002F07BFB84F8246084F89B
:101630002974206802F072FB0020ACE708B500684E
:101640000B49884212D10B48C16941F40001C161C4
:10165000C069002200F40000009011461420FFF73A
:10166000D3FDBDE808401420FFF7C2BD08BD00004F
:10167000005C00400010024010B504460121D0F883
:101680005C0401F0A1FFD4F85C04BDE8104001F057
:101690006ABFD0F85C0401F085BFD0F85C0401F0AB
:1016A00087BF10B5044690F8280401280BD001200C
:1016B00084F8280484F82410206802F09AFC0020A2
:1016C00084F8280410BD022010BDD0F85C2400F27C
:1016D0002C41104601F08BBF10B5044690F8280449
:1016E000012810D0012084F8280401462046FFF785
:1016F000E9FD206802F010FB206802F058FC002091
:1017000084F8280410BD022010BD000010B5044666
:10171000D0F85C0401F0B8FFA069002804D00348A9
:10172000016841F00601016010BD000010ED00E00D
:101730002DE9F84305460078354CC00754D0E069E0
:101740000026C00008D4E06940F08050E061E06904
:10175000012600F0805000902E480168C90512D47F
:101760000168804641F480710160FFF7E3FC0746A1
:1017700005E000BFFFF7DEFCC01B642823D8D8F8C3
:101780000000C005F6D5206A10F4407021D0A98869
:1017900001F4407181421CD0206A1F49012220F4CB
:1017A00040700A6000220A602062C00711D0FFF773
:1017B000C1FC074641F2883808E000BFFFF7BAFCD9
:1017C000C11B414502D90320BDE8F883206A800788
:1017D000F4D5206A696820F44070084320621EB185
:1017E000E06920F08050E0612878800705D56068C6
:1017F000A96820F44040084360602878C00605D5F9
:101800006068696920F48000084360600020DBE7BD
:101810000010024000700040400442422DE9F047B1
:10182000DFF8548105460E46D8F8000000F00700A6
:10183000B0420CD2D8F8001021F007013143C8F8AB
:101840000010D8F8000000F00700B0426FD12868FF
:101850004A4C810712D5400703D5606840F4E06028
:1018600060602878000703D5606840F460506060CD
:101870006068A96820F0F000084360602878C0071D
:1018800044D06868012816D02168022816D089073C
:1018900000294CDA616821F0030101436160FFF720
:1018A00049FC6968074641F2883001290ED00229B7
:1018B000814618D026E021688903E9E78901E7E736
:1018C000FFF738FCC11B494501D918E08146606823
:1018D000C0F381000128F3D118E000BFFFF72AFC14
:1018E000C11B49450BD86068C0F381000228F5D1BF
:1018F0000CE000BFFFF71EFCC11B494502D90320C5
:10190000BDE8F087606810F00C0FF3D1D8F8001034
:10191000404601F00701B1420BD9016821F00701EF
:1019200031430160006800F00700B04201D001209F
:10193000E6E72878400705D56068E96820F4E060AC
:10194000084360602878000706D56068296920F49C
:10195000605040EAC100606000F036F86168084AF3
:10196000C1F30311515CC840064908600020FFF72D
:1019700001FC0020C4E700000020024000100240EB
:10198000344F000864000020044805490068496895
:10199000044AC1F30221515CC84070476400002032
:1019A00000100240444F0008044805490068496897
:1019B000044AC1F3C221515CC84070476400002052
:1019C00000100240444F000812A185B00FC98DE8F5
:1019D0000F0014A0144A006804905168134801F0E5
:1019E0000C03042B10D0082B0ED1C1F38343C90381
:1019F0001DF803000AD5516804AAC1F34041515CA7
:101A00000A4A5043B0FBF1F005B07047084948431B
:101A1000FAE7000002030405060708090A0B0C0D8B
:101A20000E0F1010010200000010024000127A0098
:101A300000093D002DE9F84F04460078B94DC00774
:101A400048D06868C0F38100012807D06868C0F3F7
:101A50008100022809D16868C00306D52868800380
:101A600038D5606800286FD034E06068B0F5803FFA
:101A70000BD010B1B0F5A02F11D0286820F4803021
:101A80002860286820F4802002E0286840F4803034
:101A90002860606888B1FFF74DFB064609E02868BA
:101AA00040F480202860F0E7FFF744FB801B6428A7
:101AB00075D828688003F7D50CE0FFF73BFB064696
:101AC00005E000BFFFF736FB801B6428F0D82868CC
:101AD0008003F7D42078944E80074FF001094FF02F
:101AE00000083BD5686810F00C0F07D06868C0F399
:101AF0008100022809D16868C00306D428688007DD
:101B000014D5206901281FD110E02069B0B1C6F8B2
:101B10000090FFF70FFB074605E000BFFFF70AFB49
:101B2000C01B0228C4D828688007F7D528686169D7
:101B300020F0F80040EAC10028600FE0C6F80080FD
:101B4000FFF7F8FA074606E0E9E000BFFFF7F2FA10
:101B5000C01B022823D828688007F7D42078000704
:101B60002CD57248A169D9B1C0F80090FFF7E2FA0C
:101B7000074604E0FFF7DEFAC01B02280FD8686AA8
:101B80008007F7D56A484FF4FA510068B0FBF1F0CE
:101B9000009000BF0098411E0091FAD20EE080E054
:101BA000C0F80080FFF7C6FA074604E0FFF7C2FA64
:101BB000C01B022875D8686A8007F7D420784007D0
:101BC00060D5E8690027C00008D4E86940F080507B
:101BD000E861E869012700F08050009055480168ED
:101BE000C90513D40168834641F480710160FFF791
:101BF000A1FA824606E000BFFFF79CFAA0EB0A00BC
:101C000064284ED8DBF80000C005F5D5E06801284F
:101C10000AD008B1052813D0286A20F001002862F4
:101C2000286A20F0040002E0286A40F001002862DF
:101C3000E06841F2883B98B1FFF77CFA82460BE0FE
:101C4000286A40F004002862EEE700BFFFF772FA4E
:101C5000A0EB0A0159455AD8286A8007F6D50CE04E
:101C6000FFF768FA824605E0FFF764FAA0EB0A0185
:101C700059454CD8286A8007F6D41FB1E86920F08E
:101C80008050E861E06988B36968C1F38101022985
:101C900045D00228C6F8608004D0FFF74BFA04460E
:101CA00038E034E0FFF746FA074604E0FFF742FA6F
:101CB000C01B02282BD828688001F7D4206AB0F511
:101CC000803F05D16868A16820F40030084368604F
:101CD000D4E908010843696821F474110843686075
:101CE000C6F86090FFF726FA044606E015E000BF4C
:101CF000FFF720FA001B022809D828688001F7D5D1
:101D00000BE000BFFFF716FA001B022802D90320E0
:101D1000BDE8F88F28688001F4D40020F8E701209E
:101D2000F6E70000001002400000424280044242F8
:101D3000640000200070004010B5401EB0F1807FAC
:101D400001D3012010BD4FF0E02460610F21601726
:101D500000F066FB0020A06107202061002010BD7C
:101D600070B5040004D094F83900002510B106E0E5
:101D7000012070BD84F83850204600F023F824205C
:101D800084F839002068C16821F40051C160204600
:101D900000F050FF2068016921F490410161206842
:101DA000416921F02A0141612068C16841F4005174
:101DB000C160E563202084F8390084F83A000020EF
:101DC00070BD000030B585B00024009401940294E9
:101DD000039400681449884223D11448C16941F42E
:101DE0000031C161C16901F400310491816941F0A0
:101DF0000401816180690E4D00F00400049004200C
:101E00000090022001900320039069462846FFF7C6
:101E100093F80820CDE90004694628460294FFF7AC
:101E20008BF805B030BD00000044004000100240B7
:101E3000000801402DE9F843044690F83A0099461D
:101E400016460D4620284FD195B18EB194F8380032
:101E5000012849D0012084F838000027E7632220B8
:101E600084F83A00FFF766F9A6858046E68531E0FA
:101E70000120BDE8F883E08D401EE085A068434660
:101E8000B0F5805F4FF000024FF020012046CDF802
:101E9000009004D000F086FF98B10320E9E700F03D
:101EA00081FF0028F9D1206900282068406803D00C
:101EB000C1B225F8011B0DE0C0F3080125F8021B93
:101EC00008E0206900282068406801D000F07F0009
:101ED00005F8010BE08D0028CDD1202084F83A00D0
:101EE00084F838700020C4E70220C2E72DE9F843E7
:101EF000044690F839001F4616460D46202850D15A
:101F0000A5B19EB194F8380001284AD0012084F888
:101F100038004FF00008C4F83C80212084F83900D4
:101F2000FFF708F9A6848146E68426E00120BDE893
:101F3000F883E08C401EE084A0684B46B0F5805FDB
:101F40004FF000024FF080012046009703D000F0D0
:101F500029FFE8B90DE000F025FFC8B928882168FD
:101F6000C0F308004860206908B16D1C05E0AD1C95
:101F700003E0216815F8010B4860E08C0028D8D1F7
:101F80004B46002240212046009700F00BFF08B18D
:101F90000320CCE7202084F8390084F83880002022
:101FA000C5E70220C3E7FEE7F0B500220D4B15465A
:101FB00014460A27B1FBF3F630368654B1FBF3F62C
:101FC00003FB1611B3FBF7F3521C861816F8016CCD
:101FD000302E00D125B16D1C641C0A2CEAD3F0BD53
:101FE0000022F9E700CA9A3B10B5002208490948C7
:101FF00001F083F90849074801F073FB07490548D8
:1020000000F0C4FFBDE81040024801F0B7BB00007B
:1020100008000020C0010020480100203C000020F2
:1020200008B500208DF800003A4800F041FD3A481C
:1020300000F03EFD394800F03BFD394800F038FD26
:10204000364800F035FD374800F032FD314800F0E9
:102050002FFD35A000F02CFDFEF7E8FB344C354D8C
:102060004FF0FF36206034A000F022FD42A000F0C7
:102070001FFD51A000F01CFD5FA000F019FD2068BD
:1020800008B16DA000E07CA000F012FD8AA000F075
:102090000FFD286840683346012269462548FFF74E
:1020A000C9FE9DF80000312807D0322808D0332817
:1020B00009D0342813D090A018E000F0D3FBD2E769
:1020C00000F086FCCFE79CA000F0F2FCA349486832
:1020D000A0606060096881F308888047C3E72068D2
:1020E00048B10120FEF7E8FB18B19DA000F0E0FC2C
:1020F000B9E7A7A006E00020FEF7DEFB08B1ACA020
:10210000F4E7B6A000F0D4FCBCA000F0D1FCFEF7D0
:10211000ABFEA8E7D0500008EC4F0008A04F000825
:1021200084500008385000080D0A0D0A0000000015
:102130004C000020800100200D0A3D3D3D3D3D3D0D
:102140003D3D3D3D3D3D3D3D3D3D3D3D3D204D61A8
:10215000696E204D656E75203D3D3D3D3D3D3D3DEB
:102160003D3D3D3D3D3D3D3D3D3D3D3D3D3D3D3D9F
:102170003D3D3D3D0D0A0A002020446F776E6C6F97
:10218000616420696D61676520746F2074686520E3
:10219000696E7465726E616C20466C617368202D87
:1021A0002D2D2D2D2D2D2D2D2D2D2D2D2D2D2D2D5F
:1021B00020310D0A0A000000202055706C6F616408
:1021C00020696D6167652066726F6D207468652097
:1021D000696E7465726E616C20466C617368202D47
:1021E0002D2D2D2D2D2D2D2D2D2D2D2D2D2D2D2D1F
:1021F00020320D0A0A0000002020457865637574BE
:102200006520746865206C6F61646564206170701E
:102210006C69636174696F6E202D2D2D2D2D2D2D10
:102220002D2D2D2D2D2D2D2D2D2D2D2D2D2D2D2DDE
:1022300020330D0A0A000000202044697361626C9B
:1022400065207468652077726974652070726F7498
:10225000656374696F6E202D2D2D2D2D2D2D2D2D47
:102260002D2D2D2D2D2D2D2D2D2D2D2D2D2D2D2D9E
:1022700020340D0A0A0000002020456E61626C6562
:10228000207468652077726974652070726F746558
:102290006374696F6E202D2D2D2D2D2D2D2D2D2D3F
:1022A0002D2D2D2D2D2D2D2D2D2D2D2D2D2D2D2D5E
:1022B00020340D0A0A0000003D3D3D3D3D3D3D3DC1
:1022C0003D3D3D3D3D3D3D3D3D3D3D3D3D3D3D3D3E
:1022D0003D3D3D3D3D3D3D3D3D3D3D3D3D3D3D3D2E
:1022E0003D3D3D3D3D3D3D3D3D3D3D3D3D3D3D3D1E
:1022F0003D3D0D0A0A000000496E76616C6964205C
:102300004E756D6265722021203D3D3E205468650A
:10231000206E756D6265722073686F756C642062E3
:10232000652065697468657220312C20322C203359
:10233000206F7220340D000053746172742070722B
:102340006F6772616D20657865637574696F6E2E55
:102350002E2E2E2E2E0D0A0A00000000004000082E
:102360004572726F723A20466C61736820777269A9
:10237000746520756E2D70726F74656374696F6E0D
:10238000206661696C65642E2E2E0D0A0000000027
:1023900057726974652050726F74656374696F6EEB
:1023A0002064697361626C65642E2E2E0D0A000034
:1023B0004572726F723A20466C6173682077726959
:1023C00074652070726F74656374696F6E206661E6
:1023D000696C65642E2E2E0D0A0000005772697418
:1023E000652050726F74656374696F6E20656E61ED
:1023F000626C65642E2E2E0D0A00000053797374F2
:10240000656D2077696C6C206E6F772072657374D0
:102410006172742E2E2E0D0A00000000FEE7704738
:102420000907090E002806DA00F00F0000F1E0208D
:1024300080F8141D704700F1E02080F80014704708
:102440002DE9FC5F4FF000080446ADF80480ADF8BC
:10245000008048F60F7B4FF002094FF4806692E14E
:10246000BDF8041011F00F072BD030F82710ADF88D
:102470000010BDF80010090478D530F8272040F688
:102480008F710A4020F8272004EB471595F8320297
:1024900005F50A750028206869D0297830F82120D0
:1024A00052047DD5B0F8503009EBC101194406EB58
:1024B0004101415AC1F309015FEA010A71D0EA887A
:1024C000D0E0BDF80410C9062AD4018801EA0B0146
:1024D0000180206804F12805B0F850202B7809EB22
:1024E000C301114406EB4101405AC0F30900606486
:1024F000E16B0844E06300212046FEF7E4FE94F817
:1025000024000028ABD0A8690028A8D194F82400A2
:10251000216840F08000A1F84C0084F8248032E16A
:10252000018804F50A75ADF80010BDF80010090522
:102530001ED5B0F850302978062202EBC1011944AB
:1025400006EB4101405A04F22C41C0F30903EB6150
:10255000AA88206801F03CFD2068018840F68F724F
:10256000114001802046FFF7B0F80CE1A0E055E0F3
:10257000BDF800100904D2D5028840F68F710A40D8
:1025800002802068B0F850302978062202EBC101A1
:10259000194406EB4101405A83059B0DEB6101E0B4
:1025A00051E063E008D0AA886969206801F010FD55
:1025B000E96968690844686100212046FEF78AFEDF
:1025C0002068B0F85010891D06EB410101442869CC
:1025D0003E280CD9C0F34F12C00601D1521E92B250
:1025E0004FF6FF7000EA822040F4004009E0C0F39B
:1025F0004F02C00701D0521C92B24FF6FF7000EAA2
:1026000082200860216808884BF68F72104080F4A1
:10261000405048F2800210430880B4E0B0F85020E7
:102620002B78062101EBC301114406EB4101415A0D
:10263000C1F309015FEA010A24D0AA8853466969F7
:1026400001F0C6FC1EE0B0F85020062303EBC101E8
:10265000114406EB4101415AC1F309015FEA010A45
:1026600004D02A895346696901F0B2FC29782068B0
:1026700030F8213048F68F72134048F2C0021343FD
:1026800020F82130E96901EB0A00E861696901EB92
:102690000A026A61AB6913B12869504504D92978E7
:1026A0002046FEF717FE03E029782046FEF788FE55
:1026B000BDF80000000666D5206804EB471530F829
:1026C000271001EA0B0120F8271095F83200283571
:1026D0000028206812D0297830F82120B0F8503036
:1026E00052061ED509EBC101194406EB4101405ABF
:1026F00083059B0DEB6124D0EA881EE0B0F85030D2
:102700002A7809EBC201194406EB4101405A8305BE
:102710009B0DEB6121D0AA886969206801F06FFCEC
:102720001BE0062202EBC101194406EB4101405AAD
:1027300083059B0DEB6104D02A896969206801F04B
:102740005EFC2978206830F8212048F68F731A4003
:102750004CF280031A4320F821202068B0F8502062
:102760002B7809EBC301114406EB4101405AC0F339
:102770000900E86169690A186A612978AB6920462D
:1027800063B1FEF75FFE2068B0F84410ADF80410A6
:1027900009043FF565AE0020BDE8FC9FFEF793FD00
:1027A000F1E770472DE9F84300240F4606469046AE
:1027B00013460C60012269462848FFF73BFB0500E1
:1027C00020D19DF80000182820D006DC01280BD06D
:1027D00002280BD0042804D104E0412827D0612826
:1027E00025D0012530700DE0802401E04FF4806495
:1027F0003070221D4346B11C1848FFF71BFB050033
:1028000017D0002428463C60BDE8F88343460122E7
:1028100069461248FFF70EFB18B99DF8000018280A
:1028200003D001259DF80000DCE70224DAE7022549
:10283000D8E7F178B07881F0FF0188420AD13019E9
:102840000179407900EB01282146301DFDF7BAFFE0
:102850004045D7D000240125D4E7000080010020A6
:10286000704700001FB50020009001900290039077
:1028700015A000F01DF903A801F0E6FB38B105280A
:102880001AD004281CD002281CD01EA015E0254810
:1028900000F00EF9244800F00BF968460399FFF7A1
:1028A00083FB22A000F004F9684600F001F922A0A1
:1028B00000F0FEF823A000E028A000F0F9F81FBD0A
:1028C00036A0FAE73CA0F8E757616974696E6720A3
:1028D000666F72207468652066696C6520746F206D
:1028E00062652073656E74202E2E2E20287072650E
:1028F00073732027612720746F2061626F727429BF
:102900000A0D00000A0D4661696C656420746F2031
:1029100072656365697665207468652066696C65B3
:10292000210A0D004C4F0008341400200A0D2053DA
:10293000697A653A200000002042797465730D0AB7
:10294000000000002D2D2D2D2D2D2D2D2D2D2D2D6B
:102950002D2D2D2D2D2D2D0A000000000A0A0D54BD
:10296000686520696D6167652073697A65206973A0
:1029700020686967686572207468616E2074686594
:1029800020616C6C6F776564207370616365206D86
:10299000656D6F7279210A0D000000000A0A0D565C
:1029A0006572696669636174696F6E206661696CDE
:1029B0006564210A0D0000000D0A0A41626F7274FD
:1029C000656420627920757365722E0A0D0000001F
:1029D00008B500208DF800000EA000F069F84FF057
:1029E000FF33012269461248FFF724FA9DF80000E0
:1029F00043280DD14FF440520EA1144801F0E6FBDC
:102A00008DF8000008B112A000E01CA000F050F802
:102A100008BD00000A0A0D53656C65637420526599
:102A200063656976652046696C650A0D00000000E3
:102A30008001002055706C6F61646564466C617341
:102A400068496D6167652E62696E0000004000088C
:102A50000A0D4572726F72204F63637572726564FE
:102A6000207768696C65205472616E736D69747447
:102A7000696E672046696C650A0D00000A0D46699B
:102A80006C652075706C6F61646564207375636339
:102A900065737366756C6C79200A0D0001B564234B
:102AA000012269460148FFF721FA08BD8001002094
:102AB000002201E0521C92B2815C0029FAD1014649
:102AC00064230148FFF712BA80010020F0B50546E3
:102AD00000242A7820462346302A2ED16A78782A84
:102AE00001D0582A29D102241CE000BFA2F14106DE
:102AF000052E07D9A2F16107052F03D91136092E3A
:102B000004D913E0A2F13007092F01D8303A04E0CC
:102B1000052E01D8373A00E0573A641C02EB031344
:102B20000B2C04D22A5D002AE0D103E000202A5DAC
:102B3000002A01D101200B60F0BD2A5D62B16B2A31
:102B400001D04B2A02D10CB19B0205E06D2A01D0C5
:102B50004D2A04D11CB11B0501200B600AE0A2F133
:102B60003006092E0CD803EB83036FF02F0606EB1B
:102B700043031344641C0B2CDED20128DDD1F0BDCD
:102B80000020F0BDFEF7DCBA30B595B028216846CC
:102B9000FDF713FB14210AA8FDF70FFB18210FA85E
:102BA000FDF70BFB01210804CDE90010002402947D
:102BB00002250491CDE90750000109906846FEF70F
:102BC00039FF0F20CDE90A056802CDE90C4001214B
:102BD0000AA80E94FEF722FE10200F908004149095
:102BE0000FA8FEF7A5FD15B030BD00000D48016827
:102BF00041F00101016041680B4A114041600168E8
:102C00000A4A11400160016821F480210160416895
:102C100021F4FE0141604FF41F0181600449C003AB
:102C200008607047001002400000FFF8FFFFF6FE4A
:102C300008ED00E02DE9F041044600680169E26812
:102C400021F44051114301612169A0680843616981
:102C500008432168CA6841F20C639A430243CA6080
:102C600020684169A26921F44071114341614C49D6
:102C700020686425322688423CD1FEF795FE00EBA1
:102C8000C00101EB001061688900B0FBF1F7FEF7AD
:102C90008BFE00EBC00101EB00106168B0468900BB
:102CA000B0FBF1F0B0FBF5F06FF01801484307EB13
:102CB000800106EB0110B0FBF5F000F0F006FEF726
:102CC00073FE00EBC00101EB001061688900B0FBEE
:102CD000F1F0B0FBF5F006EB0016FEF765FE00EB39
:102CE000C00101EB001061688900B0FBF1F7FEF74D
:102CF0005BFE3BE0FEF748FE00EBC00101EB00107D
:102D000061688900B0FBF1F7FEF73EFE00EBC00101
:102D100001EB00106168B0468900B0FBF1F0B0FB38
:102D2000F5F06FF01801484307EB800106EB011046
:102D3000B0FBF5F000F0F006FEF726FE00EBC00158
:102D400001EB001061688900B0FBF1F0B0FBF5F019
:102D500006EB0016FEF718FE00EBC00101EB0010B9
:102D600061688900B0FBF1F7FEF70EFE00EBC001D1
:102D700001EB001061688900B0FBF1F0B0FBF5F0E9
:102D80006FF01801484307EB800108EB0110B0FB1E
:102D9000F5F0216800F00F0030448860BDE8F08154
:102DA000003801402DE9F041984617460E4604468A
:102DB000069D1DE0681C1BD02DB1FEF7BBF9A0EBF2
:102DC0000800A84214D92068C16821F4D071C160FC
:102DD0002068416921F001014161202084F8390017
:102DE00084F83A00002084F838000320BDE8F08120
:102DF0002068006836EA000004D00020B842D9D02C
:102E00000020F3E70120F9E7D0F8180220B10021F3
:102E1000C0F81412084670470220704770B5054686
:102E2000D0F8184200F028FBC4F80C02D5F81802BC
:102E300048B1D5F81C12D4F80402CA6804F503712D
:102E40009047002070BD022070BD70B5044600257B
:102E5000812100F077FA0121204600F073FA8221E7
:102E6000204600F06FFAD4F8180250B1D4F81C02D2
:102E700004F5067440688047206800F085FD002056
:102E80002060284670BD10B5D0E9864159B194F84C
:102E90000002FF2807D08B6894F80122214698474A
:102EA000FF2084F80002002010BD00000A210180EC
:102EB000004870477000002043210180004870479F
:102EC000C000002043210180004870477C000020A2
:102ED0004321018000487047040100202DE9F041A2
:102EE0000446007C00254FF4007670B34023022294
:102EF0008121204600F014FB4023022201212046BC
:102F000000F00EFB082303228221204600F008FB7C
:102F10004FF4077000F03AFDC4F81802F0B107460C
:102F2000D4F81C02006880470020C7F81402C7F8D4
:102F30001802207CD7F8042290B1402301212046BA
:102F400000F001FB2846BDE8F081FFE7334602228E
:102F50008121204600F0E4FA3346CEE70125F1E76F
:102F60003346EBE710B5D0F8181269B1027C002A9D
:102F7000D1F8042205D04023012100F0E4FA00201A
:102F800010BD4FF40073F7E7022010BD0246022087
:102F9000002902D00020C2F81C127047D0F8180295
:102FA000C0F8041200207047D0F81802C0F81022B0
:102FB000C0F808120020704770B50646D0F81852C5
:102FC00008780C4610F0600121D0202927D1E28832
:102FD000AAB10006607807D5D6F81C128B6829467E
:102FE0009847E288294617E085F80002A07985F81D
:102FF0000102E2882946304600F050F80FE0D6F88A
:103000001C12607800228B682146984707E06078A0
:103010000A2804D103490122304600F059F8002063
:1030200070BD00006C00002010B5D0F8181289B1F6
:10303000D1F814220AB1012010BD0122C1F81422D6
:10304000B1F8102293B2D1F80822812100F025FBBB
:10305000002010BD022010BD10B5D0F81422526817
:103060009047002010BD134610B50A46002100F01D
:103070006AFA002010BD134610B50A46002100F080
:103080000CFB002010BD10B50446802100F0DCFAD6
:103090002046BDE81040002100F0D6BA10B5032349
:1030A000C0F80821C0F8F431C0F80C2113460A46D4
:1030B000002100F048FA002010BD10B505210023C2
:1030C000C0F8F4111A46194600F03DFA002010BD70
:1030D00010B502238261C0F8F431C26113460A467A
:1030E000002100F0DAFA002010BD10B50421002301
:1030F000C0F8F4111A46194600F0CFFA002010BDAE
:1031000010B50A46024903A000F0D4F8004810BDEB
:10311000640A002043444320436F6E6669670000E1
:1031200012200880004870472800002010B50A4689
:10313000024903A000F0BEF8004810BD640A002058
:1031400043444320496E7465726661636500000004
:1031500004200880004870472400002010B50A466B
:10316000024903A000F0A6F8004810BD640A002040
:1031700053544D6963726F656C656374726F6E69E9
:103180006373000010B50A46024903A000F092F8EC
:10319000004810BD640A002053544D333220566954
:1031A000727475616C20436F6D506F727400000013
:1031B00010B50A46024903A000F07CF8004810BD93
:1031C000640A00203030303030303030303031411F
:1031D00000000000F8B5044648880D46010A082999
:1031E0004BD2DFE801F04A0409174A4A4048D4F8B4
:1031F0001012207C0A6832E0207C02260028D4F8D5
:10320000140205D0C16A684688470146467041E00D
:10321000816AF8E7C0B206282FD2DFE800F0030881
:103220000D12171CD4F81012207C4A6817E0D4F84D
:103230001012207C8A6812E0D4F81012207CCA6830
:103240000DE0D4F81012207C0A6908E0D4F81012BE
:10325000207C4A6903E0D4F81012207C8A69694610
:103260009047014616E0207C38B9D4F81402416B2F
:1032700068468847F5E7207C20B129462046FFF7BD
:1032800002FFF8BDD4F81402016B68468847014676
:1032900007204870BDF800000028F2D0EA88002A14
:1032A000EFD0824200D90246ADF800202046FFF759
:1032B0000FFFF8BD70B5002300281DD0044600257F
:1032C00002E06D1CEDB2641C2678002EF9D10224B8
:1032D00004EB45041480CC545B1C0322CA54002424
:1032E0005B1C06E0CA545B1CDAB28C54521CD3B28D
:1032F000401C0278002AF5D170BD10B580B1D0F81D
:10330000143213B10023C0F8143209B1C0F81012FE
:10331000012180F8FC11027000F0B2F8002010BD0D
:10332000022010BD10B50024D0F82002FDF7FAFFEE
:1033300030B1012801D0022801D0022400E001248C
:10334000204610BD10B50024D0F82002FDF7CAFFBA
:1033500030B1012801D0022801D0022400E001246C
:10336000204610BD2DE9F0411746044641B1D4F87E
:10337000140242698AB394F8FC01032842D043E066
:10338000D4F8F411002504F11400022933D1D0E956
:1033900002639E4207D9F31A83609AB239462046E7
:1033A000FFF769FE12E04068B0FBF3F103FB110187
:1033B000A1B9984212D3D4F8F81188420ED2002253
:1033C00011462046FFF757FEC4F8F85100231A466D
:1033D0001946204600F0B7F80DE012E0D4F81402C8
:1033E000C16829B194F8FC01032801D1204688471F
:1033F0002046FFF762FE94F80002012804D184F809
:10340000005201E0204690470020BDE8F08170B5F1
:103410001546044641B1D4F8140282693AB394F8CF
:10342000FC01032824D025E0D4F8F41104F58270BF
:1034300003291FD1D0E902218A420BD9531A836094
:103440000846834200D303469AB229462046FFF736
:103450000AFE0FE0D4F81402016929B194F8FC01C6
:10346000032801D1204688472046FFF73EFE01E0B1
:1034700020469047002070BDD0F82002FDF776BFAF
:1034800010B51E490446C1F85C04C0F820121C485F
:10349000086008204860022088600320C86000207F
:1034A0008861C86108620846FEF768F808B1FDF750
:1034B0009EF90022D4F820021823114604F508745E
:1034C000FDF7E6FE5823002280212068FDF7E0FE8C
:1034D000C023002281212068FDF7DAFE4FF48873B3
:1034E000002201212068FDF7D3FE4FF480730022F3
:1034F00082212068FDF7CCFE002010BD04060020CC
:10350000005C00400A06D0F8200201F07F0100EBC9
:10351000411002D590F82A00704790F82A027047AF
:1035200070B51D4613460024D0F820022A46FDF748
:1035300025FF30B1012801D0022801D0022400E08B
:103540000124204670BD10B50024D0F82002FDF7FC
:1035500037FF30B1012801D0022801D0022400E059
:103560000124204610BD70B50022044640231146B8
:10357000FFF7D6FF40252B46002280212046C4F8C5
:103580001051FFF7CDFF0120256284F8FC01D4F82B
:10359000180228B1D4F814022179426820469047D5
:1035A000002070BD90F8FD1180F8FC1100207047DC
:1035B00010B590F8FC11032904D1D0F81412C96990
:1035C00001B18847002010BD01740020704710B57C
:1035D0000024D0F82002FEF764F830B1012801D0B1
:1035E000022801D0022400E00124204610BD70B55D
:1035F000044600F50270054600F05FF80120C4F8AB
:10360000F401B4F80E02C4F8F80194F8080210F0BE
:103610001F010AD001290DD0022910D000F080012D
:10362000204600F011F8002070BD2946204600F029
:10363000AAF8F8E72946204600F08CF9F3E7294676
:10364000204600F019F9EEE710B50024D0F820026A
:10365000FDF7CDFE30B1012801D0022801D00224AF
:1036600000E00124204610BD10B50024D0F820024F
:10367000FEF732F830B1012801D0022801D002242F
:1036800000E00124204610BD90F8FC1180F8FD11E7
:10369000042180F8FC110020704710B50024D0F8F8
:1036A0002002FDF7CFFE30B1012801D0022801D061
:1036B000022400E00124204610BD0A7802704A78F6
:1036C00042708A78CB7802EB032242800A794B79E8
:1036D00002EB032282808A79C97902EB0121C18041
:1036E00070470246002011B1C2F814127047022040
:1036F000704710B5D0F8142202241AB1126890470E
:1037000000B90024204610BD70B50E461A4D8978C8
:1037100004462970012928D894F8FC01022802D017
:10372000032822D105E099B10320616084F8FC01EF
:1037300009E091B1606888420AD0C1B22046FFF723
:103740008BFC297861602046FFF7D3FF02280CD05C
:103750002046BDE87040FFF7C8BC022084F8FC0199
:1037600020466160FFF778FCF2E731462046BDE86D
:103770007040FFF788BC00006800002010B5FFF71C
:1037800073FF002010BD2DE9F04100264B78012584
:1037900032460A2B43D2DFE803F03C58425142083C
:1037A00005422A27FFF716FD63E004468888C8B95A
:1037B000C888B8B9887800F07F0794F8FC0103281E
:1037C00010D084F8FE7139462046FFF700FF2046EE
:1037D000FFF78BFC1FB1022084F8FC0149E084F85C
:1037E000FC5146E020461AE0FFF78EFF41E0CB880F
:1037F000012B14D190F8FC31022B02D0032B0ED1F7
:1038000004E08260012200F1080114E00122011DA0
:1038100011E090F8FC21022A04D0032A02D0FFF71D
:1038200032FC26E0C560D0F8041209B10321C16062
:10383000022200F10C01FFF74BFC1AE00446488815
:10384000012816D1C4F804520BE0044690F8FC019C
:10385000022801D00328C5D14888012809D1C4F81D
:103860000422D4F814028268204690472046FFF7CD
:103870003CFC3046BDE8F08170B50D460446287822
:1038800000260979C0F34110012806D06878A0B35A
:1038900001281FD003283FD107E0D4F8140229469D
:1038A000826820469047002070BD94F8FC010228F1
:1038B00017D003282CD1688828B921B1802902D0DB
:1038C0002046FFF7C1FED4F814022946826820463C
:1038D000904713E094F8FC01022802D0032817D186
:1038E00003E0C9B180291BD116E06888A0B9480659
:1038F00004D02046FFF716FDE5E703E02046FFF77A
:10390000F4FB09E094F8FC01022807D003280BD04F
:1039100029462046FFF7B7FB304670BD4806FBD06E
:103920002046FFF791FEF7E7080601F07F0004EB61
:10393000001501D5143501E005F582752046FFF725
:10394000E1FD00B101202860022229462046FFF750
:10395000BFFBE1E770B5054690F8FC010C46032873
:103960000DD1207901280AD8D5F81402826828469A
:103970009047E08830B92846FFF7B7FB02E02846B9
:10398000FFF781FB002070BD7047000000487047C2
:10399000E40300202DE9F047CC780A7848F68F132D
:1039A00034B1012C6DD0022C08D0032C13D10BE0C4
:1039B00030F822401C4044F400730AE030F8224002
:1039C0001C4020F8224006E030F822401C4044F41D
:1039D000C06320F822300C7830F8245048F68F72FB
:1039E000154048F280031D43254320F824508D7A6A
:1039F00048F6BF7904274BF68F7A48F2C0044CF2A0
:103A00008006EDB30D7830F825C048F280180CEA36
:103A1000020C4CEA080C20F825C0CD88B0F850C044
:103A200025F0010591F800800CEBC80C00EB4C0C64
:103A3000CCF800540D89B0F850C025F0010591F87C
:103A4000008007EBC807674400EB4707C7F800543E
:103A50004D78002D0D7830F825704FEA47477DD01E
:103A6000002F05DA30F825701740374320F825700D
:103A70000D7830F825707F0608D530F8257001E004
:103A800024E01DE01740274320F825700C7830F81B
:103A900024501540354320F824500C7830F8242069
:103AA00002EA09021A4320F824200A7830F822108A
:103AB00001EA0A01194320F822100020BDE8F0872E
:103AC00030F822401C4044F4806382E74D78F5B121
:103AD0008D88B0F8506025F001050F7806EBC70619
:103AE00000EB4606C6F800540D7830F825607606DF
:103AF00005D530F825601640264320F825600A7861
:103B000030F8221001EA090181F02001D2E78C8807
:103B1000B0F8505024F0010491F800C007EBCC0736
:103B20003D4400EB4505C5F80044B0F850400D7821
:103B3000062707EBC5052C4400EB44070C694FF63C
:103B4000FF7C07F580673E2C0CD9C4F34F15E406C3
:103B500001D16D1EADB20CEA852400E01EE044F4F4
:103B6000004407E0C4F34F05E40701D06D1CADB27B
:103B70000CEA85243C600C7830F824506D0405D59F
:103B800030F824501540354320F824500A7830F896
:103B9000221001EA0A0181F440518BE7002F05DA77
:103BA00030F825701740374320F825700D7830F82D
:103BB0002560760605D530F825601640264320F8A6
:103BC00025600E7830F826501540254320F8265001
:103BD0000C7830F8242002EA0A0282F440521A4398
:103BE00020F824200A7830F8221001EA090161E760
:103BF000002070472DE9F04391F80A8091F801C048
:103C00000A7848F6BF774BF68F7948F2800348F27E
:103C1000C0054CF2800648F68F74B8F1000F2ED024
:103C2000BCF1000F30F822C04FEA4C4C4ED0BCF132
:103C3000000F07DA30F822C00CEA040C4CEA060C3C
:103C400020F822C00A7830F822C05FEA4C6C07D511
:103C500030F822C00CEA040C4CEA050C20F822C013
:103C60000A7830F822502540354320F822500C784D
:103C700030F824203A401A4320F824201BE0BCF1FD
:103C8000000F0ED030F82260760605D530F822609D
:103C900026402E4320F822600A7830F8221039405E
:103CA0000EE030F822506D0405D530F82250254042
:103CB000354320F822500A7830F8221001EA090131
:103CC000194320F822100020BDE8F083BCF1000F5A
:103CD00007DA30F822C00CEA040C4CEA060C20F893
:103CE00022C00A7830F82260760605D530F82260C6
:103CF00026402E4320F822600E7830F826202240FD
:103D00002A4320F826200C7830F8242002EA090201
:103D10001A4320F82420BFE7002070470020704796
:103D200000B50121A0F840100021A0F84010A0F833
:103D30004410A0F8501000F03AF9002000BD30F80F
:103D4000401F21F43D410180002070470020704752
:103D500030B54D780A78002D48F68F7430F822502F
:103D600048F2800312D06D0607D530F82250254066
:103D700048F2C004254320F822500A7830F8221077
:103D800048F6BF74214081F0300111E06D0407D581
:103D900030F8225025404CF28004254320F8225070
:103DA0000A7830F822104BF68F74214081F440518C
:103DB000194320F82210002030BD10B50A7848F2CF
:103DC000800352B14978002930F8221010D048F60B
:103DD000BF74214081F010010FE001884BF6BF72E3
:103DE000114081F4805181F010011943018007E0F6
:103DF0004BF68F74214081F48051194320F8221032
:103E0000002010BD2DE9F0410D460646896995F860
:103E100001C00023AA7A022728690C4648F28008CC
:103E2000BCF1010F05D0814252D90446081AA8619D
:103E30004FE0814203D90446081AA86100E0AB6153
:103E40007AB1287836F820104906B6F8501007EBFA
:103E5000C000084406EB4000C0F8004412D52A898F
:103E600011E0A3B2AA883046696900F0C8F8B6F834
:103E70005000297807EBC101084406EB4000C0F868
:103E800000441CE0EA88A3B23046696900F0B7F844
:103E9000687848F68F7110B1012807D00FE02878B4
:103EA00036F820200A4048F2C00105E0287836F8AC
:103EB00020200A404CF280010A4326F8202029786D
:103EC00036F8210048F6BF72104080F0300067E0FD
:103ED000AB6106234FF6FF701AB1BCF1000F1BD087
:103EE00056E0B6F850102A783E2C03EBC20211447B
:103EF00006EB410202F5806239D9C4F34F11E306A3
:103F000032D000BF00EA812040F4004002E000BF50
:103F100000EA812010603BE0B6F850102A783E2C71
:103F200007EBC202114406EB410202F580620BD995
:103F3000C4F34F115FEAC46C01D1491E89B200EA93
:103F4000812141F4004108E0C4F34F015FEAC47CE1
:103F500001D0491C89B200EA8121116069780029E9
:103F6000BFD001290AD013E0491E89B2CAE7C4F3C1
:103F70004F01E307CCD0491C89B2C9E7B6F850001D
:103F8000297807EBC101084406EB4000C0F8004463
:103F9000297836F821004BF68F72104080F440509B
:103FA00040EA080026F821000020BDE8F08130F842
:103FB000401F41F43F410180002070470148FDF758
:103FC00056BA000004060020B0F844007047000014
:103FD0005B1C00EB42005B0800F5806006D000BF70
:103FE00030F8042B21F8022B5B1EF9D1704700201A
:103FF000704711B98021A0F84C100020704710B50F
:104000005B1C00EB42005B0800F5806009D011F8F2
:10401000012B5B1E11F8014B42EA042220F8042B0D
:10402000F5D110BD41F4807141F2210240004900F8
:10403000CB0500D5401CC30300D55040CB03F5D5BC
:1040400080B27047FEE700002DE9F14F0027DFF84E
:104050006CA188B03E46B9463C46D346A6E000BFB8
:104060004FF0000845469DE04FF47A7204A9544889
:10407000FEF798FB60B1022868D0B9F1000F00D0BC
:10408000761C052E79D91820FEF708FD182087E048
:104090000498002660B1022805D049498B78434531
:1040A0000BD015207CE00620FEF7F8FC022479E016
:1040B0000620FEF7F3FC012574E0B8F1000F14D0E0
:1040C00082085846091DFCF7CFFBE8B31820FEF71D
:1040D000E5FC1820FEF7E2FC5FF0040408F10100A3
:1040E00000F0FF084FF001095CE0087968B3002098
:1040F000344B091D02E01A54401C491C0A780AB1CD
:104100004028F8D34FF0000C03F800C060466B461F
:1041100001E01A54401C11F8012F202A01D0102868
:10412000F7D303F800C006A91846FEF7CFFC08989D
:1041300043F201010068884214D918200C058DF85B
:1041400014002346012202E01EE017E022E005A948
:104150001D48FDF7CBFE2346012205A91A48FDF7AD
:10416000C5FE05245046FCF743FB089806990160FC
:104170000620FEF793FC432009E010E00620FEF73E
:104180008DFC01252F460DE0049906208B44FEF797
:1041900085FCA3E71820FEF781FC182084E7432064
:1041A000FEF77CFC55EA04003FF45EAF57EA0400DA
:1041B0003FF456AF09B02046BDE8F08F004000083C
:1041C0007414002034140020800100202DE9F74FE2
:1041D00086B04FF0000A0120AC4E019001220898F1
:1041E000727086F802A0FF23D04655465746F370FA
:1041F000544604E006EB040C641C8CF804300B5DA0
:104200000BB1402CF6D3321900211171014602A8DE
:10421000FDF7CAFE02A8641D02E03155641C7F1C34
:10422000C15D0029F9D14FF48019DFF860B202E0D6
:1042300000203055641C842CFAD31FE05C464E46A7
:104240004B468322611C9248FDF750FE8021201DC1
:10425000FCF7B8FA0446000AFEF720FCE0B2FEF7CD
:104260001DFC3346012269468948FDF7E3FD60B134
:104270000AF1010ABAF1050F00D3012558EA050039
:10428000DCD006980290089C7CE09DF8000006288F
:1042900015D01828EED13346012269467C48FDF737
:1042A000C9FD0028E6D19DF800001828E2D10220BF
:1042B000FCF7CAFC7648006840680225DAE74FF050
:1042C0000108D7E7DDE90103704AC6B24FF4806701
:1042D0002046BC4201D3394600E08021884200D309
:1042E0000846B1F5806F07D0012757709670F643E6
:1042F000D6700426071D06E00227F6E713F801CB67
:1043000002F806C0761CBE42F8D3884207D81A23AA
:10431000001D091D01E01354401C8842FBD34FF0DF
:10432000000A8DF800A0574629E000BF4FF48066D0
:10433000B44200D28026F21C4B46D8460BF1010154
:104340005348FDF7D3FD314608F10400FCF73AFA73
:104350008046000AFEF7A2FB08F0FF00FEF79EFB76
:104360004B46012269464A48FDF764FD18B99DF89D
:104370000000062811D07F1C052F00D301255AEA22
:104380000500D3D00CB1002D9CD0002426468DF81A
:1043900000402746DFF8F8801FE002984FF0010A3E
:1043A0003044B442029008D90198A41B0C2802D0D2
:1043B000401C0190E0E70525DEE70024DCE704204F
:1043C000FEF76CFB4B46012269463148FDF732FD92
:1043D00040B17F1C052F00D3012554EA0500EED023
:1043E000E5B14EE09DF80000062815D01828F1D15F
:1043F0004B46012269462648FDF71CFD0028E9D1FD
:104400009DF800001828E5D10220FCF71DFCD8F823
:10441000000040680225DDE70124DBE701208BF87E
:1044200001008BF80260FF208BF803005C4604203B
:104430002654401CC0B28428FAD34E464B468322F1
:10444000611C1348FDF752FD8021201DFCF7BAF9CD
:104450000446000AFEF722FBE0B2FEF71FFB3346DC
:10446000012269460A48FDF7E5FC50B99DF80000B5
:10447000182806D10220FCF7E7FBD8F800004068B6
:10448000022509B02846BDE8F08F00007414002012
:104490008001002037B514460846064B6A4621467F
:1044A00000F0DCF804466946002000F06EFC20466F
:1044B0003EBD00008B4D000802E008C8121F08C175
:1044C000002AFAD170477047002001E001C1121F95
:1044D000002AFBD1704700002DE9FF5F82B0002168
:1044E000DDE90430020DDDF840B0034318D044F696
:1044F0001050A2F2FF3242431514119801281FD028
:10450000A5EB0B00401C5FEA000A4FF000064E4F7F
:10451000DFF83891B046504615D5CAF1000413E0D3
:10452000119801244AA3012801D16FEA0B010298D6
:10453000119AC0E90031C0E9024206B0BDE8F09F1F
:10454000CBF10000DFE704460021404A491842EB66
:104550000450CDE9001012E0E00707D032463B4698
:1045600040464946FBF729FF8046894632463B468E
:1045700010461946FBF721FF06460F466410002C33
:10458000EAD1DDE90401DDE90023BAF1000F06DA22
:10459000FBF713FF42464B46FBF70FFF05E0FBF727
:1045A0007EFF42464B46FBF77AFF04460E4600224A
:1045B000284BFBF7FBFF03D84FF0FF30014607E025
:1045C0000022254B20463146FBF750FEFBF7D6FF75
:1045D000102409E0002C0ADB0A220023FBF715FE59
:1045E000039B30321A55641E50EA0102F2D1641C5A
:1045F000039AC4F111031444119A012A03D0012231
:1046000008430DD10AE0084304D000204FF0110BFD
:10461000119072E7A3EB0B056D1E0DE05B4504DD09
:104620004FF0000205F1010504E003DA4FF000024B
:10463000A5F10105002AECD002981199C0E90231D8
:10464000C0E9004579E70000000014400000F03F99
:10465000300000000000F0430000E03F2DE9FF4F74
:1046600095B09B468946064600250FE2252877D15E
:1046700000242746F84A0121059400E0044316F877
:10468000013F203B01FA03F01042F7D130782A288D
:1046900011D06FF02F033078A0F13002092A16D81C
:1046A000059A44F0020402EB820203EB420210443A
:1046B000761C0590EFE759F8042B0592002A03DADF
:1046C000504244F40054059044F00204761C3078C3
:1046D0002E2816D116F8010F44F004042A280DD014
:1046E0006FF02F023078A0F13003092B09D807EBC7
:1046F000870302EB4303C718761CF3E759F8047BE2
:10470000761C30786C280FD006DC4C2817D068282F
:104710000DD06A2814D104E0742810D07A280FD163
:104720000DE044F400140AE044F4801401E044F481
:1047300040147278824202D104F58014761C761CF3
:10474000307866280BD013DC582877D009DC002895
:1047500075D04528F6D04628F4D047281AD19DE1D7
:1047600018E0632835D0642879D0652812D195E106
:10477000702873D008DC6728F1D069286FD06E28C4
:104780000DD06F2806D1B5E073282CD0752875D0D0
:10479000782874D05A46179990476D1C75E1C4F378
:1047A0000250022809D003280DD0D9F8001004289F
:1047B0000DD00D6009F1040967E1D9F80010EA177E
:1047C000C1E90052F6E7D9F800100D80F2E70D704C
:1047D000F0E719F8041B8DF8001000208DF8010097
:1047E000EA46012003E059F804AB4FF0FF306107BF
:1047F0004FF0000102D40DE008F101018846B942F2
:104800000FDA8045F8DB1AF808100029F4D108E027
:1048100008F1010188468142FADB1AF808100029E4
:10482000F6D105985B46A0EB080721463846179A53
:1048300000F094FA284400EB080507E04DE029E178
:104840000DE01AF8010B5A4617999047B8F1010884
:10485000F7D25B4621463846179A13E142E00A2216
:104860000092C4F302524FF0000A022A08D059F80D
:1048700004CB032A4FEAEC710AD00DE029E02AE0CC
:1048800009F1070121F00702F2E802C1914609E0AF
:104890000FFA8CFC4FEAEC71042A03D14FFA8CFC1E
:1048A0004FEAEC71002907DA0A460021DCF1000C1E
:1048B00061EB02012D2202E0220504D52B228DF8A6
:1048C0000420012203E0E20701D02022F7E790460E
:1048D00059E00A2102E010220DE010214FF0000AF9
:1048E00000910BE010224FF0000A44F00404082766
:1048F000009203E008224FF0000A0092C4F3025233
:10490000022A05D059F804CB0021032A08D009E077
:1049100009F1070121F00702F2E802C1914605E022
:104920001FFA8CFC042A01D10CF0FF0C4FF0000898
:10493000220728D5702806D0009B83F0100353EA85
:104940000A0305D00EE040228DF80420012208E081
:104950005CEA010206D030228DF804208DF80500B3
:1049600002229046009B83F0080353EA0A030AD10F
:104970005CEA010201D1620705D530228DF80420DE
:104980004FF001087F1E582804D034A003900EA8D1
:1049900002900DE036A0F9E753466046009AFBF717
:1049A00034FC84460398825C0298401E0290027098
:1049B0005CEA0100F0D1029806A9081A00F1200A69
:1049C000600702D524F4803400E00127574502DD5A
:1049D000A7EB0A0000E0002000EB0A010090059818
:1049E0004144401A0590E00306D45B462146179ADD
:1049F000059800F0B3F90544002706E001A85A46DF
:104A0000C05D179990476D1C7F1C4745F6DBE0039E
:104A10000CD55B462146179A059800F09FF905448E
:104A200004E030205A46179990476D1C0099481EA3
:104A300000900029F5DC08E0029802995A460078B7
:104A4000491C0291179990476D1CBAF10001AAF117
:104A5000010AF1DC65E10000092801003031323340
:104A600034353637383961626364656600000000AA
:104A70003031323334353637383941424344454694
:104A80000000000000F058F90544761C307800283A
:104A90007FF4ECAD19B02846BDE8F08F620700D472
:104AA000062709F1070222F0070CFCE80223E14681
:104AB00003F000485FEA080C02D00FF2702C0DE002
:104AC0005FEA045C02D50FF2682C07E05FEAC47C61
:104AD00002D00FF2602C01E0AFF2700C4FF0FF3803
:104AE00023F00043CDF850C065280CD006DC4528E3
:104AF00009D046281DD047283DD13DE0662818D072
:104B000067287ED138E00021112F01DB112000E061
:104B1000781CCDE9000106A90EA8FFF7DDFCDDE950
:104B20000F010E9A03910021009207F1010A0491EE
:104B30004DE04FF000400097CDE9011006A90EA806
:104B4000FFF7CAFCDDE90F0203920E9B11990022C8
:104B5000DDF80CA00093049211B9791C00EB010A56
:104B6000B7EB0A0004D4C0F1FF3007F1010A04904A
:104B7000AAEB0700019044E0012F00DA0127002191
:104B8000112F01DD112000E03846CDE9000106A912
:104B90000EA8FFF7A1FCDDE90F010E9A0391002199
:104BA00004910092BA4621070CD40399514500DACA
:104BB0008A46BAF1010F05DD009AAAF10101515CA4
:104BC000302908D0B84202DA10F1040F06DA0121C8
:104BD000CDE9011015E0AAF10101E9E7002805DCA3
:104BE000049901440491AAEB000102E0411C5145E3
:104BF00000DD8A460499401A401C01904FF00040A5
:104C00000290200704D40198504501DBCDF80480C0
:104C100000208DF84F0002980DF14F07B0F1004FC2
:104C200025D02B200E9002984FF0020800280CDAB5
:104C3000404202902D200E9007E00A210298FBF7D7
:104C4000CEFA3031029007F8011DB8F10001A8F149
:104C50000108F2DC02980028EFD1791E0E98087046
:104C6000307800F0200040F0450007F8020D12A84F
:104C7000C01B00F107081498007800B1012000EB78
:104C80000A01019801EBE07105984144401A401E69
:104C90000590E00306D45B462146179A059800F07C
:104CA0005DF805441498007818B15A461799904752
:104CB0006D1CE00324D55B462146179A059800F049
:104CC0004DF805441CE00498002807DBDDE90301EA
:104CD000884203DD0098405C179901E01799302065
:104CE0005A469047049805F10105401C049001982C
:104CF000401E019004D12E205A46179990476D1CF2
:104D0000BAF10001AAF1010ADDDC05E017F8010B98
:104D10005A46179990476D1CB8F10001A8F1010897
:104D2000F4DC5B462146179A0598ABE62D0000009F
:104D30002B000000200000002DE9F0410446002572
:104D40001E461746880404D405E039462020B047A3
:104D50006D1C641EF9D52846BDE8F0812DE9F041AF
:104D6000044600251E469046C80301D5302700E0C2
:104D70002027880404D505E041463846B0476D1C1D
:104D8000641EF9D52846BDE8F0810A68531C0B6003
:104D90001070704786B0FCF7DBF9FDF7F5FE0024D4
:104DA0002E480094019402940394816941F0040117
:104DB000816180692A4E00F004000490224602219D
:104DC0003046FCF7B2F9022001218DE81300039070
:104DD00069463046FCF7B0F8B51522480095CDE994
:104DE000010469463046FCF7A7F820491E480860D0
:104DF0000846FBF703FFFDF7F7F829463046FCF7B6
:104E00008FF950B11AA000F079F828480168284AB3
:104E10001140B1F1005F17D01FE026A000F06EF83E
:104E2000FBF716FD3248314901604FF4E131C0E92A
:104E300001140C21C460C0E904418461C461FCF721
:104E40008FFFFDF7EDF808E041682A4A11602A4A11
:104E50001160006880F308888847FEE70010024070
:104E60000008014000001110003002400000002046
:104E7000424C5F44454255475F4D53473A42757433
:104E8000746F6E206973206E6F7420707265737317
:104E90006564202E2E20657865637574696E6720C1
:104EA00075736572206170700A0D00000040000883
:104EB0000000FE2F424C5F44454255475F4D53472B
:104EC0003A427574746F6E206973207072657373E3
:104ED0006564202E2E20676F696E6720746F2042F4
:104EE0004C206D6F64650A0D000000000044004016
:104EF0008001002054000020500000200FB400B5B5
:104F000095B017AA68461699FFF7C4FA0848D0F872
:104F10001802D0F81402002806D16846FBF758F9A9
:104F200001466846FBF738FC15B05DF814FB00003D
:104F3000C001002000000000000000000102030486
:104F40000607080900000000010203040A0A0D20F8
:104F500050726F6772616D6D696E6720436F6D701F
:104F60006C65746564205375636365737366756CF3
:104F70006C79210A0D2D2D2D2D2D2D2D2D2D2D2D25
:104F80002D2D2D2D2D2D2D2D2D2D2D2D2D2D2D2D51
:104F90002D2D2D2D2D0D0A204E616D653A2000001E
:104FA0000D0A3D202020202020202020202020200D
:104FB00020202020202020202020202020202020F1
:104FC00020202020202020202020202020202020E1
:104FD00020202020202020202020202020202020D1
:104FE000202020202020203D000000000D0A3D2030
:104FF000202020202020202020202020202843297D
:1050000020434F50595249474854203230313620BE
:1050100053544D6963726F656C656374726F6E692A
:1050200063732020202020202020202020202020EA
:105030002020203D000000000D0A3D2020202020DF
:105040002020202020202020202020202020202060
:1050500020202020202020202020202020204279D5
:10506000204D4344204170706C69636174696F6EB8
:10507000205465616D202020202020202020203D0C
:10508000000000000D0A3D202053544D33324631BC
:10509000787820496E2D4170706C69636174696F16
:1050A0006E2050726F6772616D6D696E672041701E
:1050B000706C69636174696F6E2020285665727325
:1050C000696F6E20312E302E3029203D0000000007
:1050D0000D0A3D3D3D3D3D3D3D3D3D3D3D3D3D3D63
:1050E0003D3D3D3D3D3D3D3D3D3D3D3D3D3D3D3DF0
:1050F0003D3D3D3D3D3D3D3D3D3D3D3D3D3D3D3DE0
:105100003D3D3D3D3D3D3D3D3D3D3D3D3D3D3D3DCF
:105110003D3D3D3D3D3D3D3D000000003C51000812
:105120000000002080010000FC060008FC5100087F
:1051300080010020201B0000C84400088113213199
:105140001B0851041A5D041A85041AB1041A0104DB
:105150001A2D041704030904120114020202164056
:1051600083044057260201020301135D071B0859FF
:10517000041A55041A8104C1191F11821084A24A0D
:1051800004130A0632022A40201C0902434B111C58
:10519000C032091F1B01020B130524161001052440
:1051A00001100901042402020524061701070582E3
:1051B00003081C10090481320A1D07050102432C53
:1051C000070581070938442A40072A8107112B095E
:1051D00007440A2204440A16FF4413DD2E1B084B21
:1051E0000413B92F42081A870C1A09041A1D04C1A6
:0C51F0002AC52419041AD1041AAD0400C9
:0400000508000131BD
:00000001FF
