:020000040800F2
:1000000030040020E1020008E9020008EB020008C9
:10001000ED020008EF020008F102000800000000F5
:10002000000000000000000000000000F3020008D3
:10003000F502000800000000F7020008F9020008BD
:10004000FB020008FB020008FB020008FB0200089C
:10005000FB020008FB020008FB020008FB0200088C
:10006000FB020008FB020008FB020008FB0200087C
:10007000FB020008FB020008FB020008FB0200086C
:10008000FB020008FB020008FB020008FB0200085C
:10009000FB020008FB020008FB020008FB0200084C
:1000A000FB020008FB020008FB020008FB0200083C
:1000B000FB020008FB020008FB020008FB0200082C
:1000C000FB020008FB020008FB020008FB0200081C
:1000D000FB020008FB020008FB020008FB0200080C
:1000E000FB020008FB020008FB020008DFF80CD04E
:1000F00000F0B8FC0048004731030008300400203D
:100100000CB50020019000906B48006840F48030EE
:100110006949086000BF6848006800F4003000903A
:100120000198401C0190009818B90198B0F5A06F93
:10013000F1D16148006800F4003010B10120009056
:1001400001E0002000900098012843D15B4800683E
:1001500040F01000594908600846006820F003008C
:1001600008600846006840F0020008605248406895
:10017000514948600846406848600846406840F475
:10018000806048600846406820F47C10486008465B
:10019000406840F4E81048600846006840F080700D
:1001A000086000BF4448006800F000700028F9D0E3
:1001B0004148406820F003003F49486008464068D5
:1001C00040F00200486000BF3B48406800F00C006F
:1001D0000828F9D10CBD10B5FFF792FF10BD10B57E
:1001E0003548006840F0010033490860084640681F
:1001F00033490840304948600846006831490840A2
:100200002D4908600846006820F4802008600846F0
:10021000406820F4FE0048604FF41F008860FFF73C
:10022000DAFF29482949086010BD10B500210020D7
:100230000022214B5B6803F00C0121B1042906D098
:10024000082928D107E0224B224C236027E0204BCD
:10025000204C236023E0184B5B6803F47010164BAE
:100260005B6803F48032022303EB904022B91A4BFF
:100270004343184C23600DE00F4B5B6803F40033DD
:1002800023B1154B4343134C236003E0104B43430E
:10029000104C236003E00E4B0E4C236000BF00BFE8
:1002A000054B5B68C3F303130C4CE15C094B1B6803
:1002B000CB40084C236010BD0010024000200240DB
:1002C0000000FFF8FFFFF6FE0020000808ED00E048
:1002D00000127A000000002000093D000400002008
:1002E0000648804706480047FEE7FEE7FEE7FEE7D0
:1002F000FEE7FEE7FEE7FEE7FEE7FEE7DF010008B8
:10030000ED00000800BF411E081EFCD1704710B56B
:100310000121102000F094F910200F49C87003202B
:1003200088704FF4005008800C4800F04DFA10BD62
:10033000FFF7EDFF0FE04FF40051084800F0F1FA2D
:100340000748FFF7DFFF4FF40051044800F0EBFAD5
:100350000348FFF7D7FFEEE714000020001001402C
:10036000FFFF0F00DF48006840F00100DD49086032
:1003700008464068DC490840DA4948600846006899
:10038000DA490840D74908600846006820F4802010
:1003900008600846406820F4FE0048604FF41F00E3
:1003A00088607047CF49096821F48031CD4A1160D7
:1003B0001146096821F480211160B0F5803F03D017
:1003C000B0F5802F0ED106E0C649096841F48031AE
:1003D000C44A116007E0C349096841F4A021C14A39
:1003E000116000E000BF00BF704710B50146002259
:1003F000002300204A11012A02D1BA4C236806E0EA
:10040000022A02D1B74C236A01E0B64C636A01F0BC
:100410001F02012494401C400CB1012000E0002088
:1004200010BD38B5002000900024002500BF312009
:10043000FFF7DBFF05460098401C00900098B0F5E0
:10044000A06F01D0002DF2D03120FFF7CEFF08B110
:10045000012400E00024204638BD01460020A14AC6
:10046000106820F0F80040EAC10010607047A04911
:1004700008607047024600209A4B586820F47C10B0
:1004800042EA01031843974B586070479849086641
:10049000704701460020934A506820F0030008434B
:1004A000506070478F48406800F00C00704701466C
:1004B00000208C4A506820F0F000084350607047DC
:1004C00001460020874A506820F4E06008435060ED
:1004D000704701460020834A506820F4605040EA8B
:1004E000C1005060704729B17E4A527A02437D4B69
:1004F0005A7204E07B4A527A82437A4B5A727047AE
:100500007B49D8310860704701460020754A506821
:1005100020F440400843506070470021714A203267
:100520001170704A82F82010012802D004280AD1E4
:1005300004E001216B4A2032117005E00521694A6F
:100540002032117000E000BF00BF704769490860A9
:1005500070476449096A0143624A116270476549FC
:1005600044390860704730B5002100220024002380
:100570005C4D6D6805F00C0121B1042905D00829F6
:1005800023D105E05C4D056022E05B4D05601FE076
:10059000544D6D6805F47012524D6D6805F4803449
:1005A000022505EB92421CB9544D554305600BE002
:1005B0004C4D6D6805F400351DB1504D5543056037
:1005C00002E04D4D5543056002E04B4D056000BF14
:1005D00000BF444D6D6805F0F0010909484D6B5CA2
:1005E0000568DD4045603F4D6D6805F4E061090A2E
:1005F000434D6B5C4568DD4085603A4D6D6805F4A0
:100600006051C90A3E4D6B5C4568DD40C560354DA3
:100610006D6805F44041890B3A4D6B5CC568B5FBCC
:10062000F3F5056130BD29B12E4A526902432D4BC5
:100630005A6104E02B4A526982432A4B5A6170473F
:1006400029B1284A92690243264B9A6104E0254A5F
:1006500092698243234B9A61704729B1214AD2693A
:100660000243204BDA6104E01E4AD26982431D4BEB
:10067000DA61704729B11B4AD2680243194BDA602C
:1006800004E0184AD2688243164BDA60704729B1F9
:10069000144A12690243134B1A6104E0114A1269A9
:1006A0008243104B1A617047124940390860704705
:1006B0000F49C86470470B49C87170470948406AC0
:1006C00040F0807007494862704701460020054AA3
:1006D00092680A400AB1012000E0002070470149F9
:1006E00088727047001002400000FFF8FFFFF6FE1E
:1006F000000042428004424200127A0000093D009C
:10070000180000202800002010B50446CC48844280
:1007100008D101210420FFF7ADFF00210420FFF7DD
:10072000A9FF46E0C748844208D101210820FFF70D
:10073000A1FF00210820FFF79DFF3AE0C248844254
:1007400008D101211020FFF795FF00211020FFF7AD
:1007500091FF2EE0BD48844208D101212020FFF7FF
:1007600089FF00212020FFF785FF22E0B84884425E
:1007700008D101214020FFF77DFF00214020FFF735
:1007800079FF16E0B348844208D101218020FFF7A9
:1007900071FF00218020FFF76DFF0AE0AE48844220
:1007A00007D101218015FFF765FF0021A015FFF794
:1007B00061FF10BD10B501210846FFF75BFF002166
:1007C0000120FFF757FF10BD2DE9F041024600253B
:1007D0000026002000230024002791F803C00CF01D
:1007E0000F0591F803C00CF0100CBCF1000F03D002
:1007F00091F802C04CEA050591F800C0BCF1000F69
:1008000031D0146800202BE04FF0010C0CFA00F3FB
:10081000B1F800C00CEA03069E4220D183004FF0DD
:100820000F0C0CFA03F7BC4305FA03FC4CEA040472
:1008300091F803C0BCF1280F06D14FF0010C0CFA5F
:1008400000FCC2F814C00AE091F803C0BCF1480FE4
:1008500005D14FF0010C0CFA00FCC2F810C0401C8E
:100860000828D1D31460B1F800C0BCF1FF0F34DD0B
:10087000546800202EE000F1080C4FF0010808FA3F
:100880000CF3B1F800C00CEA03069E4221D18300AC
:100890004FF00F0C0CFA03F7BC4305FA03FC4CEACB
:1008A000040491F803C0BCF1280F05D100F1080C35
:1008B00008FA0CF8C2F8148091F803C0BCF1480F94
:1008C00007D100F1080C4FF0010808FA0CF8C2F843
:1008D0001080401C0828CED35460BDE8F0814FF64C
:1008E000FF710180022181700421C17070470246AE
:1008F000002093680B400BB1012000E000207047FE
:100900000146886880B2704702460020D3680B40D9
:100910000BB1012000E0002070470146C86880B29A
:10092000704701617047416170470AB1016100E0A1
:1009300041617047C16070474FF480320A43826161
:100940008161826182698269704702460020434B5F
:1009500018684FF68073184040EA021008433F4B76
:10096000186070473E49C8617047F0B50A460023D9
:1009700000240021002500F00046B6F1004F02D10E
:10098000364EF16901E0354E7168C0F3034583B21C
:1009900000F44016B6F5401F08D121F070612F4ECB
:1009A000766826F070662D4F7E6012E000F48016A7
:1009B000B6F5801F06D1032606FA05F4A14341F0DF
:1009C000706106E0460D360103FA06F6B14341F0C8
:1009D000706122B1460D360103FA06F6314300F08C
:1009E0000046B6F1004F02D11C4EF16101E01B4EF2
:1009F0007160F0BD30B500228B071C0F0F2303FA86
:100A000004F2164B08338C1053F824309343134CE4
:100A100008348D1044F8253023468C1053F82430C8
:100A20008C07240F00FA04F423430C4C08348D1077
:100A300044F8253030BD0A49DC31086070470000B9
:100A400000080140000C014000100140001401406A
:100A500000180140001C014000200140000001403E
:100A600000002042064C074D06E0E06840F001031C
:100A700094E8070098471034AC42F6D3FFF73AFBEE
:100A8000A80A0008C80A000802E008C8121F08C126
:100A9000002AFAD170477047002001E001C1121FFF
:100AA000002AFBD170470000C80A0008000000209F
:100AB0002C000000880A0008F40A00082C0000201E
:100AC00004040000980A000800A24A040000000084
:100AD00000000000010203040607080900000000EE
:100AE00000000000010203040102030406070809D4
:040AF00002040608EE
:04000005080000ED02
:00000001FF
