:020000040800F2
:1020000020040020012100081D22000819220008D8
:102010001B220008492100084D2300080000000091
:10202000000000000000000000000000392200084D
:102030004B210008000000001F220008E5220008D4
:102040001B2100081B2100081B2100081B21000880
:102050001B2100081B2100081B2100081B21000870
:102060001B2100081B2100081B2100081B21000860
:102070001B2100081B2100081B2100081B21000850
:102080001B2100081B2100081B2100081B21000840
:102090001B2100081B2100081B2100081B21000830
:1020A0001B2100081B2100081B2100081B21000820
:1020B0001B2100081B2100081B2100081B21000810
:1020C0001B2100081B2100081B2100081B21000800
:1020D0001B2100081B2100081B2100081B210008F0
:1020E0001B2100081B2100081B210008DFF80CD071
:1020F00000F018F8004800476D2300082004002075
:102100000648804706480047FEE7FEE7FEE7FEE791
:10211000FEE7FEE7FEE7FEE7FEE7FEE7F92200083E
:10212000ED200008064C074D06E0E06840F0010392
:1021300094E8070098471034AC42F6D3FFF7DAFF73
:102140000024000820240008FEE770470249486088
:1021500048680028FCD1704700000020F0B5CA781C
:10216000002502F00F03D20601D58A7813430A78BE
:102170004FF00F0E12F0FF0F4FF001021CD0046859
:102180000F8802FA05F63740B74211D14FEA850CA5
:102190000EFA0CF724EA070703FA0CF43C43CF7855
:1021A000282F02D0482F02D002E0466100E00661ED
:1021B0006D1C082DE4D304600C88FF2C1ED94468E4
:1021C0005FF0000606F1080702FA07F50F882F40B6
:1021D000AF420FD14FEA860C0EFA0CF7BC4303FA5C
:1021E0000CF73C43CF78282F00D14561CF78482F9A
:1021F00000D10561761C082EE4D34460F0BD4FF693
:10220000FF710180022181700421C17070470AB101
:102210000161704741617047FEE7FEE77047704714
:10222000044A0029916901D0014300E08143916192
:102230007047000000100240704700000CB50021FC
:10224000264801910091026842F4803202604FF406
:10225000A063026802F400320092019A521C0192BB
:10226000009A12B9019A9A42F3D10268920333D5C7
:10227000012100911A490A6842F010020A600A68B6
:1022800022F003020A600A6842F002020A60416812
:10229000416041684160416841F48061416041684A
:1022A00021F47C114160416841F4E811416001680A
:1022B00041F08071016001688901FCD5416821F01D
:1022C00003014160416841F0020141604168C1F38E
:1022D00081010229FAD10CBD00910CBD0010024011
:1022E0000020024003484168002902D04168491E8D
:1022F00041607047000000200F4810B5016841F0B0
:102300000101016041680D4A1140416001680C4AB9
:1023100011400160016821F480210160416821F4CD
:10232000FE0141604FF41F018160FFF787FF0649FE
:102330000448086010BD0000001002400000FFF8D3
:10234000FFFFF6FE0020000808ED00E0FEE702E0D7
:1023500008C8121F08C1002AFAD170477047002030
:1023600001E001C1121F002AFBD1704708B501210D
:102370001020FFF755FF6846FFF741FF4FF4005567
:10238000ADF8005010208DF803000220184E8DF893
:10239000020069463046FFF7E1FE16484FF47A71B5
:1023A0000068B0FBF1F1B1F1807F0FD221F07F41E5
:1023B0004FF0E020491E41610F4AF02182F8141DC0
:1023C00000218161072101610C4C00E0FEE72068DB
:1023D00008B1012200E0002229463046FFF717FF2E
:1023E0002068C0F101002060FA20FFF7AFFEEEE7A1
:1023F00000100140080000200FE000E00000002075
:1024000020240008000000201C0000004E230008CB
:102410003C2400081C000020040400005E23000887
:10242000000000000000000000A24A0400000000BC
:0C24300000000000010203040607080978
:04000005080020EDE2
:00000001FF
