:020000040800F2
:10000000C00B00209D0100088D33000889330008D3
:100010008B330008B50800086544000800000000A4
:100020000000000000000000000000007143000814
:100030000F09000800000000AF33000873430008F8
:10004000B7010008B7010008B7010008B7010008B0
:10005000B7010008B7010008B7010008B7010008A0
:10006000B7010008B7010008B7010008B701000890
:10007000B7010008B7010008B7010008B701000880
:10008000B7010008B7010008B7010008B701000870
:10009000B7010008B7010008B7010008B701000860
:1000A000B7010008B7010008B7010008B701000850
:1000B000B7010008B7010008B7010008B701000840
:1000C000B7010008B7010008B7010008B701000830
:1000D000B7010008B7010008B7010008B701000820
:1000E000B7010008B7010008B7010008B701000810
:1000F000B7010008B7010008B7010008B701000800
:10010000B701000861360008B7010008B701000810
:10011000B7010008B7010008B7010008B7010008DF
:10012000B7010008B7010008B7010008B7010008CF
:10013000B9080008B7010008B7010008B7010008B6
:10014000B7010008B7010008B7010008B7010008AF
:10015000B7010008B7010008B7010008B70100089F
:10016000B7010008B7010008B7010008B70100088F
:10017000B7010008B7010008B7010008000000003F
:10018000B7010008B7010008DFF80CD000F05EF8F6
:1001900000480047CD520008C00B002006488047A9
:1001A00006480047FEE7FEE7FEE7FEE7FEE7FEE75C
:1001B000FEE7FEE7FEE7FEE72144000889010008AC
:1001C000D2B201E000F8012B491EFBD27047002299
:1001D000F6E710B513460A4604461946FFF7F0FF46
:1001E000204610BD2DE9F05F0546002092469B4653
:1001F00088460646814640241BE02846414647463D
:10020000224600F044F853465A46C01A914110D392
:1002100011461846224600F02BF82D1A67EB01080C
:100220004F4622460120002100F022F817EB00097A
:100230004E41201EA4F10104DFDC484631462A4627
:10024000434600F000B830BCBDE8C09F064C074DE7
:1002500006E0E06840F0010394E807009847103496
:10026000AC42F6D3FFF794FFF05A0008105B000889
:10027000202A04DB203A00FA02F100207047914066
:10028000C2F1200320FA03F3194390407047202A5B
:1002900004DB203A21FA02F00021704721FA02F330
:1002A000D040C2F12002914008431946704700F047
:1002B000D3BD000010B5134802F0EEFC00F06AF860
:1002C0001148016C41F480610164016C21F480618A
:1002D00001640C49002081F8340041F8300F886037
:1002E00048618861C861086248628862C8620863C0
:1002F00048638863C863086448648864C8640865A0
:1003000010BD0000BC0000200010024000F0A4BDA1
:100310000146014802F0C6BDBC00002010B50848E7
:1003200002F0D2FD042807D0052807D0062805D002
:10033000072803D0022010BD002010BD012010BDF1
:10034000BC00002070B5124810494FF48042016093
:10035000002141608160C160C0E904120C46D510E3
:10036000C0F8181000F016F800F04EF8084802F037
:1003700093FE28B92946064802F050FC002804D014
:10038000641CE4B2052CEDD3012070BD00280140AF
:10039000BC00002000B587B014216846FFF717FFA6
:1003A0001648016E21F480610166C16C41F00401C0
:1003B000C164C16C01F004010591C16C41F00801F8
:1003C000C164C06C694600F00800059003200190EC
:1003D00000200290039004904FF4F85000900848D9
:1003E00001F092FC042000906946064801F08CFC64
:1003F000312001F0EDFD07B000BD0000001002400B
:1004000000080048000C004800B587B01421684679
:10041000FFF7DDFE1F48016E41F480610166016E49
:1004200001F480610591816C41F002018164816C6D
:1004300001F002010591C16C41F00401C164C16C7D
:1004400001F004010591C16C41F00801C164C06C68
:10045000694600F0080005900220019001200290FA
:10046000032003900C2004904FF4F85000900A48A9
:1004700001F04AFC042000906946084801F044FC61
:1004800000220121312001F0B9FD312001F0ABFD46
:1004900007B000BD0010024000080048000C0048F2
:1004A00070B50D46094906460020C8631446084643
:1004B00003F022FC38B923462A463146034802F0AD
:1004C00039FE002800D0012070BD0000BC000020D3
:1004D00001490120486070471C00002070B50D469E
:1004E00009490646002008641446084603F030FC1B
:1004F00038B923462A463146034802F09FFE0028B9
:1005000000D0012070BD0000BC0000200149012086
:10051000886070471C0000200548006805490840B5
:10052000B0F1005F01D0012070470020704700004B
:10053000008000080080FEFF09490988A1F57F427C
:10054000FF3A07D00905890AA1F50041814204D389
:10055000002070474FF48011F6E70220704700003A
:10056000E075FF1F2DE9F0438BB0814628216846D6
:10057000FFF72DFE01F00AFB044601F09FFA00256B
:100580004FF0010840EA0406CDE900855FEAC97032
:100590004FF0FF0403D01020CDE9020401E0CDE9C3
:1005A0000245684601F014FA40EA06074646CDF8CF
:1005B00004806846CDF80080CDE9024501F008FAD4
:1005C00040EA07080220CDE900605FEAC97002D066
:1005D000CDE9025401E0CDE90245684601F0F8F9A1
:1005E00040EA080701A90420009681E83100684626
:1005F00001F0EEF950EA070402D101F049FA04468D
:1006000001F052FA044301F039FA204300D00620E9
:100610000BB0BDE8F0830000F0B585B0002604966D
:1006200001F0B4FA1A480088A0F57F41FF3918D0CC
:100630000005800AA0F50040C40A4FF48077BC4250
:1006400012D901200190E0B20390C0F580700290B1
:1006500004A90096684601F0F9F805003C4603D06D
:100660000EE04FF48010E5E702200190C4F58070A1
:100670000290039404A90096684601F0E7F8054645
:1006800001F0FCF915B1042005B0F0BD0020FBE736
:10069000E075FF1F03490248086001F077BA0000C7
:1006A000008000080000002001F0E8B970B50446A1
:1006B00015480D460088A0F57F41FF3911D000058F
:1006C000800A1249124E08443168884213D31148F7
:1006D000814210D322462B46002001F001FA18B1C6
:1006E00009E04FF48010ECE73068D0E90012614077
:1006F0006A40114303D001F0C1F9052070BD0830F4
:100700003060002070BD0000E075FF1FF8FFFF079C
:100710000000002000800008F0B58BB0282168465A
:10072000FFF755FD002401F031FA00200126019069
:100730000796684601F0FEF8DDE90810284D88426A
:1007400002D9A94200D30424DDE902104FF000676A
:10075000884205D907EBC120A84201D344F0010427
:100760006846019601F0E6F8DDE90210884205D9F5
:1007700007EBC120A84201D344F0010402200790F6
:100780000190684601F0D6F8DDE90810884203D9E7
:10079000A94201D344F00404DDE90210114E88425D
:1007A00005D906EBC120A84201D344F0010404207E
:1007B0000190684601F0BEF8DDE90210884205D9D3
:1007C00006EBC120A84201D344F001040498AA28F2
:1007D00001D044F0020401F051F90BB02046F0BD05
:1007E00000800008000008080F4808B5016E41F0BD
:1007F00001010166016E01F001010091816C41F47B
:1008000080718164806C00F48070009001F0BEF90A
:100810000648816941F0004181614CF2FA31016181
:10082000BDE8084001F02AB9001002400020024053
:1008300070B50A4D6C6801F0E1FE00F0E3FF4FF087
:10084000E02100200861486188610548056028684A
:1008500080F30888A446BDE8704060470080000827
:1008600008ED00E0104D08B56C6801F0C7FE00F01F
:10087000C9FF4FF0E02100200861486188610B4802
:10088000016E41F001010166006E00F00100009070
:100890000748016821F00701491C0160286880F3BE
:1008A0000888A047FEE700000000FF1F001002407C
:1008B00000000140FEE700000948016B81290BD0D0
:1008C000016B822908D0016B902902D0016BA0290D
:1008D00004D1C06B00F0AABE006CFBE770470000BB
:1008E000BC00002030B590F844500124AC40056CA9
:1008F0006C60046863608368102B036803D09960A0
:100900000068C26030BD9A600068C16030BD704749
:10091000F0B58FB028216846FFF759FCFFF7FCFEC1
:100920009D4DC0074FF4807630D09CA004F05EFE51
:10093000A6A004F05BFE01221021284601F0D2FAA5
:1009400000242021284601F0C9FA322000F070FF6F
:100950003146284601F0BDFA28B9A9A004F046FEA8
:100960000020FFF7FFFD641CE4B2642CE9D30022F1
:100970001021284601F0B6FA00222021284601F075
:10098000B1FAAEA004F032FEBBA002E103F034FBEA
:1009900008B1BEA0FDE00122C449C54804F078F9C1
:1009A000040009D0C3A004F021FE2246C8A1684675
:1009B00003F05AFD6846ECE0CBA004F017FE0122DC
:1009C000CCA1CE4804F08AF904000BD0CCA004F0EE
:1009D0000DFE2246BEA1684603F046FD684604F0BF
:1009E00005FED3E0CCA004F001FEC448C068FFF7C8
:1009F000A3FD08B1CEA055E0D6A004F0F7FDFFF7A7
:100A0000F3FED8A004F0F2FD012220212C46284656
:100A100001F068FAFFF700FE00222021204601F0D5
:100A200061FAD5A004F0E2FD3146204601F051FA0A
:100A3000002836D0D6A004F0D9FD01222021254679
:100A4000204601F04FFA0024FFF724FE4FF0FF305C
:100A5000CDE90C000AAB08220CA9A84804F07BF9E8
:100A600006460A9828B3DDE90C01FFF71FFEF8B12E
:100A7000E200CDA1684603F0F7FC684604F0B6FD3D
:100A80009E4804F0FBF803F03FFACFA004F0AEFD5F
:100A900000224021284601F025FA00222021284684
:100AA00060E0CCA004F0A2FD944804F0E7F86DE00B
:100AB000641C14F0FF0F03D14021284601F00EFA08
:100AC00016B90A980028C1D1FFF7EEFD8B4804F053
:100AD000D5F800224021284601F004FA0022202106
:100AE000284601F0FFF9C1A004F080FDE200C5A195
:100AF000684603F0B9FC684604F078FD01227DA148
:100B00007E4804F0EBF804007FF460AFC24E2F463D
:100B10004FF0FF30CDE90C000AAB04220CA9774856
:100B200004F019F905460A9828B131680C988142F9
:100B300005D1641C361D14F0FF0F17D01AE0A20077
:100B4000B6A1684603F090FC684604F04FFD6B4880
:100B500004F094F803F0D8F99BA004F047FD0022BC
:100B60004021384601F0BEF90FB0F0BD40213846B3
:100B700001F0B4F915B90A980028C9D1B0A004F061
:100B800035FD00224021384601F0ACF903F0BCF9F4
:100B90008DA004F02BFDE7E7000400484170706C65
:100BA00069636174696F6E20737061636520696E3B
:100BB00020666C61736820697320777269746520A0
:100BC00070726F7465637465642E00005072657393
:100BD0007320627574746F6E20746F206469736122
:100BE000626C6520666C6173682077726974652039
:100BF00070726F74656374696F6E2E2E2E00000024
:100C000044697361626C696E6720777269746520EC
:100C100070726F74656374696F6E20616E642067B3
:100C2000656E65726174696E672073797374656D42
:100C30002072657365742E2E2E0000004275747448
:100C40006F6E20776173206E6F742070726573739E
:100C500065642C2077726974652070726F746563A7
:100C600074696F6E206973207374696C6C206163A2
:100C7000746976652E00000045786974696E672096
:100C8000426F6F746C6F616465722E005344206311
:100C90006172642063616E6E6F7420626520696E9C
:100CA000697469616C697A65642E00000400002033
:100CB00040010020534420636172642063616E6EC2
:100CC0006F74206265206D6F756E7465642E000010
:100CD0004661744673206572726F7220636F64653B
:100CE0003A202575000000005344206D6F756E7426
:100CF00065642E004750502E62696E006C03002020
:100D000046696C652063616E6E6F74206265206F4A
:100D100070656E65642E0000536F6674776172654E
:100D200020666F756E64206F6E2053442E000000A5
:100D30004572726F723A20617070206F6E2053445A
:100D4000206361726420697320746F6F206C61721C
:100D500067652E004170702073697A65204F4B2EB5
:100D60000000000045726173696E6720666C6173F4
:100D7000682E2E2E00000000466C6173682065729C
:100D80006173652066696E69736865642E00000092
:100D90005374617274696E672070726F6772616DEF
:100DA0006D696E672E2E2E0050726F6772616D6DC9
:100DB000696E67206572726F722061743A20256CCB
:100DC0007520627974650000534420656A65637418
:100DD00065642E0050726F6772616D6D696E672079
:100DE000736B69707065642E0000000050726F674D
:100DF00072616D6D696E672066696E69736865649E
:100E00002E000000466C61736865643A20256C759D
:100E10002062797465732E0000800008566572693F
:100E20006669636174696F6E206572726F722061AA
:100E3000743A20256C7520627974652E00000000DC
:100E4000566572696669636174696F6E207061735B
:100E50007365642E00000000054C4FF4FA751021F4
:100E6000204601F03BF8284600F0E2FCF7E70000DE
:100E700000040048014800F02FB8000004000020E2
:100E80000149024800F004B8040000202C57000873
:100E9000002200F001B8000030B50E4B05460120DD
:100EA0005C7A002C14D1587A1C54587A03EB8000D9
:100EB00045605D7A03F108002A54587A421C5A7240
:100EC000303008703A2048702F208870CC70002095
:100ED00030BD0000B0070020002100F001B8000084
:100EE0000B4910B502464B7A0120002B0FD0127827
:100EF000303AD2B201EB82035C68002C07D00020AC
:100F00000A4458601072487A401E4872002010BD92
:100F1000B007002014490A7F1448012A02D00A7F32
:100F2000032A0BD1026842F400620260026822F4D4
:100F300000620260026842F4007202600A7F022AC4
:100F400002D00A7F032A0BD1026842F48052026069
:100F5000026822F480520260026842F480620260F9
:100F60000020087770470000900500200020024014
:100F70000849C20703D04A6942F004024A61800767
:100F800003D5486940F400404861486940F4803026
:100F90004861704700200240F0B51F4B1B681F4C92
:100FA000DD054FF4801624884FF6FF774FF000637D
:100FB00006D4BC4201D02405A60A03EB560506E080
:100FC000BC4201D02405A60A1D4603EB5603047853
:100FD00004F00306124C012E02D0022E0AD013E0B8
:100FE000656AADB203EBC5050D60A16A89B203EB7A
:100FF000C10108E0636C9BB205EBC3030B60A16CFD
:1010000089B205EBC10111600168A26A02F00042D9
:1010100011430160F0BD000000000140E075FF1FBA
:10102000002002402DE9F04105464CF250371646AB
:101030000C46384600F0B0F900284ED12848006828
:10104000284BC2054FF6FF7C1A884FF480114FF0F1
:10105000006006D4624501D01105890A00EB5102F7
:1010600006E0624501D01105890A024600EB5100F5
:1010700005F003031C49012B02D0022B0FD01CE00A
:101080004B6A221A6FF30F0343EAD2034B628A6A58
:10109000301A6FF30F0242EAD0028A620DE04B6C05
:1010A000A01A6FF30F0343EAD0034B64B01A8A6CA3
:1010B0006FF30F0242EAD0028A64886A0C4660F33A
:1010C0001E058D62486940F400304861384600F0E2
:1010D00063F9616921F400316161BDE8F0810000CC
:1010E00000000140E075FF1F002002402DE9F041A3
:1010F000074600244CF250380E462546404600F084
:101100004BF9002869D1F80703D006F4E0644FF4E6
:10111000E065B80704D506F48050044345F48055D3
:10112000780704D506F40050044345F40055F8044C
:1011300004D506F48040044345F48045380704D5BF
:1011400006F48030044345F48035F80604D506F4EF
:101150000030044345F40035B80604D506F4802079
:10116000044345F48025780604D506F400200443A2
:1011700045F40025380604D506F48010044345F4F0
:101180008015F80504D506F40010044345F4001555
:10119000B80504D506F40000044345F400057805BD
:1011A00004D506F08070044345F08075380504D5F9
:1011B00006F00070044345F00075094E306AA843FC
:1011C00020433062706940F400307061404600F0A6
:1011D000E3F8716921F400317161BDE8F08100002C
:1011E000002002402DE9F04105464CF250361446ED
:1011F0000F46304600F0D0F800282CD147EA0440D2
:10120000164C35B1012D0AD0022D0ED0042D12D06E
:1012100016E0E16A01F0FF210143E16210E0216B79
:1012200001F0FF21014321630AE0E16C01F0FF219D
:101230000143E16404E0216D01F0FF2101432165D8
:10124000606940F400306061304600F0A5F86169E3
:1012500021F400316161BDE8F0810000002002400E
:10126000CA070F494A6902D022F4006201E042F441
:1012700000624A614A694FF4FF6393FAA3F3B3FA39
:1012800083F322F4FF62984002434A61486940F0C8
:1012900002004861486940F48030486170470000AE
:1012A00000200240044910B54C6944F001044C612F
:1012B0000260436010BD000000200240074B10B5E3
:1012C0005C69402244F480245C6172B608C908C09D
:1012D000521E12F0FF02F9D162B610BD002002408A
:1012E0002B49086982072B4803D5426842F0010266
:1012F00042600A69120703D5426842F00202426066
:101300000A69D20603D5426842F0040242600A69C3
:10131000920603D5426842F0080242600A6952060A
:1013200003D5426842F0100242600A69120603D5F2
:10133000426842F0200242600A69D20503D5426841
:1013400042F0400242600A69920503D5426842F0C9
:10135000800242600A69520403D5426842F48072F6
:1013600042600A69120403D5426842F40072426086
:101370008A69002A03DA426842F48062426088691E
:1013800040F0004088614CF2FA300861704700007C
:10139000002002409005002070B5054600F0A8FD31
:1013A00006461D4C08E0681C06D000F0A1FD801B1D
:1013B000A84201D3032070BD2069C003F3D4206983
:1013C00080071DD4206900071AD42069C00617D4ED
:1013D0002069800614D42069400611D420690006D3
:1013E0000ED42069C0050BD42069800508D420697B
:1013F000400405D42069000402D4A069002803DA5F
:10140000FFF76EFF012070BD2069C00701D00120E9
:101410002061002070BD00000020024010B5104C7B
:101420004FF48071204600F0C5FB4021204600F0BB
:10143000C1FB2021204600F0BDFB1021204600F01A
:10144000B9FB8021074800F0B5FB0748C16C21F0CB
:101450000201C164C16C21F00401C16410BD00002F
:10146000000400480008004800100240F0B5294878
:1014700087B0C16C41F00201C164C16C01F002018E
:101480000591C16C41F00401C164C06C224E00F0B2
:101490000400059000224021304600F023FD002288
:1014A0002021304600F01EFD00221021304600F0C1
:1014B00019FD1A4F01228021384600F013FD012545
:1014C0000024CDE901544020009069460394304641
:1014D00000F01AFC202000906946304600F014FC11
:1014E000102000906946304600F00EFC80200090ED
:1014F000CDE9015469463846039400F005FC280202
:101500008DE8310069463046039400F0FDFB07B0DA
:10151000F0BD000000100240000400480008004830
:10152000B8B101680A6822F00E020A6001680A6810
:1015300022F001020A6090F84420036C012101FAB4
:1015400002F25A6080F82510002180F82410084625
:1015500070470120704710B590F82510002402292B
:1015600003D00421C163012418E001680A6822F055
:101570000E020A6001680A6822F001020A6090F80F
:101580004420036C012101FA02F25A6080F8251010
:10159000002180F82410816B01B18847204610BDDE
:1015A00030B590B101680A6822F001020A601C4C53
:1015B000026814211B4BA24209D21B4C1444B4FBF9
:1015C000F1F18900C0E910310BE0012030BD144C6D
:1015D00064421444B4FBF1F18900416410490839B4
:1015E00001640021116090F844400122A240046C83
:1015F0006260046C0F229C4202D153F8A84F02E0B3
:10160000074BA0331C6890F84450AA4094431C60D8
:10161000C16380F8251080F82410002030BD000040
:101620000804024000000240F8FFFDBFF0B4016C66
:101630000D6801680C68466C042202FA06F32B421E
:101640000FD063070DD50B689B0603D40B6823F0FE
:1016500004030B6090F844108A40016C4A60016BEF
:101660001BE0022303FA06F72F424FF0000C4FF065
:10167000010216D0A70714D50C68A40605D40C687F
:1016800024F00A040C6080F8252090F844108B4068
:10169000016C4B6080F824C0C16A002918D0F0BCEE
:1016A00008470823B3402B4212D0230710D50B68FC
:1016B00023F00E030B6090F84410036C02FA01F162
:1016C0005960C26380F8252080F824C0416BE4E7AC
:1016D000F0BC704770B568B12B4C036814222B49DD
:1016E000A34209D22A4C1C44B4FBF2F29200C0E996
:1016F00010120BE0012070BD234C64421C44B4FB6B
:10170000F2F292004264204A083A0264022280F80F
:1017100025201C6847F6F0729443D0E902252A433D
:10172000D0E9045635432A4385692A43C5692A43CB
:10173000056A2A4322431A608268B2F5804F15D0A9
:10174000036C0F228B4202D151F8A83F02E00E49F0
:10175000A0310B6890F84440A24093430B6090F88E
:10176000443042689A400B681A430A600021C16203
:10177000016341638163C163012280F8252080F801
:101780002410084670BD000008040240000002401A
:10179000F8FFFDBF70B5044690F82400002501282D
:1017A0000CD0012084F8240094F825600020012E3C
:1017B00006D084F824000225284670BD022070BDA2
:1017C000022684F82560E0632068066826F001069A
:1017D00006602046FFF786F8206B00282068016825
:1017E00002D041F00E0106E021F004010160206802
:1017F000016841F00A0101602068016841F00101BF
:101800000160D9E7094810B54FF0FF31816300222C
:1018100082630164026481628262C162C2620163A6
:10182000026300F093FB002010BD00000010024096
:1018300070B5044600F05CFB0546601C00D0641CDB
:1018400000F056FB401BA042FAD370BD2DE9F05FBB
:10185000344D06468846287801280BD001274CF2E3
:10186000503A2F705046FFF797FD03004FF00009E4
:1018700003D052E0022000F059B84846C5F8049061
:10188000294C216889050ED5206820F4007020605D
:101890002068400505D5206820F480602060032082
:1018A00009E02F7708E02168490504D5206820F475
:1018B00080602060022028773068012808D04FF02F
:1018C000FF31C8F80010D34640F2FA7AB7681DE03D
:1018D0007068FFF74DFB5046FFF75EFD03466069F9
:1018E00048F204018843606115E038467168FFF7EB
:1018F000B7FC5846FFF750FD0300606920EA0A0074
:10190000606102D0C8F8007005E07F1CD6E90201D2
:101910000844B842E9D8FFF7FDFA85F80090184668
:10192000A9E70000900500200020024030BCBDE87F
:10193000C09F000006210160244942682AB1012AA3
:1019400003D0022A01D0042A15D10723036032B143
:10195000012A09D0022A18D0042A1BD00BE0CA6A37
:10196000D2B28260CA6A03E00A6BD2B282600A6BAA
:10197000C2F30742C2600A6AD2B2AA2A0FD00A6A28
:10198000D2B2CC2A0BD0BB220BE0CA6CD2B282609E
:10199000CA6CEDE70A6DD2B282600A6DE8E70A6AA6
:1019A000D2B20261096A21F0FF018161C169012996
:1019B00001D0022909D1016800F1240241F0080197
:1019C0000160111F1C30FFF7E7BA7047002002408A
:1019D0002DE9F047044627480025017801291AD04F
:1019E000012101704FF000098046C0F80490207872
:1019F000C00705D0201D07C8FFF7F4FB00B1012583
:101A0000207880071DD54CF2503A50462769FFF7E1
:101A1000C3FC18B114E00220BDE8F087164E306A0E
:101A200020F0FF0038433062706940F4003070618C
:101A30005046FFF7B1FC716921F40031716100B1CA
:101A400001252078400705D5D4E90501FFF74EFBB5
:101A500000B101252078000708D5D4E90812914289
:101A600004D0E069FFF7DEFA00B1012588F80090A4
:101A70002846D1E790050020002002400348416934
:101A800041F0004141610020704700000020024009
:101A90000448416941F0006141614CF25030FFF768
:101AA0007BBC0000002002400348416941F08041B6
:101AB0004161002070470000002002400548416954
:101AC000490005D50449C1600449C1600020704740
:101AD00001207047002002403B2A19087F6E5D4CB0
:101AE0002DE9FF5F254C0646904620789A4601284E
:101AF0000BD0012020704CF2503B5846FFF74CFCB5
:101B000007004FF0000904D02AE0022004B000F0E2
:101B100039B84846C4F80490194D2968490504D5D8
:101B2000286820F4806028600220207726B1012EEA
:101B300009D0022E07D00CE0424653460198FFF729
:101B4000B1FB012612E041460198FFF7B7FB022ED8
:101B50000AD05846FFF720FC4FEA0007FFF7DAF9F2
:101B600084F800903846D1E74FF480265846FFF7B6
:101B700013FC07466869B0436861EFE790050020F1
:101B80000020024030BCBDE8C09F00000649002094
:101B90004A69002A07DA054A8A60054A8A60496963
:101BA000002900DA01207047002002402301674528
:101BB000AB89EFCD2DE9F04F002301270F24DFF88B
:101BC00020A186E007FA03F616EA01027ED0056836
:101BD0004FEA43084FF0030C0CFA08FC45EA0C05E9
:101BE0000560DD0800EB8508C346D8F820905D0746
:101BF0004FEAD56804FA08F529EA0509CBF82090E0
:101C0000856825EA0C0585604568B5434560C5686B
:101C100025EA0C05C560C56AB543C56223F0030615
:101C200006EB0A05D5F808C09E07360F04FA06F938
:101C300009EA0C08B0F1904F06D0DFF8A8C0604563
:101C400005D14FF0010C27E04FF0000C24E0DFF845
:101C500098C0604502D14FF0020C1DE0DFF88CC047
:101C6000604502D14FF0030C16E0DFF884C06045F8
:101C700002D14FF0040C0FE0DFF878C0604502D1CC
:101C80004FF0050C08E0DFF870C0604502D14FF05E
:101C9000060C01E04FF0070C0CFA06FCC44517D106
:101CA000D5F808C02CEA090CC5F808C0134D2E68F9
:101CB00096432E602D1D2E6896432E602D1D2E6896
:101CC00096432E602D1D2E68964300E000E02E60A6
:101CD0005B1C31FA03F27FF475AF00F011B800001D
:101CE000000001400004004800080048000C0048C3
:101CF000001000480014004800180048000401408B
:101D000030BCBDE8C08F00002DE9F84FDFF898B176
:101D100000234FF0010C4FF0030A4FF00F090BF1B5
:101D2000040EB9E00CFA03F4224070D04D68022D85
:101D300001D0122D0ED1DD0800EB8508D8F8205017
:101D40005E07F70E09FA07F6B5430E69BE402E434B
:101D5000C8F8206007685E0091F804800AFA06F56A
:101D600008F00308AF4308FA06F848EA0708C0F885
:101D700000804F68012F05D0022F03D0112F01D012
:101D8000122F13D1D0F80880CF6828EA0508B74091
:101D900047EA08078760D0F804800F7928EA04082A
:101DA000C7F300179F4047EA08074760D1F804804F
:101DB0006FEA0807BF0706D1C76AA743C8F3C00484
:101DC0009C403C43C462C468AC438D68B540254325
:101DD000C5604C68E4005ED5344C256E45F00105C5
:101DE0002566246E23F0030504F001040094304CB2
:101DF0002E19B4689D072F0F09FA07F5AC43B0F10F
:101E0000904F05D02B4DA84204D101251CE042E0A3
:101E1000002519E0284DA84201D1022514E0274DE4
:101E2000A84201D103250FE0254DA84201D1042588
:101E30000AE0244DA84201D1052505E0224DA84223
:101E400001D1062500E00725BD402543B560DBF83C
:101E500000405D464E689443F60300D514432C6061
:101E6000DEF8004075464E689443B60300D514432F
:101E70002C600D4D08352C684E689443F60200D551
:101E800014432C60084D0C352C684E689443B60200
:101E900000D514432C605B1C0A6832FA03F57FF40A
:101EA00041AF00F013B800000004014000100240F0
:101EB000000001400004004800080048000C0048F1
:101EC00000100048001400480018004818BCBDE885
:101ED000E08F0069084000D00120704742694A4005
:101EE000426170470AB181617047816270470000AA
:101EF00001480068704700000C000020024801689B
:101F0000491C0160704700000C00002010B5032040
:101F100000F094F8002000F005F800F019F8002017
:101F200010BD000010B5044607484FF47A710068F0
:101F3000B0FBF1F001F010FA00222146501E00F033
:101F40005DF8002010BD0000100000207047000068
:101F50001E4808B5016E41F001010166016E01F0F5
:101F600001010091816D41F080518165806D00F02B
:101F700080500090032000F061F8002211466FF0BD
:101F80000B0000F03BF8002211466FF00A0000F051
:101F900035F8002211466FF0090000F02FF80022FA
:101FA0001146501F00F02AF800221146101F00F0C1
:101FB00025F800221146901E00F020F80022BDE80E
:101FC00008401146501E00F019B8000000100240F1
:101FD00000F01F02012191404009800000F1E02043
:101FE000C0F88011704700F01F02012191404009A4
:101FF000800000F1E020C0F800117047F0B40E4BF3
:102000001B680C46C3F30223C3F10705042D00D956
:102010000425191D072901D2002300E0DB1E01263B
:1020200006FA05F1491E214099409E40761E164051
:102030003143F0BC01F0ABB90CED00E0064900F013
:10204000070208684FF6FF03184040EA0220034ADF
:1020500010430860704700000CED00E00000FA0536
:102060001549B0F5007F0868C0F3412009D0022867
:1020700005D0086820F4C06040F48060086000204B
:1020800070470128FBD0086820F4C06040F400705D
:1020900008600A480A4A0068B0FBF2F03222504356
:1020A00000E0401E10B14A695205FAD44869400563
:1020B000E5D50320704700000070004010000020AC
:1020C00040420F000248006800F4C0607047000002
:1020D000007000402DE9F84F044600270088E54DC8
:1020E0003E46010504F1200B1DD5606E78B1B0F5B8
:1020F000800F11D0B0F5000F04D0B0F5400F22D002
:1021000001270FE0E86840F48030E8601BE0002120
:10211000201D01F04DF903E00021584601F0DEF9E1
:10212000070010D03E462088C00426D5A06EC0B15E
:10213000B0F1807F1AD0B0F1007F0DD0B0F1407FB8
:1021400019D0012718E0D5F88800616E20F440000E
:102150000843C5F88800E6E7E86840F48030E860A6
:1021600009E00021201D01F023F903E00021584679
:1021700001F0B4F90746F7B13E46206880033AD52E
:10218000A86D4FF00008C00009D4A86D40F0805041
:10219000A865A86D4FF0010800F080500090DFF8AE
:1021A000D8A2DAF8001041F48071CAF80010FFF7E5
:1021B0009FFE814610E0D5F88800A16E20F04070A7
:1021C0000843C5F88800D8E7FFF792FEA0EB0900A6
:1021D000022801D9032705E0DAF80000C005F3D58D
:1021E000002F7CD04FEA0706B8F1000F03D0A86D8E
:1021F00020F08050A8652078C00707D0D5F8880067
:10220000A16B20F003000843C5F888002078800700
:1022100007D5D5F88800E16B20F00C000843C5F81D
:1022200088002078400707D5D5F88800216C20F079
:1022300030000843C5F888002078000707D5D5F896
:102240008800616C20F0C0000843C5F88800207841
:10225000C00607D5D5F88800A16C20F4407008436B
:10226000C5F888002078800607D5D5F88800E16C8D
:1022700020F440600843C5F888002088800507D511
:10228000D5F88800E16D20F440200843C5F88800A7
:102290002088400507D5D5F88800216E20F440102D
:1022A0000843C5F888002078400607D5D5F888008F
:1022B000216D20F440500843C5F8880020780006BE
:1022C00007D5D5F88800616D20F440400843C5F873
:1022D00088002088C00509D5D5F8880000E01CE0FA
:1022E000A16D20F440300843C5F8880020884FF0E5
:1022F000006780044FF080684FD5D5F88800E16E04
:1023000020F040600843C5F88800E06EB8423CD138
:10231000E86840F48010E8603FE0D5F8900010F4E1
:10232000407015D0D4F88410814211D0D5F89000B7
:10233000D5F8901020F4407041F48031C5F8901029
:10234000D5F8901021F48031C5F89010C5F89000B0
:10235000C00710D0FFF7CCFD074641F2883906E0F0
:10236000FFF7C6FDC11B494501D903263CE7D5F857
:1023700090008007F4D5D5F89000D4F8841020F4AC
:1023800040700843C5F890002EE7404505D1012173
:10239000201D01F00DF800B106462068000317D596
:1023A000D5F88800216F20F040600843C5F8880008
:1023B000206FB84204D1E86840F48010E86007E07C
:1023C000404505D10121201D00F0F2FF00B1064675
:1023D0002068400317D5D5F88800616F20F0406071
:1023E0000843C5F88800606FB84204D1E86840F43B
:1023F0008010E86007E0404505D10121201D00F074
:10240000D7FF00B10646208840041AD5D5F88800C9
:10241000A16F20F040500843C5F88800A06FB0F1CC
:10242000805F03D0B0F1005F05D00AE00221201DDB
:1024300000F0BEFF03E00221584601F04FF800B162
:1024400006462088000407D5D5F88800E16F20F003
:1024500080400843C5F888002068C00307D555F8B8
:10246000880FD4F8801020F00040084328603046E0
:1024700000F004B8001002400070004018BCBDE835
:10248000E08F00002DE9F047DFF8608105460E4639
:10249000D8F8000000F00700B0420CD2D8F80010C5
:1024A00021F007013143C8F80010D8F8000000F00F
:1024B0000700B04275D128784D4CC00757D06868E6
:1024C000032818D0022819D02168D0B14905002965
:1024D00067DAA16821F003010143A160FFF708FD5D
:1024E0006968074641F28830032913D002291FD0BA
:1024F000814651B336E021688901E8E72168890304
:10250000E5E78907E3E700BFFFF7F2FCC11B494598
:1025100001D924E08146A068C0F381000328F3D1EB
:1025200025E000BFFFF7E4FCC11B494501D916E0D7
:102530008146A068C0F381000228F3D117E000BFF4
:10254000FFF7D6FCC11B494509D8A06810F00C0F55
:10255000F6D10CE0FFF7CCFCC11B494502D90320A2
:10256000BDE8F087A068C0F381000128F2D1287887
:10257000800705D5A068A96820F0F0000843A06096
:10258000D8F80010404601F00701B1420BD90168AC
:1025900021F0070131430160006800F00700B042FC
:1025A00001D00120DCE72878400705D5A068E9685C
:1025B00020F4E0600843A0602878000706D5A068F2
:1025C000296920F4605040EAC100A06000F08CF856
:1025D000A168084AC1F30311515CC840064908606C
:1025E0000020FFF79FFC0020BAE700000020024017
:1025F000001002405C560008100000202DE9F04158
:10260000324C206840F001002060FFF771FC054665
:1026100005E000BFFFF76CFC401B022831D82068A2
:102620008007F7D5206820F0F00040F060002060BF
:102630000025A5602749264808602846FFF772FC58
:1026400010B10120BDE8F081FFF752FC064641F2CF
:10265000883704E0FFF74CFC801BB84211D8A06813
:1026600010F00C0FF6D120681B4908402060FFF7DE
:102670003FFC064607E000BFFFF73AFC801B02283C
:1026800001D90320DEE7206810F0285FF4D1E5606F
:10269000E06840F48050E0602561206940F480509B
:1026A00020616561606940F480506061206820F4B9
:1026B00080202060A5614FF0FF302062D4F89400A4
:1026C00040F40000C4F894000020BBE70010024072
:1026D00000093D0010000020FFF4FEEA01480068F8
:1026E000704700001000002030B52D490023184627
:1026F0008A682C4C12F00C0F4FEA640514D08A68DB
:10270000C2F38102032A04D1CA6802F00302012A3B
:102710000AD08A68C2F38102012A19D08A68C2F3FA
:102720008102022A16D016E00A68120704D4D1F8F2
:102730009420C2F3032202E00A68C2F303121A4B88
:1027400053F822308A6812F00C0F04D1184602E0C8
:10275000204600E028468A68C2F38102032A1DD180
:10276000C868CA6800F00300C2F30212521C0228B3
:1027700004D0032805D0B3FBF2F004E0B4FBF2F080
:1027800001E0B5FBF2F0CA68C968C2F30622504303
:10279000C1F34161491C4900B0FBF1F030BD0000BC
:1027A000001002400024F4006C5600082DE9F843A4
:1027B00004460078FE4DC0065DD5A86810F00C0FE9
:1027C0000AD0A0690028286871D040F00100286074
:1027D000FFF78EFB064654E02868800702D5A06903
:1027E00000287DD0216A2868000703D5286800F0FA
:1027F000F00004E0D5F89400F02202EA10108142C3
:1028000016D9084600F0EEFE002869D1286840F08D
:10281000080028602868216A20F0F000084328603A
:102820006868E16920F47F4040EA0120686015E0B3
:10283000286840F0080028602868216A20F0F0002D
:10284000084328606868E16920F47F4040EA01207D
:102850006860206A00F0C6FE0028D6D1FFF744FF6A
:10286000A968D44AC1F30311515CC840D249086039
:102870000020FFF757FB29E0FFF73AFB801B0228F7
:102880007ED828688007F7D5286840F008002860BF
:102890002868216A20F0F000084328606868E16930
:1028A00020F47F4040EA012068600FE0FFE720F05D
:1028B00001002860FFF71CFB064604E0FFF718FB49
:1028C000801B0228DCD828688007F7D42078C0074E
:1028D0004AD0A868C0F3810002281FD0A86800E091
:1028E00098E0C0F38100032803D1E868C043800763
:1028F00014D06068B0F5803F17D0B0F5A02F2868DD
:1029000017D020F480302860286820F480202860C8
:102910006068E0B1FFF7ECFA064614E0286880032F
:1029200022D56068002875D01EE0286840F4803009
:10293000EDE740F480202860F7E700BFFFF7D8FA02
:10294000801B64289CD828688003F7D50CE0FFF72B
:10295000CFFA064605E000BFFFF7CAFA801B6428DD
:102960008ED828688003F7D42078800742D5A868DD
:10297000C0F38100012816D0A868C0F3810000E0F0
:10298000A9E0032804D1E86800F0030002280AD077
:10299000E068002828681DD040F480702860FFF7A8
:1029A000A7FA06460BE0286840050BD5E06800282A
:1029B000B9D007E0FFF79CFA801B0228C2D828682C
:1029C0004005F7D56868217C20F0F85040EA0160A6
:1029D00068600FE020F480702860FFF789FA0646EF
:1029E00005E000BFFFF784FA801B022873D828682F
:1029F0004005F7D42078000729D560690028D5F86C
:102A0000940013D040F00100C5F89400FFF770FA6D
:102A1000064606E0FBE000BFFFF76AFA801B0228CB
:102A200059D8D5F894008007F6D510E020F00100C1
:102A3000C5F89400FFF75CFA064604E0FFF758FA81
:102A4000801B022847D8D5F894008007F6D4207858
:102A5000400763D5A86D0026C00008D4A86D40F0DB
:102A60008050A865A86D012600F080500090534862
:102A70000168C90511D40168804641F48071016084
:102A8000FFF736FA074604E0FFF732FAC01B0228C8
:102A900021D8D8F80000C005F6D5A068012815D0C7
:102AA0000528D5F8900017D020F00100C5F8900057
:102AB000D5F8900020F00400C5F89000A06841F21D
:102AC0008838C8B1FFF714FA074610E0D5F890002F
:102AD00040F00100F0E777E040F00400C5F8900016
:102AE000F4E700BFFFF704FAC11B41456CD8D5F8E5
:102AF00090008007F6D50CE0FFF7FAF9074604E0EE
:102B0000FFF7F6F9C11B414579D8D5F89000800749
:102B1000F6D41EB1A86D20F08050A865A06AE0B37D
:102B2000A968C1F38101032972D00228286820F026
:102B30008070286011D02868000106D428688000C1
:102B400003D4E86820F00300E860E8681C49084006
:102B5000E860FFF7CDF9044654E0FFF7C9F90646EF
:102B600005E000BFFFF7C4F9801B022847D828689A
:102B70008001F7D4206BE16A000110380843616BD3
:102B8000A26B0902120941EA42410843A18F0D4A92
:102B9000490802EB4151084300E036E094F8401048
:102BA0004908120102EB41610843E86028680CE023
:102BB000001002405C560008100000200070004029
:102BC000FFFFEEFE0000E0FF19E040F0807028609B
:102BD000E86840F08070E860FFF78AF9044604E096
:102BE000FFF786F9001B022809D828688001F7D56D
:102BF0000BE000BFFFF77CF9001B022802D903207D
:102C0000BDE8F88328688001F4D40020F8E7FFE7E6
:102C10000120F5E710B5FDF74AFB10BDFEB50446EF
:102C200003200D4684F83400606C03281FD0B5F5EE
:102C3000805F1CD0B5F5006F05D045B1A06B40F0AA
:102C40000060A06309E0204601F0D3FA02E02046CC
:102C500001F0A8FAA16B0143A163A06B012650B15A
:102C600021680C48886384F834600120FEBDA06BA5
:102C700040F08050E5E7211DD4E905700EC90095AC
:102C8000CDE90170206800F0F5FF84F83460002081
:102C9000FEBD0000FF05400010B504000DD003206C
:102CA00084F83400206800F0F7FF204600F03FFA77
:102CB0000020A06384F8340010BD012010BD10B5C1
:102CC000FDF724FB10BD0000F0B5426E120E930913
:102CD0000B70C2F383034B7002F003028A70426EE2
:102CE000120CCA70B0F86420120A0A7190F86420BD
:102CF0004A71826E4FF6FF73120E03EA0212CA8007
:102D0000826ECB88C2F3074243EA1213CB8002F0F3
:102D10000F020A72B0F86820C2F30722D3094B727F
:102D2000C2F380138B72C2F34013CB72C2F3001351
:102D30000B7300264E73446C4FF40077012364B18B
:102D4000012C42D0026856499163816B41F0805159
:102D5000816380F834300120F0BD9207120D0A61C2
:102D600090F868200C6944EA82020A61C26E0C691C
:102D7000120E44EA92140C61C2F3C2040C7502F004
:102D800007024A75C26EC2F3074254098C75C2F33A
:102D90008204CC759207520F0A76B0F86C20C2F309
:102DA00007240A7E42EAD4120A760A69521C426556
:102DB0000D7EAD1CAA4042650D7A03FA05F58565C6
:102DC0006D0A6A43C0E917271CE090F86820920654
:102DD000920A0A61C26E0C69120E44EA02220A616A
:102DE000C26E0C69C2F3074214430C61B0F86C2048
:102DF000C2F307240A69521C4FEA82224265C0E9E5
:102E000016720766C4F3801201F8192F4FEA846224
:102E10004FEA52624A7010F86C2F4C7844EAD21490
:102E20004C7002F07F028A7042684FEA12624FEAE9
:102E3000D214CC70C2F341140C71C2F382044C71F1
:102E40004FEA82724FEA12728A7142688C79C2F339
:102E5000074244EA92148C71C2F34014CC710E7292
:102E600002F001024A728288C2F307224FEAD214AA
:102E70008C72C2F38014CC72C2F340140C73C2F390
:102E800000144C73C2F381048C7302F00302CA7302
:102E900000794FEA500008744B744FF00000F0BD09
:102EA000FF054000426C0A60826C4A60C26C8A6016
:102EB000026DCA60426D0A61826D4A61C26D8A61AB
:102EC000006EC8610020704770B50446B0F850002D
:102ED00000250104206800F01EFD18B1A16B01431C
:102EE000A16304E00021206800F0BEFE0546C5F3A2
:102EF000432070BD70B504460068416B40F23A56FD
:102F0000C9054FF0010549D5290281632068C16BCD
:102F10004CF23A129143C163206B0007206B20D51D
:102F2000800702D4206B800609D5206800F024FDBC
:102F300028B1A16B0143A1632046FFF7C0FE2068C2
:102F4000866384F83450206BC00702D1206B800761
:102F500003D5204600F06AF970BD204600F06AF9FA
:102F600070BD0006FCD5206B800609D5206800F0F6
:102F700003FD28B1A16B0143A1632046FFF79FFE2B
:102F8000206BC007ECD1206B8007E9D42068C16AB0
:102F900021F00801C16284F83450DEE7416B490436
:102FA0000ED5D4F82060002506EB8501206800F0DE
:102FB0008EFE6D1C082DF7D3206A2030206270BD74
:102FC000416B09040DD5A66A0025206800F06CFE4F
:102FD00046F825006D1C082DF7D3A06A2030A062AA
:102FE00070BD416B11F03A0FFAD0416B890703D5E0
:102FF000A16B41F00201A163416B090703D5A16BED
:1030000041F00801A163416B890603D5A16B41F032
:103010002001A163416BC90603D5A16B41F01001EA
:10302000A16386632068C16B21F49D71C163206B2D
:10303000000705D584F834502046FFF740FE70BDE8
:10304000206B0006FBD5E06B58B111498163E06B42
:10305000FEF781FA0028F2D0E06BBDE8704000F086
:103060001EBF206C58B10B498163206CFEF773FAC8
:103070000028E4D0206CBDE8704000F0E2BE0020E3
:10308000A06384F834502046FFF7C4FD70BD0000F3
:103090009F3E0008433E000870B504000ED094F82F
:1030A0003400002518B92577204600F041F80320A8
:1030B00084F83400204600F00AF808B1012070BD01
:1030C000A5632563012084F83400002070BD3EB55F
:1030D0000021044676200091CDE901100B460A46F6
:1030E000206800F0C7FD40B92068416821F4807174
:1030F0004160206800F0D4FD08B101203EBD206889
:10310000416841F4807141600220FEF791FB204646
:1031100000F0F7FF012520B9204600F07FFF0028CE
:10312000ECD084F83450A16B0143A163E5E770470C
:10313000704700002DE9F047154686B01E460A008C
:10314000044607D094F83400012807D0022006B0C6
:10315000BDE8F087A06B40F0006008E00020A063AD
:10316000E36DA919994204D9A06B40F00070A063E7
:1031700053E0032184F8341021688146C862216835
:10318000CB6B43F49573CB63236C25494FEA4628F8
:10319000D962236C23495963216C4FEA98038863F1
:1031A0002168206C8031FEF7F5FA2068C16A41F091
:1031B0000801C162606C012800D06D024FF40071FB
:1031C000206800F087FADFF860A00127E8B9B81E90
:1031D000CDE900089020029002200597CDE903096F
:1031E0006946206800F014FC012E06D98220206375
:1031F0002946206800F000FB05E081202063294675
:10320000206800F012FB0028A1D02268C2F838A084
:10321000A16B0143A16384F83470012097E700009B
:10322000053E0008AD3D0008FF05400010B5FDF764
:103230004FF910BD10B5FDF769F910BD2DE9F04F3C
:1032400087B01E4615465FEA010B044607D094F886
:103250003400012807D0022007B000F06DB8A06B41
:1032600040F0006008E00020A063E26DA9199142DF
:1032700004D9A06B40F00070A06339E0032184F80A
:10328000341021688046C8622168CA6B42F01A0275
:10329000CA63E26B2549D162E26B25495163E16B58
:1032A0008863606C012800D06D024FF400712068C3
:1032B00000F010FADFF87C90012788B94FF0900AEF
:1032C000012E06D9A02020632946206800F06EFB5D
:1032D00005E0C4F830A02946206800F080FB48B122
:1032E0002268C2F83890A16B0143A16384F834705E
:1032F0000120B1E72068C16A41F00801C16222687B
:103300007502AB0859468032E06BFEF743FA4FF086
:10331000FF308DE82104CDE90487CDF80C806946A3
:10332000206800F075FB002096E70000913E000841
:10333000AD3D0008FF05400030BCBDE8C08F4FF038
:10334000E0210428086903D020F0040008617047D8
:1033500040F00400FAE7704710B5401EB0F1807FDE
:1033600001D3012010BD4FF0E02460610F216017F0
:1033700000F00DF80020A06107202061002010BDA2
:1033800010B5FFF7E8FF10BDFEE7FEE7704709073D
:10339000090E002806DA00F00F0000F1E02080F8A6
:1033A000141D704700F1E02080F80014704770474A
:1033B0002DE9F041444C05468846E0680026810727
:1033C00028680DD0E16801F00301814216D1A8B14F
:1033D000E0686968C0F30210401C88420ED120E00A
:1033E000012804D0022805D0032807D108E021686D
:1033F000890701E021684905002907DB01265FE014
:103400002168890302D421684903F5E7E1686A6805
:103410006FF00F0321F0730103EB0212114301431C
:10342000E160206820F080602060FEF761FD0746C3
:1034300005E000BFFEF75CFDC01B022837D82068FE
:103440000001F7D4B8F1000F18D0B8F1010F1ED069
:10345000287D4FF07E41400801EB4060A96840EABA
:1034600001202169194A114008432061206840F079
:1034700080602060FEF73CFD07461AE0A868E96816
:103480000002090940EA41402169114AEBE7288A14
:103490001049400801EB4050A96840EA0120216929
:1034A0000D4AE0E7FEF724FDC01B022801D90326E0
:1034B00006E020680001F5D52069A969084320616C
:1034C0003046BDE8F081000000100240FF80FFF9A7
:1034D000FF80FDFF0000E0FFFF809FFF2DE9F0412E
:1034E0003D4C06468846E0680025810730680DD0CF
:1034F000E16801F00301814216D1A8B1E06871686A
:10350000C0F30210401C88420ED120E0012804D0F4
:10351000022805D0032807D108E02168890701E0C7
:1035200021684905002907DB012551E0216889034D
:1035300002D421684903F5E7E16872686FF00F0370
:1035400021F0730103EB021211430143E160206893
:1035500020F080502060FEF7CBFC074605E000BF5E
:10356000FEF7C6FCC01B022829D820688000F7D4CB
:10357000B8F1000F15D0307C4FF07E41400801EBD0
:103580004060B16840EA01206169144A1140084373
:103590006061206840F080502060FEF7A9FC07467B
:1035A0000FE0B068F1680002090940EA4140616932
:1035B0000B4AEBE7FEF79CFCC01B022801D9032550
:1035C00006E020688000F5D5606971690843606194
:1035D0002846BDE8F081000000100240FF80FFF99E
:1035E000FF80FDFFF8B51C4D06460024A86DC00005
:1035F00002D5FEF767FD0DE0A86D40F08050A8658C
:10360000A86D00F080500090FEF75CFDA96D21F0E0
:103610008051A965B0F5007F04D0802E07D94FF006
:1036200003040AE0802E08D9A02E01D804E001D1BD
:10363000022402E0702E00D101240848016821F024
:10364000070121430160006800F00700A04201D09B
:103650000120F8BD0020F8BD00100240002002400B
:103660000148FFF747BC0000BC00002010B586B041
:1036700004463720CDE9001040200290002003903E
:103680004FF4806004906946204600F010FB41F240
:1036900088323721204600F0CDF906B010BD000079
:1036A00010B504460A4886B001432920CDE9001030
:1036B00040200290002003904FF4806004906946FF
:1036C000204600F0F4FA204600F068FA06B010BD7B
:1036D0000000108010B586B004461020CDE900101F
:1036E00040200290002003904FF4806004906946CF
:1036F000204600F0DCFA41F288321021204600F02A
:1037000099F906B010BD10B586B004460620CDE983
:10371000001040200290002003904FF4806004903D
:103720006946204600F0C3FA41F28832062120465D
:1037300000F080F906B010BD30B585B00024054614
:10374000009401944FF480600294CDE903406946EF
:10375000284600F0ACFA0B484FF47A710068B0FBD1
:10376000F1F041F288314843C008401E07D0696B30
:103770000906FAD5C520A863204605B030BD4FF034
:103780000040FAE71000002070B585B004464FF401
:10379000D570009001A908204025002681E861002D
:1037A000C00104906946204600F081FA11484FF4A8
:1037B000FA510068B0FBF1F041F288314843401EF5
:1037C00003D24FF0004005B070BD616B11F0450FA2
:1037D000F5D0606B400701D5042003E0606BC007A3
:1037E00002D00120A063EEE7606B400600D5A56320
:1037F0003046E8E71000002010B586B004461220DD
:10380000CDE9001040200290002003904FF480602A
:1038100004906946204600F04AFA41F288321221AB
:10382000204600F007F906B010BD10B586B004467A
:103830001120CDE9001040200290002003904FF4A9
:10384000806004906946204600F031FA41F28832E7
:103850001121204600F0EEF806B010BD10B586B07C
:1038600004460720CDE9002040200290002003906C
:103870004FF4806004906946204600F018FA41F247
:1038800088320721204600F0D5F806B010BD10B5EB
:1038900086B0044600210220CDE90010C020CDE909
:1038A00002014FF4806004906946204600F0FFF961
:1038B000204600F04DF906B010BD10B586B00446A4
:1038C0000920CDE90010C0200290002003904FF4A1
:1038D000806004906946204600F0E9F9204600F037
:1038E00037F906B010BD10B586B00446002133206C
:1038F000CDE900104020CDE90201000104906946A5
:10390000204600F0D4F941F288323321204600F0FD
:1039100091F806B010BD10B586B004460D20CDE973
:10392000001040200290002003904FF4806004902B
:103930006946204600F0BBF941F288320D2120464D
:1039400000F078F806B010BD30B585B00C460546DD
:1039500000210320CDE900104020CDE90201000143
:1039600004906946284600F0A2F922460321284621
:1039700000F034F905B030BD10B586B00446002122
:103980000C20CDE900104020CDE902010001049097
:103990006946204600F08BF9034A0C21204600F0CE
:1039A00049F806B010BD000000E1F50510B586B07D
:1039B00004461920CDE90010402002900020039019
:1039C0004FF4806004906946204600F070F941F29F
:1039D00088321921204600F02DF806B010BD10B530
:1039E00086B004461820CDE9001040200290002047
:1039F00003904FF4806004906946204600F057F928
:103A000041F288321821204600F014F806B010BDAB
:103A10000A6842624A688262D1E902231A43D1E904
:103A200004310B43C16A1A4321F0F7010A43C26211
:103A30000020704730B5444B4FF4FA5545241B68BD
:103A4000B3FBF5F353435B1E02D24FF0004030BD91
:103A5000426B2242F7D0426B520703D504218163A7
:103A6000084630BD426BD20702D00121816303E0DA
:103A70000269D2B28A4201D0012030BDC5218163E2
:103A8000002100F0F1F83149084201D1002030BD99
:103A9000002802DA4FF0007030BD410001D540200F
:103AA00030BD810001D5802030BDC10002D54FF46A
:103AB000807030BD010102D54FF4007030BD41016E
:103AC00002D54FF4806030BDC10102D54FF40060D3
:103AD00030BD010202D54FF4805030BD410202D505
:103AE0004FF4005030BD810202D54FF4804030BD0C
:103AF000C10202D54FF4004030BD410302D54FF45E
:103B0000003030BD810302D54FF4802030BDC103A9
:103B100002D54FF4002030BD010402D54FF48010CF
:103B200030BD410402D54FF4001030BD810402D5F0
:103B30004FF4800030BD000702D54FF4000030BDC7
:103B40004FF4803030BD00001000002008E0FFFD81
:103B500011494FF4FA520968B1FBF2F141F288328F
:103B60005143491E02D24FF000407047426B12F0A1
:103B7000450FF6D0416B490703D504218163084600
:103B80007047416BC90703D0012181630846704724
:103B9000C521816300207047100000200E494FF4BA
:103BA000FA520968B1FBF2F141F288325143491EE1
:103BB00002D24FF000407047426B12F0450FF6D032
:103BC000416B490703D50421816308467047C5212D
:103BD0008163002070470000100000201F4B10B5CB
:103BE0001B684FF4FA54B3FBF4F341F28834634397
:103BF0005B1E02D24FF0004010BD446B14F0450F25
:103C0000F6D0436B5B0703D504218163084610BDE2
:103C1000436BDB0702D00121816303E00369DBB260
:103C20008B4201D0012010BDC5218163002100F02D
:103C30001BF810F4604F04D0410406D54FF4005037
:103C400010BD000C1080002010BD000402D54FF400
:103C5000805010BD4FF4803010BD000010000020D7
:103C6000006800F00300704708B508441430009065
:103C7000006808BD70B50DF1100C11439CE8700090
:103C80002343194329434268314347F6FF639A436C
:103C900011434160002070BD00210160084670475B
:103CA0000321016000207047D0F8800070470A6847
:103CB0008260D1E901231A43D1E903310B43C16882
:103CC0001A436FF30B010A43C26000207047096872
:103CD000C0F880100020704710B5064C01202070FD
:103CE000FCF71CFB18B9207820F001002070207828
:103CF00010BD00001C000020144910B5124A0A60D3
:103D000007224A6000228A60CA6080220A6192000B
:103D10004A6192008A614FF440520A6201648862EB
:103D20000846FDF7FDFB0948FDF73AFC0748FDF79B
:103D3000D1FC0446002202213C20FEF75FF93C2022
:103D4000FEF751F9204610BD580402402C00002017
:103D5000154910B5134A0A6007224A6010228A608A
:103D60000022CA6080220A6192004A6192008A6140
:103D70004FF440520A62C16388620846FDF7D0FBE7
:103D80000948FDF70DFC0848FDF7A4FC0446002295
:103D900002213C20FEF732F93C20FEF724F92046B0
:103DA00010BD0000580402407400002010B5846A61
:103DB000206CC06B012803D0E06BC06B01281BD1C5
:103DC00021680F4888632068C16B21F49D71C1632D
:103DD000A06B40F08040A0632046FFF775F80628EE
:103DE00001D0052805D12068FFF7C6FDA16B084367
:103DF000A063012084F834002046FEF760FF10BD68
:103E0000FF05400010B5846A206B822809D1206824
:103E1000FFF7B2FD28B1A16B0143A1632046FEF775
:103E20004EFF2068C16A21F00801C162216840F29A
:103E30003A508863012084F834002046FFF7F6F9F1
:103E400010BD10B5846A206C08B100202064E06BBE
:103E5000002819D1216840F23A5088632046FFF7C4
:103E600033F8012184F83410062801D005280BD13D
:103E70002068FFF781FDA16B0843A063A06B0028B9
:103E8000204602D0FEF71BFF10BDFEF7C3FE10BD9B
:103E9000806A0068C16B41F48071C163704710B5DE
:103EA000846AE06B08B10020E063206C002819D11F
:103EB000216840F23A5088632046FFF705F8012157
:103EC00084F83410062801D005280BD12068FFF7AC
:103ED00053FDA16B0843A063A06B0028204602D0CD
:103EE000FEF7EDFE10BDFEF795FE10BD10B5FCF718
:103EF000E1F9FCF7BFFF0122BDE810408021014835
:103F0000FDF7F0BF0008004800220249104600F00B
:103F1000BFBE0000040000202DE9F04F89B00E461E
:103F20000446FDF7E5FF00250095019508902F4612
:103F300008212068FFF7CEFB002836D1B4F85000E6
:103F400001042068FFF792FB00282ED1401E4FF09D
:103F50000808CDE9020830204FF00209CDE9040934
:103F60000120CDE9067002A92068FFF751FD206805
:103F7000FFF7B9FC002818D1EB464FF4FA7A40F26B
:103F80002A472068416B394212D1416B890204D51E
:103F9000FFF78AFE4BF825006D1CFDF7A9FF089975
:103FA000401A5045EDD34FF0004009B000F020B862
:103FB000416B090703D5C0F838800820F5E7416B4D
:103FC000890703D5C0F838900220EEE7416B8906D7
:103FD00003D5202181630846E7E740F23A51816327
:103FE000009800BA7060019800BA30600020DCE7E9
:103FF00030BCBDE8C08F000010B50022802106480B
:10400000FDF770FFFCF73CFF18B9FCF79BF900289F
:1040100000D0012010BD00000008004810B590B08D
:1040200004460120ADF838002068FFF719FE00288B
:1040300064D0606C032842D02068FFF728FC002879
:104040005AD100212068FFF70FFE60670421206825
:10405000FFF70AFEA06708212068FFF705FEE0676A
:104060000C212068FFF700FEC4F88000606C032874
:1040700025D00EA92068FFF767FC00283CD1606CB2
:1040800003281CD0BDF83800206501042068FFF724
:1040900014FC002830D100212068FFF7E5FD6066A0
:1040A00004212068FFF7E0FDA06608212068FFF7E3
:1040B000DBFDE0660C212068FFF7D6FD20670421B8
:1040C0002068FFF7D1FD000DE06403A92046FEF74C
:1040D000FBFDB4F85000002302042068FFF7BEFB8C
:1040E000002809D104F1100007C88DE8070094E802
:1040F0000F00FFF7BFFD002010B010BD4FF0806033
:10410000FAE72DE9F8430025044600950068FFF71B
:1041100013FB00281AD12068FFF736FB4FF0807898
:104120004FF6FF76D8B14FF08057A5640098411C38
:104130000091B0421AD000212068FFF797FA20B909
:1041400000212068FFF7ACFA10B13846BDE8F883CB
:1041500000212068FFF788FDC00FE7D01FE001278E
:10416000A7640098411C0091B04201D14046EDE7A0
:1041700000212068FFF77AFA0028E7D14FF080414C
:104180002068FFF78DFA0028E0D100212068FFF7B2
:104190006BFDC10FE5D0400001D5676400E06564A8
:1041A0000020D3E71CB504460020009001900021B8
:1041B0002068FFF759FD800102D54FF400601CBD57
:1041C00069462046FFF7A8FE0028F8D10198C003F1
:1041D0000CD5B4F8500001042068FFF747FA002816
:1041E000EDD100212068FFF78EFA1CBD4FF08060F2
:1041F0001CBD1CB5044600200090019000212068E1
:10420000FFF732FD800102D54FF400601CBD694606
:104210002046FFF781FE0028F8D1019840030CD515
:10422000B4F8500001042068FFF720FA0028EDD10F
:1042300002212068FFF767FA1CBD4FF080601CBDAB
:1042400010B5054C01212170FFF746FD20700020BC
:104250006060A060207810BD1C00002010B51248DE
:1042600088B014460078C00702D0032008B010BD03
:10427000B9B1012905D0022908D003290CD00420A6
:10428000F4E76846FCF744F8069809E06846FCF74E
:104290003FF80798208004E06846FCF739F8079853
:1042A00020600020E2E700001C0000202DE9F04122
:1042B000154C012500271646084667601A46314608
:1042C000FCF7EEF8D0B9FDF713FE0646606820B99A
:1042D000FDF70EFE801B9628F8D3606820B167605A
:1042E000FDF706FE044604E0012507E0FCF716F89A
:1042F00038B1FDF7FDFD001B9628F7D32846BDE831
:10430000F0810025FAE700001C000020FFF7E4BC64
:104310002DE9F041154C0125002716460846A760F7
:104320001A463146FCF7DAF8D0B9FDF7E1FD06464A
:10433000A06820B9FDF7DCFD801B9628F8D3A068A3
:1043400020B1A760FDF7D4FD044604E0012507E095
:10435000FBF7E4FF38B1FDF7CBFD001B9628F7D340
:104360002846BDE8F0810025FAE700001C00002087
:10437000704710B5FDF7C2FDBDE81040FFF700B86B
:104380002DE9F041B8B01020012422900025289496
:104390006020CDE929504FF00208CDE92C84182681
:1043A0000727CDE93078CDE92E4622A8CDF8C88080
:1043B000FEF7FCF9F8B90F2033900320CDE934055E
:1043C0003695022133A83795FEF75CF898B9E004DA
:1043D0000090C0011C9001948011CDE90680CDE9C8
:1043E0000478CDE902466846FDF774FE18B960020C
:1043F000FDF736FE08B1FCF72FFDFEF76FF94FF41D
:104400007A71B0FBF1F0FEF7A7FF0420FEF797FFEB
:1044100000221146501EFDF7F1FD38B0BDE8F081D5
:104420000D48016841F4700101600C48016841F0D9
:1044300001010160002181600268094B1A4002609D
:104440008214C260026822F4802202608161024903
:10445000C00380390860704788ED00E0001002401A
:10446000FFFFF6EAFEE700000FB4084B10B504A901
:1044700002AA039800F01CF8044602A9002000F0EC
:1044800030F9204610BC5DF814FB0000E34600083C
:1044900002E008C8121F08C1002AFAD1704770470D
:1044A000002001E001C1121F002AFBD1704700006B
:1044B0002DE9FF4F8BB09A460F460446002606E0D2
:1044C00025280BD052460D999047641C761C207805
:1044D0000028F5D10FB0304600F000B90025A946FC
:1044E00001227D4900E0054314F8013F203B02FA18
:1044F00003F00842F7D120782E2817D114F8010FC5
:1045000045F004052A280ED06FF02F022078A0F184
:10451000300109290AD809EB890102EB410100EBBE
:104520000109641CF2E757F8049B641C20786C288E
:104530000DD004DC4C2812D06A2811D104E0742874
:104540000DD07A280CD10AE045F4001507E0617817
:1045500045F48015814202D1641C05F58015641C68
:10456000207869283ED006DC0028B3D063280BD021
:10457000642804D136E0732810D075285CD05246E8
:104580000D999047761CA5E017F8040B8DF80000F4
:1045900000208DF80100E846012003E057F8048B65
:1045A0004FF0FF3069074FF0000501D40AE06D1CA1
:1045B0004D450DDA8542FADB18F805100029F6D1D1
:1045C00006E06D1C8542FCDB18F805100029F8D1C7
:1045D0002E4404E018F8010B52460D9990476D1EC9
:1045E000F8D277E000200A90C5F302504FF00A0B92
:1045F00002280CD001CFC117021E71F100020CDAA3
:104600000023D0EB030063EB01012D2208E0FF1D26
:1046100027F00707F7E80201EEE72A0504D52B2269
:104620008DF82420012203E0EA070FD02022F7E7CB
:104630000DF12008089218E000200A90C5F30250FE
:104640004FF00A0B022803D001CF00210022EFE730
:10465000FF1D27F00707F7E80201F7E75A460A9B14
:10466000FBF7C0FD303208F8012D50EA0102F5D108
:10467000ADEB080000F1200B680701D44FF00109F1
:10468000D94502DDA9EB0B0000E0002081460025A2
:1046900006E009A85246405D0D9990476D1C761CB6
:1046A00008988542F5DB04E0302052460D9990478A
:1046B000761CB9F10001A9F10109F5DC05E018F853
:1046C000010B52460D999047761CBBF10001ABF1EE
:1046D000010BF4DC641CFAE60928010030BCBDE8DB
:1046E000C08F0A68531C0B601070704710B50446E9
:1046F0000020E070401EA062204600F063FF08B179
:10470000042010BD04F22A2000F0DAFDA0F52A41B1
:10471000553901D0032010BD94F82C00E92805D0AC
:10472000EB2814D194F82E00902810D104F16200E7
:1047300000F0BBFD0749B1EB002F06D004F17E006D
:1047400000F0B3FD0449884201D1002010BD0220D1
:1047500010BD0000004641544641543300E0401C67
:1047600002780AB18A42FAD1D0B270470268490A87
:10477000006A5289B1FBF2F1001D04C81AB19142DE
:1047800003D3891AF8E7002070470068084470478F
:104790000269891E921E8A4201D800207047426A2F
:1047A000408901FB002070472DE9F05F82460C46EE
:1047B00001F11A0000F084FD78BB2078012700F099
:1047C0003F00401E00EB8001DFF8589001EBC00570
:1047D00000264FF6FF7B00BF19F80600204400F0CA
:1047E0006FFD80466FB1FF2D17D200F067FB0746C3
:1047F0003AF815006D1C00F061FB87420DD1474669
:1048000001E0D84509D1761C0D2EE5D3207840066D
:1048100006D52FB13AF8150010B1002000F004B809
:104820000120FBE71C57000830BCBDE8C09F00001A
:104830002DE9F84F824600680E680024C768884654
:104840002546705D6D1C20281AD32F2813D05C28B4
:1048500011D0FF2C3CD2012100F014FB5FEA0009CB
:1048600036D0B9F1800F12D201466EA0FFF776FF65
:1048700070BB0CE06D1C715D2F29FBD05C29F9D059
:104880007219C8F80020202805D204250FE027F867
:104890001490641CD5E7002509E000BF07EB440035
:1048A00030F8020C202801D02E2802D1641E002CE2
:1048B000F4D1002027F8140054B120210AF120007F
:1048C0005FF00B0200F8011B521EFBD1002603E033
:1048D000062000F0B3B8761C37F816002028FAD06E
:1048E0002E28F8D01EB145F0030500E0641E2CB15F
:1048F00007EB440030F8020C2E28F7D14FF00009E6
:104900004FF0080BCDF8009037F8160006F10106BD
:104910005FEA000824D0B8F1200F04D0B8F12E0FC0
:1049200004D1A64202D045F00305EDE700985845B2
:1049300001D2A64219D1BBF10B0F0FD0A64201D074
:1049400045F003050CD84FF0080000904FEA89604D
:1049500026464FF00B0B4FEA1069D5E745F00305EB
:104960009AF82000E52838D03AE04046B8F1800FA8
:1049700010D3002100F086FA5FEA000805D02C4928
:1049800001EB080010F8800C804645F00205B8F1F4
:10499000000F04D0014627A0FFF7E0FE20B14FF042
:1049A0005F0845F003050FE0A8F14100192802D87F
:1049B00049F0020908E0A8F16100192804D8413043
:1049C00049F001091FFA80F8009A0AEB020181F808
:1049D00020800098401C009096E705218AF820105E
:1049E000BBF1080F03D14FEA89604FEA1069C9F3A0
:1049F0008100032803D06FEA0901890701D145F03E
:104A00000205A90709D409F00301012901D145F0E4
:104A10001005012801D145F008058AF82B50002027
:104A200057E70000222A3A3C3E3F7C7F000000000E
:104A30009C5600082B2C3B3D5B5D000018BCBDE87C
:104A4000E08F00002DE9F04704460021D0F80090E7
:104A500000F0A4F800285BD1FF25471EA846E762B6
:104A60004846A16900F0AEFD060050D1E169087822
:104A700050B1CA7AE52802F03F02A2713FD0130775
:104A800004D50F2A3BD105E0042640E00F2A01D0CF
:104A9000E5B120E094F82B20520632D4420606D528
:104AA00091F80D8000F0BF0022690546E262A8423D
:104AB00009D14A7B424506D1D9F80C00FFF774FEB4
:104AC00008B16D1E00E0FF25EDB21AE0084600F0C7
:104AD0009FFD40451BD094F82B00C0070FD1D4F8A0
:104AE0001C1004F120000B2211F8013B10F8015BAF
:104AF0005B1B521E02D0002BF6D000E03BB1FF251D
:104B0000E7620021204600F005F80600A8D03046F4
:104B1000BDE8F0872DE9F041044606680569806923
:104B20008846203510B1B5F5001F02D30420BDE83A
:104B3000F081E9052AD1401CA0616169002729B1F3
:104B40007089401E10EA552F05D01FE03089B0EB68
:104B5000551F14D91AE0204600F017FB0146012822
:104B600001D80220E3E7481C06D03069884208D803
:104B7000B8F1000F02D002E00120D8E7A761A761D9
:104B8000D4E730466161FFF703FEA061C5F308007A
:104B900030442C302561E0610020C8E72DE9F04168
:104BA00007680E460546B1F5001F36D2F00634D12F
:104BB0002E61AC6824B93878032805D33C6A1CB14F
:104BC00078894FEA402812E03889B0EB561F24D983
:104BD000386A12E0284600F0D8FA0446401C1AD081
:104BE000022C1AD33869A04217D9A6EB080646450D
:104BF0002146EFD23846FFF7CBFDC5E9054060B14D
:104C000000EB5620A861C6F3080038442C30E86158
:104C10000020BDE8F0810120FBE70220F9E7000059
:104C2000084910B50B5C002253B901220A540A1836
:104C300001EB8000127A40680168104688470246FE
:104C4000104610BDB007002030B4054D2C1805EB00
:104C50008000247A406885682046AC4630BC6047B6
:104C6000B0070020044A111802EB8000097A40685E
:104C70004268084610470000B007002038B50446D7
:104C8000694600F0D2FC002801D10021216038BD26
:104C900017B581B0144602980090684600F0D4FA27
:104CA000002802DA0B2004B010BD0B4A002352F892
:104CB000201001B10B700199002900D00B7042F84F
:104CC000201001D0012C01D00020ECE7002201A926
:104CD00002A800F033F9E6E718000020F7B58EB01F
:104CE00004000BD002F001073A4669460FA800F015
:104CF00025F905004FF0000603D015E0092011B09A
:104D0000F0BD0098019001A80F9900F0FBF9050093
:104D10000AD19DF82F00000601D5062504E09DF874
:104D20000A00C00603D5042526602846E7E708994F
:104D3000009800F0A7FAA06008981C3000F0B5FABF
:104D40002662E06000982060C088A08027746674A6
:104D5000E6616661E9E72DE9FC5F054600200E4645
:104D600018601F4614466946284600F05EFC00287D
:104D700011D1687C00280ED1287CC0070AD069694F
:104D8000E8684FF00209401A4FF00108844272D9D6
:104D9000044670E0072000F072B86969C8054ED17A
:104DA00000984089401E00EA51205FEA000A11D1B4
:104DB00029B1286A28B12846FFF7D8FC05E0A86881
:104DC00003E02846A96900F0E0F902281DD3411C40
:104DD0002FD0A861A9690098FFF7DAFCA8B1504468
:104DE0000190600A5FEA000B16D000980AEB0B02F4
:104DF00041898A4201D9A1EB0A0B40785B463146D2
:104E0000019AFFF721FFA0B903E085F81190022075
:104E1000C1E74FEA4B2026E0E969019881420CD0B6
:104E20000098012305F124014078019AFFF70CFF57
:104E300018B185F811800120ADE70198E861A88AD2
:104E4000C0F30801C1F50070A04200D920462944F2
:104E50003246031E01F1240105D011F801CB02F8FE
:104E600001CB5B1EF9D16969064401446961396867
:104E7000241A01443960002C8FD100208BE73CBC00
:104E8000BDE8C09F802804D30B4A51B1FF2801D947
:104E90000020704702EB4000A0F58050B0F8000FF2
:104EA000704732F81130834203D0491C89B28029FF
:104EB000F7D38031C8B270474057000830B5B0F51D
:104EC000805F01D21B4900E01B4931F8022B002A08
:104ED00015D0904213D331F8024B230AE5B252FAAF
:104EE00084F4844221D9092B09D2DFE803F00509B3
:104EF0000E11131517191B00801A31F8100030BD60
:104F0000811A01F00101401A00E0103880B230BD72
:104F10002038FBE73038F9E71A38F7E70830F5E7CB
:104F20005038F3E7A0F5E350F0E7002BCDD101EBCB
:104F30004501CAE740580008325A00082DE9FF41F0
:104F400000270E460F6000F07FF9050003D50B2007
:104F500004B0BDE8F081694850F8254084B1346060
:104F6000207820B16078FFF77DFEC007F0D0277071
:104F7000E8B26070FFF754FEC00703D00320E7E7F4
:104F80000C20E5E7002631462046FFF7AFFB02285C
:104F900022D100254FEA0D0704EB051090F8EE1121
:104FA00000F5F57019B1083000F07FF900E000203D
:104FB00047F825006D1C042DEED3002557F8256019
:104FC00036B131462046FFF791FB022801D203E0BB
:104FD00003206D1C042DF1D3042809D002286DD2C2
:104FE00004F1370000F06CF9B0F5007F66D101E004
:104FF0000120ADE704F1420000F062F918B904F1B4
:10500000500000F052F9606194F83C50A570012DF9
:1050100001D0022D52D1454394F839006081E8B3A4
:10502000411E08424AD104F13D0000F049F92081B7
:10503000000743D104F13F0000F042F9070004D11A
:1050400004F14C0000F031F9074604F13A0000F099
:1050500037F9010032D02389481900EB1312974227
:105060002CD3B81A6789B0FBF7F0B8B103274FF615
:10507000F57C604500D8022740F6F57C604500D8F5
:105080000127801C31442061C4E906613244626218
:10509000032F15D013B12944216200E00EE0022F46
:1050A0001FD000F0010100EB400001EB500000BFF9
:1050B000616900F2FF10B1EB502F14D20D2047E7C9
:1050C00004F1560000F0FCF80028F7D120890028F0
:1050D000F4D104F1580000F0E8F820622069800063
:1050E000E6E74000E4E705482770001F0188491CF7
:1050F0000180E1800248E060002029E718000020DC
:10510000B005002073B504460568019801E0401C15
:10511000019001782F29FAD05C29F8D00021A160F4
:1051200001980078202806D2802084F82B002046A1
:10513000FFF734FD7CBD01A92046FFF779FB00286D
:10514000F8D12046FFF77EFC94F82B1028B10428F4
:10515000F0D14907EED405207CBD4907FCD4A079E5
:10516000C006F8D5208AC0F30800411928462C3122
:1051700000F088F8A060DEE738B504468DF800003E
:1051800069460320ABBE204638BD2DE9F0410468D6
:105190000D4602290BD32069A84208D920784FF088
:1051A000FF36012807D002282BD0032839D001264A
:1051B0003046BDE8F081E06905EB550700EB57216B
:1051C000204600F0FFF90028F2D1C7F30800204480
:1051D0007F1C90F82C80E06900EB5721204600F0FE
:1051E000F1F90028E4D1C7F30800204490F82C100E
:1051F00048EA0120E90701D00609D9E7C0F30B0608
:10520000D6E7E06900EB1521204600F0DBF9002825
:10521000CED1E8B204EB40002C3000F051F8064645
:10522000C6E7E06900EBD511204600F0CBF9002875
:10523000BED140F2FF1000EA850020442C3000F07F
:1052400034F820F07046B3E710B504464FF0FF3055
:105250002268002A13D0114600E0491C0B78202B4D
:105260000ED33A2BF9D112F8013B303B0A2B06D270
:105270008A4204D1002B02D1491C1846216010BD7E
:10528000002010BD70B506460D4601F11A0000F071
:1052900017F804463078032805D105F1140000F012
:1052A0000FF844EA0044204670BDC178827842EA93
:1052B00001214278007842EA012140EA012070474A
:1052C0004178007840EA012070470000FCF71EFE9C
:1052D000FFF756F8FCF7CAF8784C01224021204627
:1052E000FCF700FE012220212046FCF7FBFD0122F5
:1052F00010212046FCF7F6FD71A000F077F94FF47D
:10530000FA70FCF795FA002240212046FCF7EAFDEE
:10531000002220212046FCF7E5FD00221021204636
:10532000FCF7E0FD6D4ED6F894006D4D80010AD576
:105330006CA000F05BF956F8940F40F40000306068
:105340006DA000F053F94FF4807631462046FCF70B
:10535000C0FD00284AD04CE00A2802D16CA000F021
:1053600045F92878282802D172A000F03FF9287862
:105370000A280DD24FF001024FF040012046FCF701
:10538000B1FD012220212046FCF7ACFD01220DE0F9
:105390000ED14FF000024FF040012046FCF7A2FD75
:1053A000002220212046FCF79DFD002210210EE066
:1053B000282802D24FF040010EE00CD14FF000023D
:1053C0004FF040012046FCF78DFD012220212046B0
:1053D000FCF788FD03E020212046FCF77FFD2878BC
:1053E000401C28706420FCF723FAAEE728785A287E
:1053F000B2D3002240212046FCF774FD0022202178
:105400002046FCF76FFD002210212046FCF76AFDC4
:1054100028784FF47A755A2811D2282808D94FA035
:1054200000F0E4F82846FCF703FAFBF71BFA06E065
:105430000A2804D950A000F0D9F8FBF769FAFBF765
:105440006BF8A8B952A000F0D1F801224021204603
:10545000FCF748FD2846FCF7EBF9002240212046E6
:10546000FCF740FDFEF742FDFBF7D8FFFBF7E0F944
:105470004DA000F0BBF840F21A4501221021204651
:10548000FCF730FD9620FCF7D3F9002210212046CE
:10549000FCF728FD9620FCF7CBF9012210212046CD
:1054A000FCF720FD9620FCF7C3F9002210212046CE
:1054B000FCF718FD2846FCF7BBF9DEE700040048BE
:1054C0000A506F7765722075702C20426F6F7420C0
:1054D000737461727465642E000000000010024055
:1054E000080000204F424C20666C616720697320E1
:1054F0006163746976652E00526573657420666C0D
:1055000061677320636C65617265642E0000000042
:1055100052656C6561736520627574746F6E20747A
:105520006F20656E74657220426F6F746C6F61647A
:1055300065722E0052656C656173652062757474C6
:105540006F6E20746F20656E74657220537973746A
:10555000656D204D656D6F72792E0000456E746526
:1055600072696E672053797374656D204D656D6F38
:1055700072792E2E2E000000456E746572696E677A
:1055800020426F6F746C6F616465722E2E2E000066
:105590004C61756E6368696E67204170706C6963F9
:1055A0006174696F6E2E00004E6F206170706C69BF
:1055B000636174696F6E20696E20666C6173682E1A
:1055C0000000000070B50446806A0D460026A8421F
:1055D0000AD00A466078012304F12C01FFF734FB5E
:1055E00008B1751E0126A562304670BD10B504468F
:1055F00001E0FFF7C1FD14F8010B04490028F8D1C0
:10560000BDE810400A20FFF7B7BD000028000020C9
:10561000014600200B22430803EBC01011F8013BA8
:10562000521E1844C0B2F6D1704770B50D46040042
:105630000CD0206850B1017841B1C188A288914254
:1056400004D14078FFF70EFBC00703D0002028608C
:10565000092070BD20682860002070BD0000000097
:10566000000000000102030406070809A0860100EB
:10567000400D0300801A060000350C0040420F0068
:1056800080841E0000093D0000127A000024F4000E
:1056900000366E010048E801006CDC0243554541CC
:1056A0004141414345454549494941414592924F10
:1056B0004F4F5555594F554F9C4F9E9F41494F5500
:1056C000A5A5A6A7A8A9AAABACADAEAFB0B1B2B321
:1056D000B4414141B8B9BABBBCBDBEBFC0C1C2C371
:1056E000C4C54141C8C9CACBCCCDCECFD1D1454527
:1056F0004549494949D9DADBDCDD49DF4FE14F4F04
:105700004F4FE6E8E85555555959EEEFF0F1F2F3F1
:10571000F4F5F6F7F8F9FAFBFCFDFEFF01030507C7
:10572000090E10121416181C1E0000004142000839
:105730000D430008AD420008114300085D42000817
:10574000C700FC00E900E200E400E000E500E7003B
:10575000EA00EB00E800EF00EE00EC00C400C5003A
:10576000C900E600C600F400F600F200FB00F900F4
:10577000FF00D600DC00F800A300D800D70092019B
:10578000E100ED00F300FA00F100D100AA00BA0038
:10579000BF00AE00AC00BD00BC00A100AB00BB0070
:1057A00091259225932502252425C100C200C00021
:1057B000A9006325512557255D25A200A5001025C8
:1057C000142534252C251C2500253C25E300C30089
:1057D0005A25542569256625602550256C25A40089
:1057E000F000D000CA00CB00C8003101CD00CE00CF
:1057F000CF0018250C2588258425A600CC008025FF
:10580000D300DF00D400D200F500D500B500FE00C3
:10581000DE00DA00DB00D900FD00DD00AF00B400DF
:10582000AD00B1001720BE00B600A700F700B80019
:10583000B000A800B700B900B300B200A025A000D6
:1058400061001A03E0001703F8000703FF000100DE
:1058500078010001300132010601390110014A01CD
:105860002E017901060180014D0043028101820170
:1058700082018401840186018701870189018A01EF
:105880008B018B018D018E018F019001910191019E
:1058900093019401F60196019701980198013D0248
:1058A0009B019C019D0120029F01A001A001A2017A
:1058B000A201A401A401A601A701A701A901AA01AF
:1058C000AB01AC01AC01AE01AF01AF01B101B2015E
:1058D000B301B301B501B501B701B801B801BA010F
:1058E000BB01BC01BC01BE01F701C001C101C20185
:1058F000C301C401C501C401C701C801C701CA0170
:10590000CB01CA01CD011001DD0101008E01DE01D4
:105910001201F3010300F101F401F401F80128017F
:10592000220212013A020900652C3B023B023D02B1
:10593000662C3F0240024102410246020A01530224
:10594000400081018601550289018A0158028F01B8
:105950005A0290015C025D025E025F0293016102E5
:105960006202940164026502660267029701960171
:105970006A02622C6C026D026E029C01700271025E
:105980009D01730274029F01760277027802790208
:105990007A027B027C02642C7E027F02A6018102D5
:1059A0008202A9018402850286028702AE014402B6
:1059B000B101B20145028D028E028F029002910266
:1059C000B7017B030300FD03FE03FF03AC030400E8
:1059D0008603880389038A03B1031103C20302000B
:1059E000A303A303C4030803CC0303008C038E03A7
:1059F0008F03D8031801F2030A00F903F303F40339
:105A0000F503F603F703F703F903FA03FA03300487
:105A1000200350041007600422018A043601C104E7
:105A20000E01CF040100C004D00444016105260426
:105A300000007D1D0100632C001E9601A01E5A016E
:105A4000001F0806101F0606201F0806301F080644
:105A5000401F0606511F0700591F521F5B1F541F8E
:105A60005D1F561F5F1F601F0806701F0E00BA1FC4
:105A7000BB1FC81FC91FCA1FCB1FDA1FDB1FF81FA0
:105A8000F91FEA1FEB1FFA1FFB1F801F0806901F5C
:105A90000806A01F0806B01F0400B81FB91FB21FD8
:105AA000BC1FCC1F0100C31FD01F0206E01F02064F
:105AB000E51F0100EC1FF21F0100FC1F4E21010039
:105AC000322170211002842101008321D0241A0583
:105AD000302C2F04602C0201672C0601752C02016A
